{
	"DutchAuction.sol": {
		"DutchAuction": {
			"abi": [
				{
					"inputs": [
						{
							"internalType": "address",
							"name": "_nft",
							"type": "address"
						},
						{
							"internalType": "uint256",
							"name": "_nftId",
							"type": "uint256"
						},
						{
							"internalType": "uint256",
							"name": "_startingPrice",
							"type": "uint256"
						},
						{
							"internalType": "uint256",
							"name": "_discountRate",
							"type": "uint256"
						}
					],
					"stateMutability": "nonpayable",
					"type": "constructor"
				},
				{
					"inputs": [],
					"name": "buy",
					"outputs": [],
					"stateMutability": "payable",
					"type": "function"
				},
				{
					"inputs": [],
					"name": "discountRate",
					"outputs": [
						{
							"internalType": "uint256",
							"name": "",
							"type": "uint256"
						}
					],
					"stateMutability": "view",
					"type": "function"
				},
				{
					"inputs": [],
					"name": "expiresAt",
					"outputs": [
						{
							"internalType": "uint256",
							"name": "",
							"type": "uint256"
						}
					],
					"stateMutability": "view",
					"type": "function"
				},
				{
					"inputs": [],
					"name": "getPrice",
					"outputs": [
						{
							"internalType": "uint256",
							"name": "",
							"type": "uint256"
						}
					],
					"stateMutability": "view",
					"type": "function"
				},
				{
					"inputs": [],
					"name": "nft",
					"outputs": [
						{
							"internalType": "contract IERC721",
							"name": "",
							"type": "address"
						}
					],
					"stateMutability": "view",
					"type": "function"
				},
				{
					"inputs": [],
					"name": "nftId",
					"outputs": [
						{
							"internalType": "uint256",
							"name": "",
							"type": "uint256"
						}
					],
					"stateMutability": "view",
					"type": "function"
				},
				{
					"inputs": [],
					"name": "seller",
					"outputs": [
						{
							"internalType": "address payable",
							"name": "",
							"type": "address"
						}
					],
					"stateMutability": "view",
					"type": "function"
				},
				{
					"inputs": [],
					"name": "startedAt",
					"outputs": [
						{
							"internalType": "uint256",
							"name": "",
							"type": "uint256"
						}
					],
					"stateMutability": "view",
					"type": "function"
				},
				{
					"inputs": [],
					"name": "startingPrice",
					"outputs": [
						{
							"internalType": "uint256",
							"name": "",
							"type": "uint256"
						}
					],
					"stateMutability": "view",
					"type": "function"
				}
			],
			"devdoc": {
				"kind": "dev",
				"methods": {},
				"version": 1
			},
			"evm": {
				"assembly": "    /* \"DutchAuction.sol\":160:1707  contract DutchAuction {... */\n  mstore(0x40, 0x0140)\n    /* \"DutchAuction.sol\":506:947  constructor(address _nft, uint256 _nftId, uint256 _startingPrice, uint256 _discountRate) {... */\n  callvalue\n  dup1\n  iszero\n  tag_1\n  jumpi\n  revert(0x00, 0x00)\ntag_1:\n  pop\n  mload(0x40)\n  sub(codesize, bytecodeSize)\n  dup1\n  bytecodeSize\n  dup4\n  codecopy\n  dup2\n  dup2\n  add\n  0x40\n  mstore\n  dup2\n  add\n  swap1\n  tag_2\n  swap2\n  swap1\n  tag_3\n  jump\t// in\ntag_2:\n    /* \"DutchAuction.sol\":619:623  _nft */\n  dup4\n    /* \"DutchAuction.sol\":605:624  nft = IERC721(_nft) */\n  0xffffffffffffffffffffffffffffffffffffffff\n  and\n  0x80\n  dup2\n  0xffffffffffffffffffffffffffffffffffffffff\n  and\n  dup2\n  mstore\n  pop\n  pop\n    /* \"DutchAuction.sol\":642:648  _nftId */\n  dup3\n    /* \"DutchAuction.sol\":634:639  nftId */\n  0x00\n    /* \"DutchAuction.sol\":634:648  nftId = _nftId */\n  dup2\n  swap1\n  sstore\n  pop\n    /* \"DutchAuction.sol\":675:685  msg.sender */\n  caller\n    /* \"DutchAuction.sol\":658:686  seller = payable(msg.sender) */\n  0xffffffffffffffffffffffffffffffffffffffff\n  and\n  0xa0\n  dup2\n  0xffffffffffffffffffffffffffffffffffffffff\n  and\n  dup2\n  mstore\n  pop\n  pop\n    /* \"DutchAuction.sol\":712:726  _startingPrice */\n  dup2\n    /* \"DutchAuction.sol\":696:726  startingPrice = _startingPrice */\n  0xc0\n  dup2\n  dup2\n  mstore\n  pop\n  pop\n    /* \"DutchAuction.sol\":751:764  _discountRate */\n  dup1\n    /* \"DutchAuction.sol\":736:764  discountRate = _discountRate */\n  0x0120\n  dup2\n  dup2\n  mstore\n  pop\n  pop\n    /* \"DutchAuction.sol\":786:801  block.timestamp */\n  timestamp\n    /* \"DutchAuction.sol\":774:801  startedAt = block.timestamp */\n  0xe0\n  dup2\n  dup2\n  mstore\n  pop\n  pop\n    /* \"DutchAuction.sol\":281:287  7 days */\n  0x093a80\n    /* \"DutchAuction.sol\":823:838  block.timestamp */\n  timestamp\n    /* \"DutchAuction.sol\":823:849  block.timestamp + DURATION */\n  tag_6\n  swap2\n  swap1\n  tag_7\n  jump\t// in\ntag_6:\n    /* \"DutchAuction.sol\":811:849  expiresAt = block.timestamp + DURATION */\n  0x0100\n  dup2\n  dup2\n  mstore\n  pop\n  pop\n    /* \"DutchAuction.sol\":281:287  7 days */\n  0x093a80\n    /* \"DutchAuction.sol\":886:899  _discountRate */\n  dup2\n    /* \"DutchAuction.sol\":886:910  _discountRate * DURATION */\n  tag_8\n  swap2\n  swap1\n  tag_9\n  jump\t// in\ntag_8:\n    /* \"DutchAuction.sol\":868:882  _startingPrice */\n  dup3\n    /* \"DutchAuction.sol\":868:910  _startingPrice >= _discountRate * DURATION */\n  lt\n  iszero\n    /* \"DutchAuction.sol\":860:940  require(_startingPrice >= _discountRate * DURATION, \"Starting price is too low\") */\n  tag_10\n  jumpi\n  mload(0x40)\n  0x08c379a000000000000000000000000000000000000000000000000000000000\n  dup2\n  mstore\n  0x04\n  add\n  tag_11\n  swap1\n  tag_12\n  jump\t// in\ntag_11:\n  mload(0x40)\n  dup1\n  swap2\n  sub\n  swap1\n  revert\ntag_10:\n    /* \"DutchAuction.sol\":506:947  constructor(address _nft, uint256 _nftId, uint256 _startingPrice, uint256 _discountRate) {... */\n  pop\n  pop\n  pop\n  pop\n    /* \"DutchAuction.sol\":160:1707  contract DutchAuction {... */\n  jump(tag_13)\n    /* \"#utility.yul\":88:205   */\ntag_15:\n    /* \"#utility.yul\":197:198   */\n  0x00\n    /* \"#utility.yul\":194:195   */\n  0x00\n    /* \"#utility.yul\":187:199   */\n  revert\n    /* \"#utility.yul\":334:460   */\ntag_17:\n    /* \"#utility.yul\":371:378   */\n  0x00\n    /* \"#utility.yul\":411:453   */\n  0xffffffffffffffffffffffffffffffffffffffff\n    /* \"#utility.yul\":404:409   */\n  dup3\n    /* \"#utility.yul\":400:454   */\n  and\n    /* \"#utility.yul\":389:454   */\n  swap1\n  pop\n    /* \"#utility.yul\":334:460   */\n  swap2\n  swap1\n  pop\n  jump\t// out\n    /* \"#utility.yul\":466:562   */\ntag_18:\n    /* \"#utility.yul\":503:510   */\n  0x00\n    /* \"#utility.yul\":532:556   */\n  tag_34\n    /* \"#utility.yul\":550:555   */\n  dup3\n    /* \"#utility.yul\":532:556   */\n  tag_17\n  jump\t// in\ntag_34:\n    /* \"#utility.yul\":521:556   */\n  swap1\n  pop\n    /* \"#utility.yul\":466:562   */\n  swap2\n  swap1\n  pop\n  jump\t// out\n    /* \"#utility.yul\":568:690   */\ntag_19:\n    /* \"#utility.yul\":641:665   */\n  tag_36\n    /* \"#utility.yul\":659:664   */\n  dup2\n    /* \"#utility.yul\":641:665   */\n  tag_18\n  jump\t// in\ntag_36:\n    /* \"#utility.yul\":634:639   */\n  dup2\n    /* \"#utility.yul\":631:666   */\n  eq\n    /* \"#utility.yul\":621:684   */\n  tag_37\n  jumpi\n    /* \"#utility.yul\":680:681   */\n  0x00\n    /* \"#utility.yul\":677:678   */\n  0x00\n    /* \"#utility.yul\":670:682   */\n  revert\n    /* \"#utility.yul\":621:684   */\ntag_37:\n    /* \"#utility.yul\":568:690   */\n  pop\n  jump\t// out\n    /* \"#utility.yul\":696:839   */\ntag_20:\n    /* \"#utility.yul\":753:758   */\n  0x00\n    /* \"#utility.yul\":784:790   */\n  dup2\n    /* \"#utility.yul\":778:791   */\n  mload\n    /* \"#utility.yul\":769:791   */\n  swap1\n  pop\n    /* \"#utility.yul\":800:833   */\n  tag_39\n    /* \"#utility.yul\":827:832   */\n  dup2\n    /* \"#utility.yul\":800:833   */\n  tag_19\n  jump\t// in\ntag_39:\n    /* \"#utility.yul\":696:839   */\n  swap3\n  swap2\n  pop\n  pop\n  jump\t// out\n    /* \"#utility.yul\":845:922   */\ntag_21:\n    /* \"#utility.yul\":882:889   */\n  0x00\n    /* \"#utility.yul\":911:916   */\n  dup2\n    /* \"#utility.yul\":900:916   */\n  swap1\n  pop\n    /* \"#utility.yul\":845:922   */\n  swap2\n  swap1\n  pop\n  jump\t// out\n    /* \"#utility.yul\":928:1050   */\ntag_22:\n    /* \"#utility.yul\":1001:1025   */\n  tag_42\n    /* \"#utility.yul\":1019:1024   */\n  dup2\n    /* \"#utility.yul\":1001:1025   */\n  tag_21\n  jump\t// in\ntag_42:\n    /* \"#utility.yul\":994:999   */\n  dup2\n    /* \"#utility.yul\":991:1026   */\n  eq\n    /* \"#utility.yul\":981:1044   */\n  tag_43\n  jumpi\n    /* \"#utility.yul\":1040:1041   */\n  0x00\n    /* \"#utility.yul\":1037:1038   */\n  0x00\n    /* \"#utility.yul\":1030:1042   */\n  revert\n    /* \"#utility.yul\":981:1044   */\ntag_43:\n    /* \"#utility.yul\":928:1050   */\n  pop\n  jump\t// out\n    /* \"#utility.yul\":1056:1199   */\ntag_23:\n    /* \"#utility.yul\":1113:1118   */\n  0x00\n    /* \"#utility.yul\":1144:1150   */\n  dup2\n    /* \"#utility.yul\":1138:1151   */\n  mload\n    /* \"#utility.yul\":1129:1151   */\n  swap1\n  pop\n    /* \"#utility.yul\":1160:1193   */\n  tag_45\n    /* \"#utility.yul\":1187:1192   */\n  dup2\n    /* \"#utility.yul\":1160:1193   */\n  tag_22\n  jump\t// in\ntag_45:\n    /* \"#utility.yul\":1056:1199   */\n  swap3\n  swap2\n  pop\n  pop\n  jump\t// out\n    /* \"#utility.yul\":1205:2025   */\ntag_3:\n    /* \"#utility.yul\":1302:1308   */\n  0x00\n    /* \"#utility.yul\":1310:1316   */\n  0x00\n    /* \"#utility.yul\":1318:1324   */\n  0x00\n    /* \"#utility.yul\":1326:1332   */\n  0x00\n    /* \"#utility.yul\":1375:1378   */\n  0x80\n    /* \"#utility.yul\":1363:1372   */\n  dup6\n    /* \"#utility.yul\":1354:1361   */\n  dup8\n    /* \"#utility.yul\":1350:1373   */\n  sub\n    /* \"#utility.yul\":1346:1379   */\n  slt\n    /* \"#utility.yul\":1343:1463   */\n  iszero\n  tag_47\n  jumpi\n    /* \"#utility.yul\":1382:1461   */\n  tag_48\n  tag_15\n  jump\t// in\ntag_48:\n    /* \"#utility.yul\":1343:1463   */\ntag_47:\n    /* \"#utility.yul\":1502:1503   */\n  0x00\n    /* \"#utility.yul\":1527:1591   */\n  tag_49\n    /* \"#utility.yul\":1583:1590   */\n  dup8\n    /* \"#utility.yul\":1574:1580   */\n  dup3\n    /* \"#utility.yul\":1563:1572   */\n  dup9\n    /* \"#utility.yul\":1559:1581   */\n  add\n    /* \"#utility.yul\":1527:1591   */\n  tag_20\n  jump\t// in\ntag_49:\n    /* \"#utility.yul\":1517:1591   */\n  swap5\n  pop\n    /* \"#utility.yul\":1473:1601   */\n  pop\n    /* \"#utility.yul\":1640:1642   */\n  0x20\n    /* \"#utility.yul\":1666:1730   */\n  tag_50\n    /* \"#utility.yul\":1722:1729   */\n  dup8\n    /* \"#utility.yul\":1713:1719   */\n  dup3\n    /* \"#utility.yul\":1702:1711   */\n  dup9\n    /* \"#utility.yul\":1698:1720   */\n  add\n    /* \"#utility.yul\":1666:1730   */\n  tag_23\n  jump\t// in\ntag_50:\n    /* \"#utility.yul\":1656:1730   */\n  swap4\n  pop\n    /* \"#utility.yul\":1611:1740   */\n  pop\n    /* \"#utility.yul\":1779:1781   */\n  0x40\n    /* \"#utility.yul\":1805:1869   */\n  tag_51\n    /* \"#utility.yul\":1861:1868   */\n  dup8\n    /* \"#utility.yul\":1852:1858   */\n  dup3\n    /* \"#utility.yul\":1841:1850   */\n  dup9\n    /* \"#utility.yul\":1837:1859   */\n  add\n    /* \"#utility.yul\":1805:1869   */\n  tag_23\n  jump\t// in\ntag_51:\n    /* \"#utility.yul\":1795:1869   */\n  swap3\n  pop\n    /* \"#utility.yul\":1750:1879   */\n  pop\n    /* \"#utility.yul\":1918:1920   */\n  0x60\n    /* \"#utility.yul\":1944:2008   */\n  tag_52\n    /* \"#utility.yul\":2000:2007   */\n  dup8\n    /* \"#utility.yul\":1991:1997   */\n  dup3\n    /* \"#utility.yul\":1980:1989   */\n  dup9\n    /* \"#utility.yul\":1976:1998   */\n  add\n    /* \"#utility.yul\":1944:2008   */\n  tag_23\n  jump\t// in\ntag_52:\n    /* \"#utility.yul\":1934:2008   */\n  swap2\n  pop\n    /* \"#utility.yul\":1889:2018   */\n  pop\n    /* \"#utility.yul\":1205:2025   */\n  swap3\n  swap6\n  swap2\n  swap5\n  pop\n  swap3\n  pop\n  jump\t// out\n    /* \"#utility.yul\":2031:2211   */\ntag_24:\n    /* \"#utility.yul\":2079:2156   */\n  0x4e487b7100000000000000000000000000000000000000000000000000000000\n    /* \"#utility.yul\":2076:2077   */\n  0x00\n    /* \"#utility.yul\":2069:2157   */\n  mstore\n    /* \"#utility.yul\":2176:2180   */\n  0x11\n    /* \"#utility.yul\":2173:2174   */\n  0x04\n    /* \"#utility.yul\":2166:2181   */\n  mstore\n    /* \"#utility.yul\":2200:2204   */\n  0x24\n    /* \"#utility.yul\":2197:2198   */\n  0x00\n    /* \"#utility.yul\":2190:2205   */\n  revert\n    /* \"#utility.yul\":2217:2408   */\ntag_7:\n    /* \"#utility.yul\":2257:2260   */\n  0x00\n    /* \"#utility.yul\":2276:2296   */\n  tag_55\n    /* \"#utility.yul\":2294:2295   */\n  dup3\n    /* \"#utility.yul\":2276:2296   */\n  tag_21\n  jump\t// in\ntag_55:\n    /* \"#utility.yul\":2271:2296   */\n  swap2\n  pop\n    /* \"#utility.yul\":2310:2330   */\n  tag_56\n    /* \"#utility.yul\":2328:2329   */\n  dup4\n    /* \"#utility.yul\":2310:2330   */\n  tag_21\n  jump\t// in\ntag_56:\n    /* \"#utility.yul\":2305:2330   */\n  swap3\n  pop\n    /* \"#utility.yul\":2353:2354   */\n  dup3\n    /* \"#utility.yul\":2350:2351   */\n  dup3\n    /* \"#utility.yul\":2346:2355   */\n  add\n    /* \"#utility.yul\":2339:2355   */\n  swap1\n  pop\n    /* \"#utility.yul\":2374:2377   */\n  dup1\n    /* \"#utility.yul\":2371:2372   */\n  dup3\n    /* \"#utility.yul\":2368:2378   */\n  gt\n    /* \"#utility.yul\":2365:2401   */\n  iszero\n  tag_57\n  jumpi\n    /* \"#utility.yul\":2381:2399   */\n  tag_58\n  tag_24\n  jump\t// in\ntag_58:\n    /* \"#utility.yul\":2365:2401   */\ntag_57:\n    /* \"#utility.yul\":2217:2408   */\n  swap3\n  swap2\n  pop\n  pop\n  jump\t// out\n    /* \"#utility.yul\":2414:2824   */\ntag_9:\n    /* \"#utility.yul\":2454:2461   */\n  0x00\n    /* \"#utility.yul\":2477:2497   */\n  tag_60\n    /* \"#utility.yul\":2495:2496   */\n  dup3\n    /* \"#utility.yul\":2477:2497   */\n  tag_21\n  jump\t// in\ntag_60:\n    /* \"#utility.yul\":2472:2497   */\n  swap2\n  pop\n    /* \"#utility.yul\":2511:2531   */\n  tag_61\n    /* \"#utility.yul\":2529:2530   */\n  dup4\n    /* \"#utility.yul\":2511:2531   */\n  tag_21\n  jump\t// in\ntag_61:\n    /* \"#utility.yul\":2506:2531   */\n  swap3\n  pop\n    /* \"#utility.yul\":2566:2567   */\n  dup3\n    /* \"#utility.yul\":2563:2564   */\n  dup3\n    /* \"#utility.yul\":2559:2568   */\n  mul\n    /* \"#utility.yul\":2588:2618   */\n  tag_62\n    /* \"#utility.yul\":2606:2617   */\n  dup2\n    /* \"#utility.yul\":2588:2618   */\n  tag_21\n  jump\t// in\ntag_62:\n    /* \"#utility.yul\":2577:2618   */\n  swap2\n  pop\n    /* \"#utility.yul\":2767:2768   */\n  dup3\n    /* \"#utility.yul\":2758:2765   */\n  dup3\n    /* \"#utility.yul\":2754:2769   */\n  div\n    /* \"#utility.yul\":2751:2752   */\n  dup5\n    /* \"#utility.yul\":2748:2770   */\n  eq\n    /* \"#utility.yul\":2728:2729   */\n  dup4\n    /* \"#utility.yul\":2721:2730   */\n  iszero\n    /* \"#utility.yul\":2701:2784   */\n  or\n    /* \"#utility.yul\":2678:2817   */\n  tag_63\n  jumpi\n    /* \"#utility.yul\":2797:2815   */\n  tag_64\n  tag_24\n  jump\t// in\ntag_64:\n    /* \"#utility.yul\":2678:2817   */\ntag_63:\n    /* \"#utility.yul\":2462:2824   */\n  pop\n    /* \"#utility.yul\":2414:2824   */\n  swap3\n  swap2\n  pop\n  pop\n  jump\t// out\n    /* \"#utility.yul\":2830:2999   */\ntag_25:\n    /* \"#utility.yul\":2914:2925   */\n  0x00\n    /* \"#utility.yul\":2948:2954   */\n  dup3\n    /* \"#utility.yul\":2943:2946   */\n  dup3\n    /* \"#utility.yul\":2936:2955   */\n  mstore\n    /* \"#utility.yul\":2988:2992   */\n  0x20\n    /* \"#utility.yul\":2983:2986   */\n  dup3\n    /* \"#utility.yul\":2979:2993   */\n  add\n    /* \"#utility.yul\":2964:2993   */\n  swap1\n  pop\n    /* \"#utility.yul\":2830:2999   */\n  swap3\n  swap2\n  pop\n  pop\n  jump\t// out\n    /* \"#utility.yul\":3005:3180   */\ntag_26:\n    /* \"#utility.yul\":3145:3172   */\n  0x5374617274696e6720707269636520697320746f6f206c6f7700000000000000\n    /* \"#utility.yul\":3141:3142   */\n  0x00\n    /* \"#utility.yul\":3133:3139   */\n  dup3\n    /* \"#utility.yul\":3129:3143   */\n  add\n    /* \"#utility.yul\":3122:3173   */\n  mstore\n    /* \"#utility.yul\":3005:3180   */\n  pop\n  jump\t// out\n    /* \"#utility.yul\":3186:3552   */\ntag_27:\n    /* \"#utility.yul\":3328:3331   */\n  0x00\n    /* \"#utility.yul\":3349:3416   */\n  tag_68\n    /* \"#utility.yul\":3413:3415   */\n  0x19\n    /* \"#utility.yul\":3408:3411   */\n  dup4\n    /* \"#utility.yul\":3349:3416   */\n  tag_25\n  jump\t// in\ntag_68:\n    /* \"#utility.yul\":3342:3416   */\n  swap2\n  pop\n    /* \"#utility.yul\":3425:3518   */\n  tag_69\n    /* \"#utility.yul\":3514:3517   */\n  dup3\n    /* \"#utility.yul\":3425:3518   */\n  tag_26\n  jump\t// in\ntag_69:\n    /* \"#utility.yul\":3543:3545   */\n  0x20\n    /* \"#utility.yul\":3538:3541   */\n  dup3\n    /* \"#utility.yul\":3534:3546   */\n  add\n    /* \"#utility.yul\":3527:3546   */\n  swap1\n  pop\n    /* \"#utility.yul\":3186:3552   */\n  swap2\n  swap1\n  pop\n  jump\t// out\n    /* \"#utility.yul\":3558:3977   */\ntag_12:\n    /* \"#utility.yul\":3724:3728   */\n  0x00\n    /* \"#utility.yul\":3762:3764   */\n  0x20\n    /* \"#utility.yul\":3751:3760   */\n  dup3\n    /* \"#utility.yul\":3747:3765   */\n  add\n    /* \"#utility.yul\":3739:3765   */\n  swap1\n  pop\n    /* \"#utility.yul\":3811:3820   */\n  dup2\n    /* \"#utility.yul\":3805:3809   */\n  dup2\n    /* \"#utility.yul\":3801:3821   */\n  sub\n    /* \"#utility.yul\":3797:3798   */\n  0x00\n    /* \"#utility.yul\":3786:3795   */\n  dup4\n    /* \"#utility.yul\":3782:3799   */\n  add\n    /* \"#utility.yul\":3775:3822   */\n  mstore\n    /* \"#utility.yul\":3839:3970   */\n  tag_71\n    /* \"#utility.yul\":3965:3969   */\n  dup2\n    /* \"#utility.yul\":3839:3970   */\n  tag_27\n  jump\t// in\ntag_71:\n    /* \"#utility.yul\":3831:3970   */\n  swap1\n  pop\n    /* \"#utility.yul\":3558:3977   */\n  swap2\n  swap1\n  pop\n  jump\t// out\n    /* \"DutchAuction.sol\":160:1707  contract DutchAuction {... */\ntag_13:\n  mload(0x80)\n  mload(0xa0)\n  mload(0xc0)\n  mload(0xe0)\n  mload(0x0100)\n  mload(0x0120)\n  codecopy(0x00, dataOffset(sub_0), dataSize(sub_0))\n  0x00\n  assignImmutable(\"0x7749cc8014201da2069c21d93ba99c584b6f62d393fde534ed47eac227e31561\")\n  0x00\n  assignImmutable(\"0x58a280f74f57bf051c40f060139dc747e015be52f68c57e2c4ab2e4bd4146f43\")\n  0x00\n  assignImmutable(\"0x81e080ffc23e8b8d44dd829bc823229e92b893eb1d8f624419d3f5682eb97fc3\")\n  0x00\n  assignImmutable(\"0x1572b593c53d839d80004aa4b8c51211864104f06ace9e22be9c4365b50655ea\")\n  0x00\n  assignImmutable(\"0xf4c2b5de886427473655d4c904c743576dc2d53249b7535d96c06cc97ae7216b\")\n  0x00\n  assignImmutable(\"0x5c4c6aa067b6f8e6cb38e6ab843832a94d1712d661a04d73c517d6a1931a9e5d\")\n  return(0x00, dataSize(sub_0))\nstop\n\nsub_0: assembly {\n        /* \"DutchAuction.sol\":160:1707  contract DutchAuction {... */\n      mstore(0x40, 0x80)\n      jumpi(tag_1, lt(calldatasize, 0x04))\n      shr(0xe0, calldataload(0x00))\n      dup1\n      0xa6f2ae3a\n      gt\n      tag_11\n      jumpi\n      dup1\n      0xa6f2ae3a\n      eq\n      tag_6\n      jumpi\n      dup1\n      0xc6bc5182\n      eq\n      tag_7\n      jumpi\n      dup1\n      0xd6fbf202\n      eq\n      tag_8\n      jumpi\n      dup1\n      0xe6c0e6d5\n      eq\n      tag_9\n      jumpi\n      dup1\n      0xf21f537d\n      eq\n      tag_10\n      jumpi\n      jump(tag_1)\n    tag_11:\n      dup1\n      0x08551a53\n      eq\n      tag_2\n      jumpi\n      dup1\n      0x47ccca02\n      eq\n      tag_3\n      jumpi\n      dup1\n      0x8622a689\n      eq\n      tag_4\n      jumpi\n      dup1\n      0x98d5fdca\n      eq\n      tag_5\n      jumpi\n    tag_1:\n      revert(0x00, 0x00)\n        /* \"DutchAuction.sol\":293:332  address payable public immutable seller */\n    tag_2:\n      callvalue\n      dup1\n      iszero\n      tag_12\n      jumpi\n      revert(0x00, 0x00)\n    tag_12:\n      pop\n      tag_13\n      tag_14\n      jump\t// in\n    tag_13:\n      mload(0x40)\n      tag_15\n      swap2\n      swap1\n      tag_16\n      jump\t// in\n    tag_15:\n      mload(0x40)\n      dup1\n      swap2\n      sub\n      swap1\n      return\n        /* \"DutchAuction.sol\":188:216  IERC721 public immutable nft */\n    tag_3:\n      callvalue\n      dup1\n      iszero\n      tag_17\n      jumpi\n      revert(0x00, 0x00)\n    tag_17:\n      pop\n      tag_18\n      tag_19\n      jump\t// in\n    tag_18:\n      mload(0x40)\n      tag_20\n      swap2\n      swap1\n      tag_21\n      jump\t// in\n    tag_20:\n      mload(0x40)\n      dup1\n      swap2\n      sub\n      swap1\n      return\n        /* \"DutchAuction.sol\":422:456  uint256 public immutable expiresAt */\n    tag_4:\n      callvalue\n      dup1\n      iszero\n      tag_22\n      jumpi\n      revert(0x00, 0x00)\n    tag_22:\n      pop\n      tag_23\n      tag_24\n      jump\t// in\n    tag_23:\n      mload(0x40)\n      tag_25\n      swap2\n      swap1\n      tag_26\n      jump\t// in\n    tag_25:\n      mload(0x40)\n      dup1\n      swap2\n      sub\n      swap1\n      return\n        /* \"DutchAuction.sol\":953:1165  function getPrice() public view returns (uint256) {... */\n    tag_5:\n      callvalue\n      dup1\n      iszero\n      tag_27\n      jumpi\n      revert(0x00, 0x00)\n    tag_27:\n      pop\n      tag_28\n      tag_29\n      jump\t// in\n    tag_28:\n      mload(0x40)\n      tag_30\n      swap2\n      swap1\n      tag_26\n      jump\t// in\n    tag_30:\n      mload(0x40)\n      dup1\n      swap2\n      sub\n      swap1\n      return\n        /* \"DutchAuction.sol\":1171:1705  function buy() public payable {... */\n    tag_6:\n      tag_31\n      tag_32\n      jump\t// in\n    tag_31:\n      stop\n        /* \"DutchAuction.sol\":222:242  uint256 public nftId */\n    tag_7:\n      callvalue\n      dup1\n      iszero\n      tag_33\n      jumpi\n      revert(0x00, 0x00)\n    tag_33:\n      pop\n      tag_34\n      tag_35\n      jump\t// in\n    tag_34:\n      mload(0x40)\n      tag_36\n      swap2\n      swap1\n      tag_26\n      jump\t// in\n    tag_36:\n      mload(0x40)\n      dup1\n      swap2\n      sub\n      swap1\n      return\n        /* \"DutchAuction.sol\":338:376  uint256 public immutable startingPrice */\n    tag_8:\n      callvalue\n      dup1\n      iszero\n      tag_37\n      jumpi\n      revert(0x00, 0x00)\n    tag_37:\n      pop\n      tag_38\n      tag_39\n      jump\t// in\n    tag_38:\n      mload(0x40)\n      tag_40\n      swap2\n      swap1\n      tag_26\n      jump\t// in\n    tag_40:\n      mload(0x40)\n      dup1\n      swap2\n      sub\n      swap1\n      return\n        /* \"DutchAuction.sol\":462:499  uint256 public immutable discountRate */\n    tag_9:\n      callvalue\n      dup1\n      iszero\n      tag_41\n      jumpi\n      revert(0x00, 0x00)\n    tag_41:\n      pop\n      tag_42\n      tag_43\n      jump\t// in\n    tag_42:\n      mload(0x40)\n      tag_44\n      swap2\n      swap1\n      tag_26\n      jump\t// in\n    tag_44:\n      mload(0x40)\n      dup1\n      swap2\n      sub\n      swap1\n      return\n        /* \"DutchAuction.sol\":382:416  uint256 public immutable startedAt */\n    tag_10:\n      callvalue\n      dup1\n      iszero\n      tag_45\n      jumpi\n      revert(0x00, 0x00)\n    tag_45:\n      pop\n      tag_46\n      tag_47\n      jump\t// in\n    tag_46:\n      mload(0x40)\n      tag_48\n      swap2\n      swap1\n      tag_26\n      jump\t// in\n    tag_48:\n      mload(0x40)\n      dup1\n      swap2\n      sub\n      swap1\n      return\n        /* \"DutchAuction.sol\":293:332  address payable public immutable seller */\n    tag_14:\n      immutable(\"0xf4c2b5de886427473655d4c904c743576dc2d53249b7535d96c06cc97ae7216b\")\n      dup2\n      jump\t// out\n        /* \"DutchAuction.sol\":188:216  IERC721 public immutable nft */\n    tag_19:\n      immutable(\"0x5c4c6aa067b6f8e6cb38e6ab843832a94d1712d661a04d73c517d6a1931a9e5d\")\n      dup2\n      jump\t// out\n        /* \"DutchAuction.sol\":422:456  uint256 public immutable expiresAt */\n    tag_24:\n      immutable(\"0x58a280f74f57bf051c40f060139dc747e015be52f68c57e2c4ab2e4bd4146f43\")\n      dup2\n      jump\t// out\n        /* \"DutchAuction.sol\":953:1165  function getPrice() public view returns (uint256) {... */\n    tag_29:\n        /* \"DutchAuction.sol\":994:1001  uint256 */\n      0x00\n        /* \"DutchAuction.sol\":1013:1032  uint256 timeElapsed */\n      0x00\n        /* \"DutchAuction.sol\":1053:1062  startedAt */\n      immutable(\"0x81e080ffc23e8b8d44dd829bc823229e92b893eb1d8f624419d3f5682eb97fc3\")\n        /* \"DutchAuction.sol\":1035:1050  block.timestamp */\n      timestamp\n        /* \"DutchAuction.sol\":1035:1062  block.timestamp - startedAt */\n      tag_50\n      swap2\n      swap1\n      tag_51\n      jump\t// in\n    tag_50:\n        /* \"DutchAuction.sol\":1013:1062  uint256 timeElapsed = block.timestamp - startedAt */\n      swap1\n      pop\n        /* \"DutchAuction.sol\":1072:1088  uint256 discount */\n      0x00\n        /* \"DutchAuction.sol\":1106:1117  timeElapsed */\n      dup2\n        /* \"DutchAuction.sol\":1091:1103  discountRate */\n      immutable(\"0x7749cc8014201da2069c21d93ba99c584b6f62d393fde534ed47eac227e31561\")\n        /* \"DutchAuction.sol\":1091:1117  discountRate * timeElapsed */\n      tag_52\n      swap2\n      swap1\n      tag_53\n      jump\t// in\n    tag_52:\n        /* \"DutchAuction.sol\":1072:1117  uint256 discount = discountRate * timeElapsed */\n      swap1\n      pop\n        /* \"DutchAuction.sol\":1150:1158  discount */\n      dup1\n        /* \"DutchAuction.sol\":1134:1147  startingPrice */\n      immutable(\"0x1572b593c53d839d80004aa4b8c51211864104f06ace9e22be9c4365b50655ea\")\n        /* \"DutchAuction.sol\":1134:1158  startingPrice - discount */\n      tag_54\n      swap2\n      swap1\n      tag_51\n      jump\t// in\n    tag_54:\n        /* \"DutchAuction.sol\":1127:1158  return startingPrice - discount */\n      swap3\n      pop\n      pop\n      pop\n        /* \"DutchAuction.sol\":953:1165  function getPrice() public view returns (uint256) {... */\n      swap1\n      jump\t// out\n        /* \"DutchAuction.sol\":1171:1705  function buy() public payable {... */\n    tag_32:\n        /* \"DutchAuction.sol\":1237:1246  expiresAt */\n      immutable(\"0x58a280f74f57bf051c40f060139dc747e015be52f68c57e2c4ab2e4bd4146f43\")\n        /* \"DutchAuction.sol\":1219:1234  block.timestamp */\n      timestamp\n        /* \"DutchAuction.sol\":1219:1246  block.timestamp < expiresAt */\n      lt\n        /* \"DutchAuction.sol\":1211:1272  require(block.timestamp < expiresAt, \"Auction already ended\") */\n      tag_56\n      jumpi\n      mload(0x40)\n      0x08c379a000000000000000000000000000000000000000000000000000000000\n      dup2\n      mstore\n      0x04\n      add\n      tag_57\n      swap1\n      tag_58\n      jump\t// in\n    tag_57:\n      mload(0x40)\n      dup1\n      swap2\n      sub\n      swap1\n      revert\n    tag_56:\n        /* \"DutchAuction.sol\":1282:1295  uint256 price */\n      0x00\n        /* \"DutchAuction.sol\":1298:1308  getPrice() */\n      tag_59\n        /* \"DutchAuction.sol\":1298:1306  getPrice */\n      tag_29\n        /* \"DutchAuction.sol\":1298:1308  getPrice() */\n      jump\t// in\n    tag_59:\n        /* \"DutchAuction.sol\":1282:1308  uint256 price = getPrice() */\n      swap1\n      pop\n        /* \"DutchAuction.sol\":1339:1344  price */\n      dup1\n        /* \"DutchAuction.sol\":1326:1335  msg.value */\n      callvalue\n        /* \"DutchAuction.sol\":1326:1344  msg.value >= price */\n      lt\n      iszero\n        /* \"DutchAuction.sol\":1318:1372  require(msg.value >= price, \"Insufficient bid amount\") */\n      tag_60\n      jumpi\n      mload(0x40)\n      0x08c379a000000000000000000000000000000000000000000000000000000000\n      dup2\n      mstore\n      0x04\n      add\n      tag_61\n      swap1\n      tag_62\n      jump\t// in\n    tag_61:\n      mload(0x40)\n      dup1\n      swap2\n      sub\n      swap1\n      revert\n    tag_60:\n        /* \"DutchAuction.sol\":1382:1385  nft */\n      immutable(\"0x5c4c6aa067b6f8e6cb38e6ab843832a94d1712d661a04d73c517d6a1931a9e5d\")\n        /* \"DutchAuction.sol\":1382:1398  nft.transferFrom */\n      0xffffffffffffffffffffffffffffffffffffffff\n      and\n      0x23b872dd\n        /* \"DutchAuction.sol\":1399:1405  seller */\n      immutable(\"0xf4c2b5de886427473655d4c904c743576dc2d53249b7535d96c06cc97ae7216b\")\n        /* \"DutchAuction.sol\":1407:1417  msg.sender */\n      caller\n        /* \"DutchAuction.sol\":1419:1424  nftId */\n      sload(0x00)\n        /* \"DutchAuction.sol\":1382:1425  nft.transferFrom(seller, msg.sender, nftId) */\n      mload(0x40)\n      dup5\n      0xffffffff\n      and\n      0xe0\n      shl\n      dup2\n      mstore\n      0x04\n      add\n      tag_63\n      swap4\n      swap3\n      swap2\n      swap1\n      tag_64\n      jump\t// in\n    tag_63:\n      0x00\n      mload(0x40)\n      dup1\n      dup4\n      sub\n      dup2\n      0x00\n      dup8\n      dup1\n      extcodesize\n      iszero\n      dup1\n      iszero\n      tag_65\n      jumpi\n      revert(0x00, 0x00)\n    tag_65:\n      pop\n      gas\n      call\n      iszero\n      dup1\n      iszero\n      tag_67\n      jumpi\n      returndatacopy(0x00, 0x00, returndatasize)\n      revert(0x00, returndatasize)\n    tag_67:\n      pop\n      pop\n      pop\n      pop\n        /* \"DutchAuction.sol\":1435:1449  uint256 refund */\n      0x00\n        /* \"DutchAuction.sol\":1464:1469  price */\n      dup2\n        /* \"DutchAuction.sol\":1452:1461  msg.value */\n      callvalue\n        /* \"DutchAuction.sol\":1452:1469  msg.value - price */\n      tag_68\n      swap2\n      swap1\n      tag_51\n      jump\t// in\n    tag_68:\n        /* \"DutchAuction.sol\":1435:1469  uint256 refund = msg.value - price */\n      swap1\n      pop\n        /* \"DutchAuction.sol\":1492:1493  0 */\n      0x00\n        /* \"DutchAuction.sol\":1483:1489  refund */\n      dup2\n        /* \"DutchAuction.sol\":1483:1493  refund > 0 */\n      gt\n        /* \"DutchAuction.sol\":1479:1556  if (refund > 0) {... */\n      iszero\n      tag_69\n      jumpi\n        /* \"DutchAuction.sol\":1517:1527  msg.sender */\n      caller\n        /* \"DutchAuction.sol\":1509:1537  payable(msg.sender).transfer */\n      0xffffffffffffffffffffffffffffffffffffffff\n      and\n        /* \"DutchAuction.sol\":1509:1545  payable(msg.sender).transfer(refund) */\n      0x08fc\n        /* \"DutchAuction.sol\":1538:1544  refund */\n      dup3\n        /* \"DutchAuction.sol\":1509:1545  payable(msg.sender).transfer(refund) */\n      swap1\n      dup2\n      iszero\n      mul\n      swap1\n      mload(0x40)\n      0x00\n      mload(0x40)\n      dup1\n      dup4\n      sub\n      dup2\n      dup6\n      dup9\n      dup9\n      call\n      swap4\n      pop\n      pop\n      pop\n      pop\n      iszero\n      dup1\n      iszero\n      tag_71\n      jumpi\n      returndatacopy(0x00, 0x00, returndatasize)\n      revert(0x00, returndatasize)\n    tag_71:\n      pop\n        /* \"DutchAuction.sol\":1479:1556  if (refund > 0) {... */\n    tag_69:\n        /* \"DutchAuction.sol\":1597:1609  bool success */\n      0x00\n        /* \"DutchAuction.sol\":1615:1621  seller */\n      immutable(\"0xf4c2b5de886427473655d4c904c743576dc2d53249b7535d96c06cc97ae7216b\")\n        /* \"DutchAuction.sol\":1615:1626  seller.call */\n      0xffffffffffffffffffffffffffffffffffffffff\n      and\n        /* \"DutchAuction.sol\":1634:1639  price */\n      dup4\n        /* \"DutchAuction.sol\":1615:1644  seller.call{value: price}(\"\") */\n      mload(0x40)\n      tag_72\n      swap1\n      tag_73\n      jump\t// in\n    tag_72:\n      0x00\n      mload(0x40)\n      dup1\n      dup4\n      sub\n      dup2\n      dup6\n      dup8\n      gas\n      call\n      swap3\n      pop\n      pop\n      pop\n      returndatasize\n      dup1\n      0x00\n      dup2\n      eq\n      tag_76\n      jumpi\n      mload(0x40)\n      swap2\n      pop\n      and(add(returndatasize, 0x3f), not(0x1f))\n      dup3\n      add\n      0x40\n      mstore\n      returndatasize\n      dup3\n      mstore\n      returndatasize\n      0x00\n      0x20\n      dup5\n      add\n      returndatacopy\n      jump(tag_75)\n    tag_76:\n      0x60\n      swap2\n      pop\n    tag_75:\n      pop\n        /* \"DutchAuction.sol\":1596:1644  (bool success, ) = seller.call{value: price}(\"\") */\n      pop\n      swap1\n      pop\n        /* \"DutchAuction.sol\":1662:1669  success */\n      dup1\n        /* \"DutchAuction.sol\":1654:1689  require(success, \"Transfer failed\") */\n      tag_77\n      jumpi\n      mload(0x40)\n      0x08c379a000000000000000000000000000000000000000000000000000000000\n      dup2\n      mstore\n      0x04\n      add\n      tag_78\n      swap1\n      tag_79\n      jump\t// in\n    tag_78:\n      mload(0x40)\n      dup1\n      swap2\n      sub\n      swap1\n      revert\n    tag_77:\n        /* \"DutchAuction.sol\":1201:1705  {... */\n      pop\n      pop\n      pop\n        /* \"DutchAuction.sol\":1171:1705  function buy() public payable {... */\n      jump\t// out\n        /* \"DutchAuction.sol\":222:242  uint256 public nftId */\n    tag_35:\n      sload(0x00)\n      dup2\n      jump\t// out\n        /* \"DutchAuction.sol\":338:376  uint256 public immutable startingPrice */\n    tag_39:\n      immutable(\"0x1572b593c53d839d80004aa4b8c51211864104f06ace9e22be9c4365b50655ea\")\n      dup2\n      jump\t// out\n        /* \"DutchAuction.sol\":462:499  uint256 public immutable discountRate */\n    tag_43:\n      immutable(\"0x7749cc8014201da2069c21d93ba99c584b6f62d393fde534ed47eac227e31561\")\n      dup2\n      jump\t// out\n        /* \"DutchAuction.sol\":382:416  uint256 public immutable startedAt */\n    tag_47:\n      immutable(\"0x81e080ffc23e8b8d44dd829bc823229e92b893eb1d8f624419d3f5682eb97fc3\")\n      dup2\n      jump\t// out\n        /* \"#utility.yul\":7:133   */\n    tag_80:\n        /* \"#utility.yul\":44:51   */\n      0x00\n        /* \"#utility.yul\":84:126   */\n      0xffffffffffffffffffffffffffffffffffffffff\n        /* \"#utility.yul\":77:82   */\n      dup3\n        /* \"#utility.yul\":73:127   */\n      and\n        /* \"#utility.yul\":62:127   */\n      swap1\n      pop\n        /* \"#utility.yul\":7:133   */\n      swap2\n      swap1\n      pop\n      jump\t// out\n        /* \"#utility.yul\":139:243   */\n    tag_81:\n        /* \"#utility.yul\":184:191   */\n      0x00\n        /* \"#utility.yul\":213:237   */\n      tag_108\n        /* \"#utility.yul\":231:236   */\n      dup3\n        /* \"#utility.yul\":213:237   */\n      tag_80\n      jump\t// in\n    tag_108:\n        /* \"#utility.yul\":202:237   */\n      swap1\n      pop\n        /* \"#utility.yul\":139:243   */\n      swap2\n      swap1\n      pop\n      jump\t// out\n        /* \"#utility.yul\":249:391   */\n    tag_82:\n        /* \"#utility.yul\":352:384   */\n      tag_110\n        /* \"#utility.yul\":378:383   */\n      dup2\n        /* \"#utility.yul\":352:384   */\n      tag_81\n      jump\t// in\n    tag_110:\n        /* \"#utility.yul\":347:350   */\n      dup3\n        /* \"#utility.yul\":340:385   */\n      mstore\n        /* \"#utility.yul\":249:391   */\n      pop\n      pop\n      jump\t// out\n        /* \"#utility.yul\":397:651   */\n    tag_16:\n        /* \"#utility.yul\":506:510   */\n      0x00\n        /* \"#utility.yul\":544:546   */\n      0x20\n        /* \"#utility.yul\":533:542   */\n      dup3\n        /* \"#utility.yul\":529:547   */\n      add\n        /* \"#utility.yul\":521:547   */\n      swap1\n      pop\n        /* \"#utility.yul\":557:644   */\n      tag_112\n        /* \"#utility.yul\":641:642   */\n      0x00\n        /* \"#utility.yul\":630:639   */\n      dup4\n        /* \"#utility.yul\":626:643   */\n      add\n        /* \"#utility.yul\":617:623   */\n      dup5\n        /* \"#utility.yul\":557:644   */\n      tag_82\n      jump\t// in\n    tag_112:\n        /* \"#utility.yul\":397:651   */\n      swap3\n      swap2\n      pop\n      pop\n      jump\t// out\n        /* \"#utility.yul\":657:717   */\n    tag_83:\n        /* \"#utility.yul\":685:688   */\n      0x00\n        /* \"#utility.yul\":706:711   */\n      dup2\n        /* \"#utility.yul\":699:711   */\n      swap1\n      pop\n        /* \"#utility.yul\":657:717   */\n      swap2\n      swap1\n      pop\n      jump\t// out\n        /* \"#utility.yul\":723:865   */\n    tag_84:\n        /* \"#utility.yul\":773:782   */\n      0x00\n        /* \"#utility.yul\":806:859   */\n      tag_115\n        /* \"#utility.yul\":824:858   */\n      tag_116\n        /* \"#utility.yul\":833:857   */\n      tag_117\n        /* \"#utility.yul\":851:856   */\n      dup5\n        /* \"#utility.yul\":833:857   */\n      tag_80\n      jump\t// in\n    tag_117:\n        /* \"#utility.yul\":824:858   */\n      tag_83\n      jump\t// in\n    tag_116:\n        /* \"#utility.yul\":806:859   */\n      tag_80\n      jump\t// in\n    tag_115:\n        /* \"#utility.yul\":793:859   */\n      swap1\n      pop\n        /* \"#utility.yul\":723:865   */\n      swap2\n      swap1\n      pop\n      jump\t// out\n        /* \"#utility.yul\":871:997   */\n    tag_85:\n        /* \"#utility.yul\":921:930   */\n      0x00\n        /* \"#utility.yul\":954:991   */\n      tag_119\n        /* \"#utility.yul\":985:990   */\n      dup3\n        /* \"#utility.yul\":954:991   */\n      tag_84\n      jump\t// in\n    tag_119:\n        /* \"#utility.yul\":941:991   */\n      swap1\n      pop\n        /* \"#utility.yul\":871:997   */\n      swap2\n      swap1\n      pop\n      jump\t// out\n        /* \"#utility.yul\":1003:1143   */\n    tag_86:\n        /* \"#utility.yul\":1067:1076   */\n      0x00\n        /* \"#utility.yul\":1100:1137   */\n      tag_121\n        /* \"#utility.yul\":1131:1136   */\n      dup3\n        /* \"#utility.yul\":1100:1137   */\n      tag_85\n      jump\t// in\n    tag_121:\n        /* \"#utility.yul\":1087:1137   */\n      swap1\n      pop\n        /* \"#utility.yul\":1003:1143   */\n      swap2\n      swap1\n      pop\n      jump\t// out\n        /* \"#utility.yul\":1149:1308   */\n    tag_87:\n        /* \"#utility.yul\":1250:1301   */\n      tag_123\n        /* \"#utility.yul\":1295:1300   */\n      dup2\n        /* \"#utility.yul\":1250:1301   */\n      tag_86\n      jump\t// in\n    tag_123:\n        /* \"#utility.yul\":1245:1248   */\n      dup3\n        /* \"#utility.yul\":1238:1302   */\n      mstore\n        /* \"#utility.yul\":1149:1308   */\n      pop\n      pop\n      jump\t// out\n        /* \"#utility.yul\":1314:1564   */\n    tag_21:\n        /* \"#utility.yul\":1421:1425   */\n      0x00\n        /* \"#utility.yul\":1459:1461   */\n      0x20\n        /* \"#utility.yul\":1448:1457   */\n      dup3\n        /* \"#utility.yul\":1444:1462   */\n      add\n        /* \"#utility.yul\":1436:1462   */\n      swap1\n      pop\n        /* \"#utility.yul\":1472:1557   */\n      tag_125\n        /* \"#utility.yul\":1554:1555   */\n      0x00\n        /* \"#utility.yul\":1543:1552   */\n      dup4\n        /* \"#utility.yul\":1539:1556   */\n      add\n        /* \"#utility.yul\":1530:1536   */\n      dup5\n        /* \"#utility.yul\":1472:1557   */\n      tag_87\n      jump\t// in\n    tag_125:\n        /* \"#utility.yul\":1314:1564   */\n      swap3\n      swap2\n      pop\n      pop\n      jump\t// out\n        /* \"#utility.yul\":1570:1647   */\n    tag_88:\n        /* \"#utility.yul\":1607:1614   */\n      0x00\n        /* \"#utility.yul\":1636:1641   */\n      dup2\n        /* \"#utility.yul\":1625:1641   */\n      swap1\n      pop\n        /* \"#utility.yul\":1570:1647   */\n      swap2\n      swap1\n      pop\n      jump\t// out\n        /* \"#utility.yul\":1653:1771   */\n    tag_89:\n        /* \"#utility.yul\":1740:1764   */\n      tag_128\n        /* \"#utility.yul\":1758:1763   */\n      dup2\n        /* \"#utility.yul\":1740:1764   */\n      tag_88\n      jump\t// in\n    tag_128:\n        /* \"#utility.yul\":1735:1738   */\n      dup3\n        /* \"#utility.yul\":1728:1765   */\n      mstore\n        /* \"#utility.yul\":1653:1771   */\n      pop\n      pop\n      jump\t// out\n        /* \"#utility.yul\":1777:1999   */\n    tag_26:\n        /* \"#utility.yul\":1870:1874   */\n      0x00\n        /* \"#utility.yul\":1908:1910   */\n      0x20\n        /* \"#utility.yul\":1897:1906   */\n      dup3\n        /* \"#utility.yul\":1893:1911   */\n      add\n        /* \"#utility.yul\":1885:1911   */\n      swap1\n      pop\n        /* \"#utility.yul\":1921:1992   */\n      tag_130\n        /* \"#utility.yul\":1989:1990   */\n      0x00\n        /* \"#utility.yul\":1978:1987   */\n      dup4\n        /* \"#utility.yul\":1974:1991   */\n      add\n        /* \"#utility.yul\":1965:1971   */\n      dup5\n        /* \"#utility.yul\":1921:1992   */\n      tag_89\n      jump\t// in\n    tag_130:\n        /* \"#utility.yul\":1777:1999   */\n      swap3\n      swap2\n      pop\n      pop\n      jump\t// out\n        /* \"#utility.yul\":2005:2185   */\n    tag_90:\n        /* \"#utility.yul\":2053:2130   */\n      0x4e487b7100000000000000000000000000000000000000000000000000000000\n        /* \"#utility.yul\":2050:2051   */\n      0x00\n        /* \"#utility.yul\":2043:2131   */\n      mstore\n        /* \"#utility.yul\":2150:2154   */\n      0x11\n        /* \"#utility.yul\":2147:2148   */\n      0x04\n        /* \"#utility.yul\":2140:2155   */\n      mstore\n        /* \"#utility.yul\":2174:2178   */\n      0x24\n        /* \"#utility.yul\":2171:2172   */\n      0x00\n        /* \"#utility.yul\":2164:2179   */\n      revert\n        /* \"#utility.yul\":2191:2385   */\n    tag_51:\n        /* \"#utility.yul\":2231:2235   */\n      0x00\n        /* \"#utility.yul\":2251:2271   */\n      tag_133\n        /* \"#utility.yul\":2269:2270   */\n      dup3\n        /* \"#utility.yul\":2251:2271   */\n      tag_88\n      jump\t// in\n    tag_133:\n        /* \"#utility.yul\":2246:2271   */\n      swap2\n      pop\n        /* \"#utility.yul\":2285:2305   */\n      tag_134\n        /* \"#utility.yul\":2303:2304   */\n      dup4\n        /* \"#utility.yul\":2285:2305   */\n      tag_88\n      jump\t// in\n    tag_134:\n        /* \"#utility.yul\":2280:2305   */\n      swap3\n      pop\n        /* \"#utility.yul\":2329:2330   */\n      dup3\n        /* \"#utility.yul\":2326:2327   */\n      dup3\n        /* \"#utility.yul\":2322:2331   */\n      sub\n        /* \"#utility.yul\":2314:2331   */\n      swap1\n      pop\n        /* \"#utility.yul\":2353:2354   */\n      dup2\n        /* \"#utility.yul\":2347:2351   */\n      dup2\n        /* \"#utility.yul\":2344:2355   */\n      gt\n        /* \"#utility.yul\":2341:2378   */\n      iszero\n      tag_135\n      jumpi\n        /* \"#utility.yul\":2358:2376   */\n      tag_136\n      tag_90\n      jump\t// in\n    tag_136:\n        /* \"#utility.yul\":2341:2378   */\n    tag_135:\n        /* \"#utility.yul\":2191:2385   */\n      swap3\n      swap2\n      pop\n      pop\n      jump\t// out\n        /* \"#utility.yul\":2391:2801   */\n    tag_53:\n        /* \"#utility.yul\":2431:2438   */\n      0x00\n        /* \"#utility.yul\":2454:2474   */\n      tag_138\n        /* \"#utility.yul\":2472:2473   */\n      dup3\n        /* \"#utility.yul\":2454:2474   */\n      tag_88\n      jump\t// in\n    tag_138:\n        /* \"#utility.yul\":2449:2474   */\n      swap2\n      pop\n        /* \"#utility.yul\":2488:2508   */\n      tag_139\n        /* \"#utility.yul\":2506:2507   */\n      dup4\n        /* \"#utility.yul\":2488:2508   */\n      tag_88\n      jump\t// in\n    tag_139:\n        /* \"#utility.yul\":2483:2508   */\n      swap3\n      pop\n        /* \"#utility.yul\":2543:2544   */\n      dup3\n        /* \"#utility.yul\":2540:2541   */\n      dup3\n        /* \"#utility.yul\":2536:2545   */\n      mul\n        /* \"#utility.yul\":2565:2595   */\n      tag_140\n        /* \"#utility.yul\":2583:2594   */\n      dup2\n        /* \"#utility.yul\":2565:2595   */\n      tag_88\n      jump\t// in\n    tag_140:\n        /* \"#utility.yul\":2554:2595   */\n      swap2\n      pop\n        /* \"#utility.yul\":2744:2745   */\n      dup3\n        /* \"#utility.yul\":2735:2742   */\n      dup3\n        /* \"#utility.yul\":2731:2746   */\n      div\n        /* \"#utility.yul\":2728:2729   */\n      dup5\n        /* \"#utility.yul\":2725:2747   */\n      eq\n        /* \"#utility.yul\":2705:2706   */\n      dup4\n        /* \"#utility.yul\":2698:2707   */\n      iszero\n        /* \"#utility.yul\":2678:2761   */\n      or\n        /* \"#utility.yul\":2655:2794   */\n      tag_141\n      jumpi\n        /* \"#utility.yul\":2774:2792   */\n      tag_142\n      tag_90\n      jump\t// in\n    tag_142:\n        /* \"#utility.yul\":2655:2794   */\n    tag_141:\n        /* \"#utility.yul\":2439:2801   */\n      pop\n        /* \"#utility.yul\":2391:2801   */\n      swap3\n      swap2\n      pop\n      pop\n      jump\t// out\n        /* \"#utility.yul\":2807:2976   */\n    tag_91:\n        /* \"#utility.yul\":2891:2902   */\n      0x00\n        /* \"#utility.yul\":2925:2931   */\n      dup3\n        /* \"#utility.yul\":2920:2923   */\n      dup3\n        /* \"#utility.yul\":2913:2932   */\n      mstore\n        /* \"#utility.yul\":2965:2969   */\n      0x20\n        /* \"#utility.yul\":2960:2963   */\n      dup3\n        /* \"#utility.yul\":2956:2970   */\n      add\n        /* \"#utility.yul\":2941:2970   */\n      swap1\n      pop\n        /* \"#utility.yul\":2807:2976   */\n      swap3\n      swap2\n      pop\n      pop\n      jump\t// out\n        /* \"#utility.yul\":2982:3153   */\n    tag_92:\n        /* \"#utility.yul\":3122:3145   */\n      0x41756374696f6e20616c726561647920656e6465640000000000000000000000\n        /* \"#utility.yul\":3118:3119   */\n      0x00\n        /* \"#utility.yul\":3110:3116   */\n      dup3\n        /* \"#utility.yul\":3106:3120   */\n      add\n        /* \"#utility.yul\":3099:3146   */\n      mstore\n        /* \"#utility.yul\":2982:3153   */\n      pop\n      jump\t// out\n        /* \"#utility.yul\":3159:3525   */\n    tag_93:\n        /* \"#utility.yul\":3301:3304   */\n      0x00\n        /* \"#utility.yul\":3322:3389   */\n      tag_146\n        /* \"#utility.yul\":3386:3388   */\n      0x15\n        /* \"#utility.yul\":3381:3384   */\n      dup4\n        /* \"#utility.yul\":3322:3389   */\n      tag_91\n      jump\t// in\n    tag_146:\n        /* \"#utility.yul\":3315:3389   */\n      swap2\n      pop\n        /* \"#utility.yul\":3398:3491   */\n      tag_147\n        /* \"#utility.yul\":3487:3490   */\n      dup3\n        /* \"#utility.yul\":3398:3491   */\n      tag_92\n      jump\t// in\n    tag_147:\n        /* \"#utility.yul\":3516:3518   */\n      0x20\n        /* \"#utility.yul\":3511:3514   */\n      dup3\n        /* \"#utility.yul\":3507:3519   */\n      add\n        /* \"#utility.yul\":3500:3519   */\n      swap1\n      pop\n        /* \"#utility.yul\":3159:3525   */\n      swap2\n      swap1\n      pop\n      jump\t// out\n        /* \"#utility.yul\":3531:3950   */\n    tag_58:\n        /* \"#utility.yul\":3697:3701   */\n      0x00\n        /* \"#utility.yul\":3735:3737   */\n      0x20\n        /* \"#utility.yul\":3724:3733   */\n      dup3\n        /* \"#utility.yul\":3720:3738   */\n      add\n        /* \"#utility.yul\":3712:3738   */\n      swap1\n      pop\n        /* \"#utility.yul\":3784:3793   */\n      dup2\n        /* \"#utility.yul\":3778:3782   */\n      dup2\n        /* \"#utility.yul\":3774:3794   */\n      sub\n        /* \"#utility.yul\":3770:3771   */\n      0x00\n        /* \"#utility.yul\":3759:3768   */\n      dup4\n        /* \"#utility.yul\":3755:3772   */\n      add\n        /* \"#utility.yul\":3748:3795   */\n      mstore\n        /* \"#utility.yul\":3812:3943   */\n      tag_149\n        /* \"#utility.yul\":3938:3942   */\n      dup2\n        /* \"#utility.yul\":3812:3943   */\n      tag_93\n      jump\t// in\n    tag_149:\n        /* \"#utility.yul\":3804:3943   */\n      swap1\n      pop\n        /* \"#utility.yul\":3531:3950   */\n      swap2\n      swap1\n      pop\n      jump\t// out\n        /* \"#utility.yul\":3956:4129   */\n    tag_94:\n        /* \"#utility.yul\":4096:4121   */\n      0x496e73756666696369656e742062696420616d6f756e74000000000000000000\n        /* \"#utility.yul\":4092:4093   */\n      0x00\n        /* \"#utility.yul\":4084:4090   */\n      dup3\n        /* \"#utility.yul\":4080:4094   */\n      add\n        /* \"#utility.yul\":4073:4122   */\n      mstore\n        /* \"#utility.yul\":3956:4129   */\n      pop\n      jump\t// out\n        /* \"#utility.yul\":4135:4501   */\n    tag_95:\n        /* \"#utility.yul\":4277:4280   */\n      0x00\n        /* \"#utility.yul\":4298:4365   */\n      tag_152\n        /* \"#utility.yul\":4362:4364   */\n      0x17\n        /* \"#utility.yul\":4357:4360   */\n      dup4\n        /* \"#utility.yul\":4298:4365   */\n      tag_91\n      jump\t// in\n    tag_152:\n        /* \"#utility.yul\":4291:4365   */\n      swap2\n      pop\n        /* \"#utility.yul\":4374:4467   */\n      tag_153\n        /* \"#utility.yul\":4463:4466   */\n      dup3\n        /* \"#utility.yul\":4374:4467   */\n      tag_94\n      jump\t// in\n    tag_153:\n        /* \"#utility.yul\":4492:4494   */\n      0x20\n        /* \"#utility.yul\":4487:4490   */\n      dup3\n        /* \"#utility.yul\":4483:4495   */\n      add\n        /* \"#utility.yul\":4476:4495   */\n      swap1\n      pop\n        /* \"#utility.yul\":4135:4501   */\n      swap2\n      swap1\n      pop\n      jump\t// out\n        /* \"#utility.yul\":4507:4926   */\n    tag_62:\n        /* \"#utility.yul\":4673:4677   */\n      0x00\n        /* \"#utility.yul\":4711:4713   */\n      0x20\n        /* \"#utility.yul\":4700:4709   */\n      dup3\n        /* \"#utility.yul\":4696:4714   */\n      add\n        /* \"#utility.yul\":4688:4714   */\n      swap1\n      pop\n        /* \"#utility.yul\":4760:4769   */\n      dup2\n        /* \"#utility.yul\":4754:4758   */\n      dup2\n        /* \"#utility.yul\":4750:4770   */\n      sub\n        /* \"#utility.yul\":4746:4747   */\n      0x00\n        /* \"#utility.yul\":4735:4744   */\n      dup4\n        /* \"#utility.yul\":4731:4748   */\n      add\n        /* \"#utility.yul\":4724:4771   */\n      mstore\n        /* \"#utility.yul\":4788:4919   */\n      tag_155\n        /* \"#utility.yul\":4914:4918   */\n      dup2\n        /* \"#utility.yul\":4788:4919   */\n      tag_95\n      jump\t// in\n    tag_155:\n        /* \"#utility.yul\":4780:4919   */\n      swap1\n      pop\n        /* \"#utility.yul\":4507:4926   */\n      swap2\n      swap1\n      pop\n      jump\t// out\n        /* \"#utility.yul\":4932:5066   */\n    tag_96:\n        /* \"#utility.yul\":4990:4999   */\n      0x00\n        /* \"#utility.yul\":5023:5060   */\n      tag_157\n        /* \"#utility.yul\":5054:5059   */\n      dup3\n        /* \"#utility.yul\":5023:5060   */\n      tag_85\n      jump\t// in\n    tag_157:\n        /* \"#utility.yul\":5010:5060   */\n      swap1\n      pop\n        /* \"#utility.yul\":4932:5066   */\n      swap2\n      swap1\n      pop\n      jump\t// out\n        /* \"#utility.yul\":5072:5219   */\n    tag_97:\n        /* \"#utility.yul\":5167:5212   */\n      tag_159\n        /* \"#utility.yul\":5206:5211   */\n      dup2\n        /* \"#utility.yul\":5167:5212   */\n      tag_96\n      jump\t// in\n    tag_159:\n        /* \"#utility.yul\":5162:5165   */\n      dup3\n        /* \"#utility.yul\":5155:5213   */\n      mstore\n        /* \"#utility.yul\":5072:5219   */\n      pop\n      pop\n      jump\t// out\n        /* \"#utility.yul\":5225:5321   */\n    tag_98:\n        /* \"#utility.yul\":5262:5269   */\n      0x00\n        /* \"#utility.yul\":5291:5315   */\n      tag_161\n        /* \"#utility.yul\":5309:5314   */\n      dup3\n        /* \"#utility.yul\":5291:5315   */\n      tag_80\n      jump\t// in\n    tag_161:\n        /* \"#utility.yul\":5280:5315   */\n      swap1\n      pop\n        /* \"#utility.yul\":5225:5321   */\n      swap2\n      swap1\n      pop\n      jump\t// out\n        /* \"#utility.yul\":5327:5445   */\n    tag_99:\n        /* \"#utility.yul\":5414:5438   */\n      tag_163\n        /* \"#utility.yul\":5432:5437   */\n      dup2\n        /* \"#utility.yul\":5414:5438   */\n      tag_98\n      jump\t// in\n    tag_163:\n        /* \"#utility.yul\":5409:5412   */\n      dup3\n        /* \"#utility.yul\":5402:5439   */\n      mstore\n        /* \"#utility.yul\":5327:5445   */\n      pop\n      pop\n      jump\t// out\n        /* \"#utility.yul\":5451:5909   */\n    tag_64:\n        /* \"#utility.yul\":5608:5612   */\n      0x00\n        /* \"#utility.yul\":5646:5648   */\n      0x60\n        /* \"#utility.yul\":5635:5644   */\n      dup3\n        /* \"#utility.yul\":5631:5649   */\n      add\n        /* \"#utility.yul\":5623:5649   */\n      swap1\n      pop\n        /* \"#utility.yul\":5659:5738   */\n      tag_165\n        /* \"#utility.yul\":5735:5736   */\n      0x00\n        /* \"#utility.yul\":5724:5733   */\n      dup4\n        /* \"#utility.yul\":5720:5737   */\n      add\n        /* \"#utility.yul\":5711:5717   */\n      dup7\n        /* \"#utility.yul\":5659:5738   */\n      tag_97\n      jump\t// in\n    tag_165:\n        /* \"#utility.yul\":5748:5820   */\n      tag_166\n        /* \"#utility.yul\":5816:5818   */\n      0x20\n        /* \"#utility.yul\":5805:5814   */\n      dup4\n        /* \"#utility.yul\":5801:5819   */\n      add\n        /* \"#utility.yul\":5792:5798   */\n      dup6\n        /* \"#utility.yul\":5748:5820   */\n      tag_99\n      jump\t// in\n    tag_166:\n        /* \"#utility.yul\":5830:5902   */\n      tag_167\n        /* \"#utility.yul\":5898:5900   */\n      0x40\n        /* \"#utility.yul\":5887:5896   */\n      dup4\n        /* \"#utility.yul\":5883:5901   */\n      add\n        /* \"#utility.yul\":5874:5880   */\n      dup5\n        /* \"#utility.yul\":5830:5902   */\n      tag_89\n      jump\t// in\n    tag_167:\n        /* \"#utility.yul\":5451:5909   */\n      swap5\n      swap4\n      pop\n      pop\n      pop\n      pop\n      jump\t// out\n        /* \"#utility.yul\":5915:6062   */\n    tag_100:\n        /* \"#utility.yul\":6016:6027   */\n      0x00\n        /* \"#utility.yul\":6053:6056   */\n      dup2\n        /* \"#utility.yul\":6038:6056   */\n      swap1\n      pop\n        /* \"#utility.yul\":5915:6062   */\n      swap3\n      swap2\n      pop\n      pop\n      jump\t// out\n        /* \"#utility.yul\":6068:6182   */\n    tag_101:\n      pop\n      jump\t// out\n        /* \"#utility.yul\":6188:6586   */\n    tag_102:\n        /* \"#utility.yul\":6347:6350   */\n      0x00\n        /* \"#utility.yul\":6368:6451   */\n      tag_171\n        /* \"#utility.yul\":6449:6450   */\n      0x00\n        /* \"#utility.yul\":6444:6447   */\n      dup4\n        /* \"#utility.yul\":6368:6451   */\n      tag_100\n      jump\t// in\n    tag_171:\n        /* \"#utility.yul\":6361:6451   */\n      swap2\n      pop\n        /* \"#utility.yul\":6460:6553   */\n      tag_172\n        /* \"#utility.yul\":6549:6552   */\n      dup3\n        /* \"#utility.yul\":6460:6553   */\n      tag_101\n      jump\t// in\n    tag_172:\n        /* \"#utility.yul\":6578:6579   */\n      0x00\n        /* \"#utility.yul\":6573:6576   */\n      dup3\n        /* \"#utility.yul\":6569:6580   */\n      add\n        /* \"#utility.yul\":6562:6580   */\n      swap1\n      pop\n        /* \"#utility.yul\":6188:6586   */\n      swap2\n      swap1\n      pop\n      jump\t// out\n        /* \"#utility.yul\":6592:6971   */\n    tag_73:\n        /* \"#utility.yul\":6776:6779   */\n      0x00\n        /* \"#utility.yul\":6798:6945   */\n      tag_174\n        /* \"#utility.yul\":6941:6944   */\n      dup3\n        /* \"#utility.yul\":6798:6945   */\n      tag_102\n      jump\t// in\n    tag_174:\n        /* \"#utility.yul\":6791:6945   */\n      swap2\n      pop\n        /* \"#utility.yul\":6962:6965   */\n      dup2\n        /* \"#utility.yul\":6955:6965   */\n      swap1\n      pop\n        /* \"#utility.yul\":6592:6971   */\n      swap2\n      swap1\n      pop\n      jump\t// out\n        /* \"#utility.yul\":6977:7142   */\n    tag_103:\n        /* \"#utility.yul\":7117:7134   */\n      0x5472616e73666572206661696c65640000000000000000000000000000000000\n        /* \"#utility.yul\":7113:7114   */\n      0x00\n        /* \"#utility.yul\":7105:7111   */\n      dup3\n        /* \"#utility.yul\":7101:7115   */\n      add\n        /* \"#utility.yul\":7094:7135   */\n      mstore\n        /* \"#utility.yul\":6977:7142   */\n      pop\n      jump\t// out\n        /* \"#utility.yul\":7148:7514   */\n    tag_104:\n        /* \"#utility.yul\":7290:7293   */\n      0x00\n        /* \"#utility.yul\":7311:7378   */\n      tag_177\n        /* \"#utility.yul\":7375:7377   */\n      0x0f\n        /* \"#utility.yul\":7370:7373   */\n      dup4\n        /* \"#utility.yul\":7311:7378   */\n      tag_91\n      jump\t// in\n    tag_177:\n        /* \"#utility.yul\":7304:7378   */\n      swap2\n      pop\n        /* \"#utility.yul\":7387:7480   */\n      tag_178\n        /* \"#utility.yul\":7476:7479   */\n      dup3\n        /* \"#utility.yul\":7387:7480   */\n      tag_103\n      jump\t// in\n    tag_178:\n        /* \"#utility.yul\":7505:7507   */\n      0x20\n        /* \"#utility.yul\":7500:7503   */\n      dup3\n        /* \"#utility.yul\":7496:7508   */\n      add\n        /* \"#utility.yul\":7489:7508   */\n      swap1\n      pop\n        /* \"#utility.yul\":7148:7514   */\n      swap2\n      swap1\n      pop\n      jump\t// out\n        /* \"#utility.yul\":7520:7939   */\n    tag_79:\n        /* \"#utility.yul\":7686:7690   */\n      0x00\n        /* \"#utility.yul\":7724:7726   */\n      0x20\n        /* \"#utility.yul\":7713:7722   */\n      dup3\n        /* \"#utility.yul\":7709:7727   */\n      add\n        /* \"#utility.yul\":7701:7727   */\n      swap1\n      pop\n        /* \"#utility.yul\":7773:7782   */\n      dup2\n        /* \"#utility.yul\":7767:7771   */\n      dup2\n        /* \"#utility.yul\":7763:7783   */\n      sub\n        /* \"#utility.yul\":7759:7760   */\n      0x00\n        /* \"#utility.yul\":7748:7757   */\n      dup4\n        /* \"#utility.yul\":7744:7761   */\n      add\n        /* \"#utility.yul\":7737:7784   */\n      mstore\n        /* \"#utility.yul\":7801:7932   */\n      tag_180\n        /* \"#utility.yul\":7927:7931   */\n      dup2\n        /* \"#utility.yul\":7801:7932   */\n      tag_104\n      jump\t// in\n    tag_180:\n        /* \"#utility.yul\":7793:7932   */\n      swap1\n      pop\n        /* \"#utility.yul\":7520:7939   */\n      swap2\n      swap1\n      pop\n      jump\t// out\n\n    auxdata: 0xa26469706673582212201ab1d7dde52bef844fb028c59bae2588fa51bf6d96639b2141a5701121d1340a64736f6c634300081e0033\n}\n",
				"bytecode": {
					"linkReferences": {},
					"object": "610140604052348015610010575f5ffd5b50604051610d58380380610d58833981810160405281019061003291906101bb565b8373ffffffffffffffffffffffffffffffffffffffff1660808173ffffffffffffffffffffffffffffffffffffffff1681525050825f819055503373ffffffffffffffffffffffffffffffffffffffff1660a08173ffffffffffffffffffffffffffffffffffffffff16815250508160c081815250508061012081815250504260e0818152505062093a80426100c8919061024c565b610100818152505062093a80816100df919061027f565b821015610121576040517f08c379a00000000000000000000000000000000000000000000000000000000081526004016101189061031a565b60405180910390fd5b50505050610338565b5f5ffd5b5f73ffffffffffffffffffffffffffffffffffffffff82169050919050565b5f6101578261012e565b9050919050565b6101678161014d565b8114610171575f5ffd5b50565b5f815190506101828161015e565b92915050565b5f819050919050565b61019a81610188565b81146101a4575f5ffd5b50565b5f815190506101b581610191565b92915050565b5f5f5f5f608085870312156101d3576101d261012a565b5b5f6101e087828801610174565b94505060206101f1878288016101a7565b9350506040610202878288016101a7565b9250506060610213878288016101a7565b91505092959194509250565b7f4e487b71000000000000000000000000000000000000000000000000000000005f52601160045260245ffd5b5f61025682610188565b915061026183610188565b92508282019050808211156102795761027861021f565b5b92915050565b5f61028982610188565b915061029483610188565b92508282026102a281610188565b915082820484148315176102b9576102b861021f565b5b5092915050565b5f82825260208201905092915050565b7f5374617274696e6720707269636520697320746f6f206c6f77000000000000005f82015250565b5f6103046019836102c0565b915061030f826102d0565b602082019050919050565b5f6020820190508181035f830152610331816102f8565b9050919050565b60805160a05160c05160e05161010051610120516109a86103b05f395f8181610283015261059001525f818161022d01526102e301525f818161025301526105b401525f81816102b1015261056c01525f81816101e5015281816103cf015261049b01525f8181610209015261039301526109a85ff3fe608060405260043610610085575f3560e01c8063a6f2ae3a11610058578063a6f2ae3a14610131578063c6bc51821461013b578063d6fbf20214610165578063e6c0e6d51461018f578063f21f537d146101b957610085565b806308551a531461008957806347ccca02146100b35780638622a689146100dd57806398d5fdca14610107575b5f5ffd5b348015610094575f5ffd5b5061009d6101e3565b6040516100aa9190610615565b60405180910390f35b3480156100be575f5ffd5b506100c7610207565b6040516100d49190610689565b60405180910390f35b3480156100e8575f5ffd5b506100f161022b565b6040516100fe91906106ba565b60405180910390f35b348015610112575f5ffd5b5061011b61024f565b60405161012891906106ba565b60405180910390f35b6101396102e1565b005b348015610146575f5ffd5b5061014f610565565b60405161015c91906106ba565b60405180910390f35b348015610170575f5ffd5b5061017961056a565b60405161018691906106ba565b60405180910390f35b34801561019a575f5ffd5b506101a361058e565b6040516101b091906106ba565b60405180910390f35b3480156101c4575f5ffd5b506101cd6105b2565b6040516101da91906106ba565b60405180910390f35b7f000000000000000000000000000000000000000000000000000000000000000081565b7f000000000000000000000000000000000000000000000000000000000000000081565b7f000000000000000000000000000000000000000000000000000000000000000081565b5f5f7f00000000000000000000000000000000000000000000000000000000000000004261027d9190610700565b90505f817f00000000000000000000000000000000000000000000000000000000000000006102ac9190610733565b9050807f00000000000000000000000000000000000000000000000000000000000000006102da9190610700565b9250505090565b7f00000000000000000000000000000000000000000000000000000000000000004210610343576040517f08c379a000000000000000000000000000000000000000000000000000000000815260040161033a906107ce565b60405180910390fd5b5f61034c61024f565b905080341015610391576040517f08c379a000000000000000000000000000000000000000000000000000000000815260040161038890610836565b60405180910390fd5b7f000000000000000000000000000000000000000000000000000000000000000073ffffffffffffffffffffffffffffffffffffffff166323b872dd7f0000000000000000000000000000000000000000000000000000000000000000335f546040518463ffffffff1660e01b815260040161040f93929190610894565b5f604051808303815f87803b158015610426575f5ffd5b505af1158015610438573d5f5f3e3d5ffd5b505050505f81346104499190610700565b90505f811115610498573373ffffffffffffffffffffffffffffffffffffffff166108fc8290811502906040515f60405180830381858888f19350505050158015610496573d5f5f3e3d5ffd5b505b5f7f000000000000000000000000000000000000000000000000000000000000000073ffffffffffffffffffffffffffffffffffffffff16836040516104dd906108f6565b5f6040518083038185875af1925050503d805f8114610517576040519150601f19603f3d011682016040523d82523d5f602084013e61051c565b606091505b5050905080610560576040517f08c379a000000000000000000000000000000000000000000000000000000000815260040161055790610954565b60405180910390fd5b505050565b5f5481565b7f000000000000000000000000000000000000000000000000000000000000000081565b7f000000000000000000000000000000000000000000000000000000000000000081565b7f000000000000000000000000000000000000000000000000000000000000000081565b5f73ffffffffffffffffffffffffffffffffffffffff82169050919050565b5f6105ff826105d6565b9050919050565b61060f816105f5565b82525050565b5f6020820190506106285f830184610606565b92915050565b5f819050919050565b5f61065161064c610647846105d6565b61062e565b6105d6565b9050919050565b5f61066282610637565b9050919050565b5f61067382610658565b9050919050565b61068381610669565b82525050565b5f60208201905061069c5f83018461067a565b92915050565b5f819050919050565b6106b4816106a2565b82525050565b5f6020820190506106cd5f8301846106ab565b92915050565b7f4e487b71000000000000000000000000000000000000000000000000000000005f52601160045260245ffd5b5f61070a826106a2565b9150610715836106a2565b925082820390508181111561072d5761072c6106d3565b5b92915050565b5f61073d826106a2565b9150610748836106a2565b9250828202610756816106a2565b9150828204841483151761076d5761076c6106d3565b5b5092915050565b5f82825260208201905092915050565b7f41756374696f6e20616c726561647920656e64656400000000000000000000005f82015250565b5f6107b8601583610774565b91506107c382610784565b602082019050919050565b5f6020820190508181035f8301526107e5816107ac565b9050919050565b7f496e73756666696369656e742062696420616d6f756e740000000000000000005f82015250565b5f610820601783610774565b915061082b826107ec565b602082019050919050565b5f6020820190508181035f83015261084d81610814565b9050919050565b5f61085e82610658565b9050919050565b61086e81610854565b82525050565b5f61087e826105d6565b9050919050565b61088e81610874565b82525050565b5f6060820190506108a75f830186610865565b6108b46020830185610885565b6108c160408301846106ab565b949350505050565b5f81905092915050565b50565b5f6108e15f836108c9565b91506108ec826108d3565b5f82019050919050565b5f610900826108d6565b9150819050919050565b7f5472616e73666572206661696c656400000000000000000000000000000000005f82015250565b5f61093e600f83610774565b91506109498261090a565b602082019050919050565b5f6020820190508181035f83015261096b81610932565b905091905056fea26469706673582212201ab1d7dde52bef844fb028c59bae2588fa51bf6d96639b2141a5701121d1340a64736f6c634300081e0033",
					"opcodes": "PUSH2 0x140 PUSH1 0x40 MSTORE CALLVALUE DUP1 ISZERO PUSH2 0x10 JUMPI PUSH0 PUSH0 REVERT JUMPDEST POP PUSH1 0x40 MLOAD PUSH2 0xD58 CODESIZE SUB DUP1 PUSH2 0xD58 DUP4 CODECOPY DUP2 DUP2 ADD PUSH1 0x40 MSTORE DUP2 ADD SWAP1 PUSH2 0x32 SWAP2 SWAP1 PUSH2 0x1BB JUMP JUMPDEST DUP4 PUSH20 0xFFFFFFFFFFFFFFFFFFFFFFFFFFFFFFFFFFFFFFFF AND PUSH1 0x80 DUP2 PUSH20 0xFFFFFFFFFFFFFFFFFFFFFFFFFFFFFFFFFFFFFFFF AND DUP2 MSTORE POP POP DUP3 PUSH0 DUP2 SWAP1 SSTORE POP CALLER PUSH20 0xFFFFFFFFFFFFFFFFFFFFFFFFFFFFFFFFFFFFFFFF AND PUSH1 0xA0 DUP2 PUSH20 0xFFFFFFFFFFFFFFFFFFFFFFFFFFFFFFFFFFFFFFFF AND DUP2 MSTORE POP POP DUP2 PUSH1 0xC0 DUP2 DUP2 MSTORE POP POP DUP1 PUSH2 0x120 DUP2 DUP2 MSTORE POP POP TIMESTAMP PUSH1 0xE0 DUP2 DUP2 MSTORE POP POP PUSH3 0x93A80 TIMESTAMP PUSH2 0xC8 SWAP2 SWAP1 PUSH2 0x24C JUMP JUMPDEST PUSH2 0x100 DUP2 DUP2 MSTORE POP POP PUSH3 0x93A80 DUP2 PUSH2 0xDF SWAP2 SWAP1 PUSH2 0x27F JUMP JUMPDEST DUP3 LT ISZERO PUSH2 0x121 JUMPI PUSH1 0x40 MLOAD PUSH32 0x8C379A000000000000000000000000000000000000000000000000000000000 DUP2 MSTORE PUSH1 0x4 ADD PUSH2 0x118 SWAP1 PUSH2 0x31A JUMP JUMPDEST PUSH1 0x40 MLOAD DUP1 SWAP2 SUB SWAP1 REVERT JUMPDEST POP POP POP POP PUSH2 0x338 JUMP JUMPDEST PUSH0 PUSH0 REVERT JUMPDEST PUSH0 PUSH20 0xFFFFFFFFFFFFFFFFFFFFFFFFFFFFFFFFFFFFFFFF DUP3 AND SWAP1 POP SWAP2 SWAP1 POP JUMP JUMPDEST PUSH0 PUSH2 0x157 DUP3 PUSH2 0x12E JUMP JUMPDEST SWAP1 POP SWAP2 SWAP1 POP JUMP JUMPDEST PUSH2 0x167 DUP2 PUSH2 0x14D JUMP JUMPDEST DUP2 EQ PUSH2 0x171 JUMPI PUSH0 PUSH0 REVERT JUMPDEST POP JUMP JUMPDEST PUSH0 DUP2 MLOAD SWAP1 POP PUSH2 0x182 DUP2 PUSH2 0x15E JUMP JUMPDEST SWAP3 SWAP2 POP POP JUMP JUMPDEST PUSH0 DUP2 SWAP1 POP SWAP2 SWAP1 POP JUMP JUMPDEST PUSH2 0x19A DUP2 PUSH2 0x188 JUMP JUMPDEST DUP2 EQ PUSH2 0x1A4 JUMPI PUSH0 PUSH0 REVERT JUMPDEST POP JUMP JUMPDEST PUSH0 DUP2 MLOAD SWAP1 POP PUSH2 0x1B5 DUP2 PUSH2 0x191 JUMP JUMPDEST SWAP3 SWAP2 POP POP JUMP JUMPDEST PUSH0 PUSH0 PUSH0 PUSH0 PUSH1 0x80 DUP6 DUP8 SUB SLT ISZERO PUSH2 0x1D3 JUMPI PUSH2 0x1D2 PUSH2 0x12A JUMP JUMPDEST JUMPDEST PUSH0 PUSH2 0x1E0 DUP8 DUP3 DUP9 ADD PUSH2 0x174 JUMP JUMPDEST SWAP5 POP POP PUSH1 0x20 PUSH2 0x1F1 DUP8 DUP3 DUP9 ADD PUSH2 0x1A7 JUMP JUMPDEST SWAP4 POP POP PUSH1 0x40 PUSH2 0x202 DUP8 DUP3 DUP9 ADD PUSH2 0x1A7 JUMP JUMPDEST SWAP3 POP POP PUSH1 0x60 PUSH2 0x213 DUP8 DUP3 DUP9 ADD PUSH2 0x1A7 JUMP JUMPDEST SWAP2 POP POP SWAP3 SWAP6 SWAP2 SWAP5 POP SWAP3 POP JUMP JUMPDEST PUSH32 0x4E487B7100000000000000000000000000000000000000000000000000000000 PUSH0 MSTORE PUSH1 0x11 PUSH1 0x4 MSTORE PUSH1 0x24 PUSH0 REVERT JUMPDEST PUSH0 PUSH2 0x256 DUP3 PUSH2 0x188 JUMP JUMPDEST SWAP2 POP PUSH2 0x261 DUP4 PUSH2 0x188 JUMP JUMPDEST SWAP3 POP DUP3 DUP3 ADD SWAP1 POP DUP1 DUP3 GT ISZERO PUSH2 0x279 JUMPI PUSH2 0x278 PUSH2 0x21F JUMP JUMPDEST JUMPDEST SWAP3 SWAP2 POP POP JUMP JUMPDEST PUSH0 PUSH2 0x289 DUP3 PUSH2 0x188 JUMP JUMPDEST SWAP2 POP PUSH2 0x294 DUP4 PUSH2 0x188 JUMP JUMPDEST SWAP3 POP DUP3 DUP3 MUL PUSH2 0x2A2 DUP2 PUSH2 0x188 JUMP JUMPDEST SWAP2 POP DUP3 DUP3 DIV DUP5 EQ DUP4 ISZERO OR PUSH2 0x2B9 JUMPI PUSH2 0x2B8 PUSH2 0x21F JUMP JUMPDEST JUMPDEST POP SWAP3 SWAP2 POP POP JUMP JUMPDEST PUSH0 DUP3 DUP3 MSTORE PUSH1 0x20 DUP3 ADD SWAP1 POP SWAP3 SWAP2 POP POP JUMP JUMPDEST PUSH32 0x5374617274696E6720707269636520697320746F6F206C6F7700000000000000 PUSH0 DUP3 ADD MSTORE POP JUMP JUMPDEST PUSH0 PUSH2 0x304 PUSH1 0x19 DUP4 PUSH2 0x2C0 JUMP JUMPDEST SWAP2 POP PUSH2 0x30F DUP3 PUSH2 0x2D0 JUMP JUMPDEST PUSH1 0x20 DUP3 ADD SWAP1 POP SWAP2 SWAP1 POP JUMP JUMPDEST PUSH0 PUSH1 0x20 DUP3 ADD SWAP1 POP DUP2 DUP2 SUB PUSH0 DUP4 ADD MSTORE PUSH2 0x331 DUP2 PUSH2 0x2F8 JUMP JUMPDEST SWAP1 POP SWAP2 SWAP1 POP JUMP JUMPDEST PUSH1 0x80 MLOAD PUSH1 0xA0 MLOAD PUSH1 0xC0 MLOAD PUSH1 0xE0 MLOAD PUSH2 0x100 MLOAD PUSH2 0x120 MLOAD PUSH2 0x9A8 PUSH2 0x3B0 PUSH0 CODECOPY PUSH0 DUP2 DUP2 PUSH2 0x283 ADD MSTORE PUSH2 0x590 ADD MSTORE PUSH0 DUP2 DUP2 PUSH2 0x22D ADD MSTORE PUSH2 0x2E3 ADD MSTORE PUSH0 DUP2 DUP2 PUSH2 0x253 ADD MSTORE PUSH2 0x5B4 ADD MSTORE PUSH0 DUP2 DUP2 PUSH2 0x2B1 ADD MSTORE PUSH2 0x56C ADD MSTORE PUSH0 DUP2 DUP2 PUSH2 0x1E5 ADD MSTORE DUP2 DUP2 PUSH2 0x3CF ADD MSTORE PUSH2 0x49B ADD MSTORE PUSH0 DUP2 DUP2 PUSH2 0x209 ADD MSTORE PUSH2 0x393 ADD MSTORE PUSH2 0x9A8 PUSH0 RETURN INVALID PUSH1 0x80 PUSH1 0x40 MSTORE PUSH1 0x4 CALLDATASIZE LT PUSH2 0x85 JUMPI PUSH0 CALLDATALOAD PUSH1 0xE0 SHR DUP1 PUSH4 0xA6F2AE3A GT PUSH2 0x58 JUMPI DUP1 PUSH4 0xA6F2AE3A EQ PUSH2 0x131 JUMPI DUP1 PUSH4 0xC6BC5182 EQ PUSH2 0x13B JUMPI DUP1 PUSH4 0xD6FBF202 EQ PUSH2 0x165 JUMPI DUP1 PUSH4 0xE6C0E6D5 EQ PUSH2 0x18F JUMPI DUP1 PUSH4 0xF21F537D EQ PUSH2 0x1B9 JUMPI PUSH2 0x85 JUMP JUMPDEST DUP1 PUSH4 0x8551A53 EQ PUSH2 0x89 JUMPI DUP1 PUSH4 0x47CCCA02 EQ PUSH2 0xB3 JUMPI DUP1 PUSH4 0x8622A689 EQ PUSH2 0xDD JUMPI DUP1 PUSH4 0x98D5FDCA EQ PUSH2 0x107 JUMPI JUMPDEST PUSH0 PUSH0 REVERT JUMPDEST CALLVALUE DUP1 ISZERO PUSH2 0x94 JUMPI PUSH0 PUSH0 REVERT JUMPDEST POP PUSH2 0x9D PUSH2 0x1E3 JUMP JUMPDEST PUSH1 0x40 MLOAD PUSH2 0xAA SWAP2 SWAP1 PUSH2 0x615 JUMP JUMPDEST PUSH1 0x40 MLOAD DUP1 SWAP2 SUB SWAP1 RETURN JUMPDEST CALLVALUE DUP1 ISZERO PUSH2 0xBE JUMPI PUSH0 PUSH0 REVERT JUMPDEST POP PUSH2 0xC7 PUSH2 0x207 JUMP JUMPDEST PUSH1 0x40 MLOAD PUSH2 0xD4 SWAP2 SWAP1 PUSH2 0x689 JUMP JUMPDEST PUSH1 0x40 MLOAD DUP1 SWAP2 SUB SWAP1 RETURN JUMPDEST CALLVALUE DUP1 ISZERO PUSH2 0xE8 JUMPI PUSH0 PUSH0 REVERT JUMPDEST POP PUSH2 0xF1 PUSH2 0x22B JUMP JUMPDEST PUSH1 0x40 MLOAD PUSH2 0xFE SWAP2 SWAP1 PUSH2 0x6BA JUMP JUMPDEST PUSH1 0x40 MLOAD DUP1 SWAP2 SUB SWAP1 RETURN JUMPDEST CALLVALUE DUP1 ISZERO PUSH2 0x112 JUMPI PUSH0 PUSH0 REVERT JUMPDEST POP PUSH2 0x11B PUSH2 0x24F JUMP JUMPDEST PUSH1 0x40 MLOAD PUSH2 0x128 SWAP2 SWAP1 PUSH2 0x6BA JUMP JUMPDEST PUSH1 0x40 MLOAD DUP1 SWAP2 SUB SWAP1 RETURN JUMPDEST PUSH2 0x139 PUSH2 0x2E1 JUMP JUMPDEST STOP JUMPDEST CALLVALUE DUP1 ISZERO PUSH2 0x146 JUMPI PUSH0 PUSH0 REVERT JUMPDEST POP PUSH2 0x14F PUSH2 0x565 JUMP JUMPDEST PUSH1 0x40 MLOAD PUSH2 0x15C SWAP2 SWAP1 PUSH2 0x6BA JUMP JUMPDEST PUSH1 0x40 MLOAD DUP1 SWAP2 SUB SWAP1 RETURN JUMPDEST CALLVALUE DUP1 ISZERO PUSH2 0x170 JUMPI PUSH0 PUSH0 REVERT JUMPDEST POP PUSH2 0x179 PUSH2 0x56A JUMP JUMPDEST PUSH1 0x40 MLOAD PUSH2 0x186 SWAP2 SWAP1 PUSH2 0x6BA JUMP JUMPDEST PUSH1 0x40 MLOAD DUP1 SWAP2 SUB SWAP1 RETURN JUMPDEST CALLVALUE DUP1 ISZERO PUSH2 0x19A JUMPI PUSH0 PUSH0 REVERT JUMPDEST POP PUSH2 0x1A3 PUSH2 0x58E JUMP JUMPDEST PUSH1 0x40 MLOAD PUSH2 0x1B0 SWAP2 SWAP1 PUSH2 0x6BA JUMP JUMPDEST PUSH1 0x40 MLOAD DUP1 SWAP2 SUB SWAP1 RETURN JUMPDEST CALLVALUE DUP1 ISZERO PUSH2 0x1C4 JUMPI PUSH0 PUSH0 REVERT JUMPDEST POP PUSH2 0x1CD PUSH2 0x5B2 JUMP JUMPDEST PUSH1 0x40 MLOAD PUSH2 0x1DA SWAP2 SWAP1 PUSH2 0x6BA JUMP JUMPDEST PUSH1 0x40 MLOAD DUP1 SWAP2 SUB SWAP1 RETURN JUMPDEST PUSH32 0x0 DUP2 JUMP JUMPDEST PUSH32 0x0 DUP2 JUMP JUMPDEST PUSH32 0x0 DUP2 JUMP JUMPDEST PUSH0 PUSH0 PUSH32 0x0 TIMESTAMP PUSH2 0x27D SWAP2 SWAP1 PUSH2 0x700 JUMP JUMPDEST SWAP1 POP PUSH0 DUP2 PUSH32 0x0 PUSH2 0x2AC SWAP2 SWAP1 PUSH2 0x733 JUMP JUMPDEST SWAP1 POP DUP1 PUSH32 0x0 PUSH2 0x2DA SWAP2 SWAP1 PUSH2 0x700 JUMP JUMPDEST SWAP3 POP POP POP SWAP1 JUMP JUMPDEST PUSH32 0x0 TIMESTAMP LT PUSH2 0x343 JUMPI PUSH1 0x40 MLOAD PUSH32 0x8C379A000000000000000000000000000000000000000000000000000000000 DUP2 MSTORE PUSH1 0x4 ADD PUSH2 0x33A SWAP1 PUSH2 0x7CE JUMP JUMPDEST PUSH1 0x40 MLOAD DUP1 SWAP2 SUB SWAP1 REVERT JUMPDEST PUSH0 PUSH2 0x34C PUSH2 0x24F JUMP JUMPDEST SWAP1 POP DUP1 CALLVALUE LT ISZERO PUSH2 0x391 JUMPI PUSH1 0x40 MLOAD PUSH32 0x8C379A000000000000000000000000000000000000000000000000000000000 DUP2 MSTORE PUSH1 0x4 ADD PUSH2 0x388 SWAP1 PUSH2 0x836 JUMP JUMPDEST PUSH1 0x40 MLOAD DUP1 SWAP2 SUB SWAP1 REVERT JUMPDEST PUSH32 0x0 PUSH20 0xFFFFFFFFFFFFFFFFFFFFFFFFFFFFFFFFFFFFFFFF AND PUSH4 0x23B872DD PUSH32 0x0 CALLER PUSH0 SLOAD PUSH1 0x40 MLOAD DUP5 PUSH4 0xFFFFFFFF AND PUSH1 0xE0 SHL DUP2 MSTORE PUSH1 0x4 ADD PUSH2 0x40F SWAP4 SWAP3 SWAP2 SWAP1 PUSH2 0x894 JUMP JUMPDEST PUSH0 PUSH1 0x40 MLOAD DUP1 DUP4 SUB DUP2 PUSH0 DUP8 DUP1 EXTCODESIZE ISZERO DUP1 ISZERO PUSH2 0x426 JUMPI PUSH0 PUSH0 REVERT JUMPDEST POP GAS CALL ISZERO DUP1 ISZERO PUSH2 0x438 JUMPI RETURNDATASIZE PUSH0 PUSH0 RETURNDATACOPY RETURNDATASIZE PUSH0 REVERT JUMPDEST POP POP POP POP PUSH0 DUP2 CALLVALUE PUSH2 0x449 SWAP2 SWAP1 PUSH2 0x700 JUMP JUMPDEST SWAP1 POP PUSH0 DUP2 GT ISZERO PUSH2 0x498 JUMPI CALLER PUSH20 0xFFFFFFFFFFFFFFFFFFFFFFFFFFFFFFFFFFFFFFFF AND PUSH2 0x8FC DUP3 SWAP1 DUP2 ISZERO MUL SWAP1 PUSH1 0x40 MLOAD PUSH0 PUSH1 0x40 MLOAD DUP1 DUP4 SUB DUP2 DUP6 DUP9 DUP9 CALL SWAP4 POP POP POP POP ISZERO DUP1 ISZERO PUSH2 0x496 JUMPI RETURNDATASIZE PUSH0 PUSH0 RETURNDATACOPY RETURNDATASIZE PUSH0 REVERT JUMPDEST POP JUMPDEST PUSH0 PUSH32 0x0 PUSH20 0xFFFFFFFFFFFFFFFFFFFFFFFFFFFFFFFFFFFFFFFF AND DUP4 PUSH1 0x40 MLOAD PUSH2 0x4DD SWAP1 PUSH2 0x8F6 JUMP JUMPDEST PUSH0 PUSH1 0x40 MLOAD DUP1 DUP4 SUB DUP2 DUP6 DUP8 GAS CALL SWAP3 POP POP POP RETURNDATASIZE DUP1 PUSH0 DUP2 EQ PUSH2 0x517 JUMPI PUSH1 0x40 MLOAD SWAP2 POP PUSH1 0x1F NOT PUSH1 0x3F RETURNDATASIZE ADD AND DUP3 ADD PUSH1 0x40 MSTORE RETURNDATASIZE DUP3 MSTORE RETURNDATASIZE PUSH0 PUSH1 0x20 DUP5 ADD RETURNDATACOPY PUSH2 0x51C JUMP JUMPDEST PUSH1 0x60 SWAP2 POP JUMPDEST POP POP SWAP1 POP DUP1 PUSH2 0x560 JUMPI PUSH1 0x40 MLOAD PUSH32 0x8C379A000000000000000000000000000000000000000000000000000000000 DUP2 MSTORE PUSH1 0x4 ADD PUSH2 0x557 SWAP1 PUSH2 0x954 JUMP JUMPDEST PUSH1 0x40 MLOAD DUP1 SWAP2 SUB SWAP1 REVERT JUMPDEST POP POP POP JUMP JUMPDEST PUSH0 SLOAD DUP2 JUMP JUMPDEST PUSH32 0x0 DUP2 JUMP JUMPDEST PUSH32 0x0 DUP2 JUMP JUMPDEST PUSH32 0x0 DUP2 JUMP JUMPDEST PUSH0 PUSH20 0xFFFFFFFFFFFFFFFFFFFFFFFFFFFFFFFFFFFFFFFF DUP3 AND SWAP1 POP SWAP2 SWAP1 POP JUMP JUMPDEST PUSH0 PUSH2 0x5FF DUP3 PUSH2 0x5D6 JUMP JUMPDEST SWAP1 POP SWAP2 SWAP1 POP JUMP JUMPDEST PUSH2 0x60F DUP2 PUSH2 0x5F5 JUMP JUMPDEST DUP3 MSTORE POP POP JUMP JUMPDEST PUSH0 PUSH1 0x20 DUP3 ADD SWAP1 POP PUSH2 0x628 PUSH0 DUP4 ADD DUP5 PUSH2 0x606 JUMP JUMPDEST SWAP3 SWAP2 POP POP JUMP JUMPDEST PUSH0 DUP2 SWAP1 POP SWAP2 SWAP1 POP JUMP JUMPDEST PUSH0 PUSH2 0x651 PUSH2 0x64C PUSH2 0x647 DUP5 PUSH2 0x5D6 JUMP JUMPDEST PUSH2 0x62E JUMP JUMPDEST PUSH2 0x5D6 JUMP JUMPDEST SWAP1 POP SWAP2 SWAP1 POP JUMP JUMPDEST PUSH0 PUSH2 0x662 DUP3 PUSH2 0x637 JUMP JUMPDEST SWAP1 POP SWAP2 SWAP1 POP JUMP JUMPDEST PUSH0 PUSH2 0x673 DUP3 PUSH2 0x658 JUMP JUMPDEST SWAP1 POP SWAP2 SWAP1 POP JUMP JUMPDEST PUSH2 0x683 DUP2 PUSH2 0x669 JUMP JUMPDEST DUP3 MSTORE POP POP JUMP JUMPDEST PUSH0 PUSH1 0x20 DUP3 ADD SWAP1 POP PUSH2 0x69C PUSH0 DUP4 ADD DUP5 PUSH2 0x67A JUMP JUMPDEST SWAP3 SWAP2 POP POP JUMP JUMPDEST PUSH0 DUP2 SWAP1 POP SWAP2 SWAP1 POP JUMP JUMPDEST PUSH2 0x6B4 DUP2 PUSH2 0x6A2 JUMP JUMPDEST DUP3 MSTORE POP POP JUMP JUMPDEST PUSH0 PUSH1 0x20 DUP3 ADD SWAP1 POP PUSH2 0x6CD PUSH0 DUP4 ADD DUP5 PUSH2 0x6AB JUMP JUMPDEST SWAP3 SWAP2 POP POP JUMP JUMPDEST PUSH32 0x4E487B7100000000000000000000000000000000000000000000000000000000 PUSH0 MSTORE PUSH1 0x11 PUSH1 0x4 MSTORE PUSH1 0x24 PUSH0 REVERT JUMPDEST PUSH0 PUSH2 0x70A DUP3 PUSH2 0x6A2 JUMP JUMPDEST SWAP2 POP PUSH2 0x715 DUP4 PUSH2 0x6A2 JUMP JUMPDEST SWAP3 POP DUP3 DUP3 SUB SWAP1 POP DUP2 DUP2 GT ISZERO PUSH2 0x72D JUMPI PUSH2 0x72C PUSH2 0x6D3 JUMP JUMPDEST JUMPDEST SWAP3 SWAP2 POP POP JUMP JUMPDEST PUSH0 PUSH2 0x73D DUP3 PUSH2 0x6A2 JUMP JUMPDEST SWAP2 POP PUSH2 0x748 DUP4 PUSH2 0x6A2 JUMP JUMPDEST SWAP3 POP DUP3 DUP3 MUL PUSH2 0x756 DUP2 PUSH2 0x6A2 JUMP JUMPDEST SWAP2 POP DUP3 DUP3 DIV DUP5 EQ DUP4 ISZERO OR PUSH2 0x76D JUMPI PUSH2 0x76C PUSH2 0x6D3 JUMP JUMPDEST JUMPDEST POP SWAP3 SWAP2 POP POP JUMP JUMPDEST PUSH0 DUP3 DUP3 MSTORE PUSH1 0x20 DUP3 ADD SWAP1 POP SWAP3 SWAP2 POP POP JUMP JUMPDEST PUSH32 0x41756374696F6E20616C726561647920656E6465640000000000000000000000 PUSH0 DUP3 ADD MSTORE POP JUMP JUMPDEST PUSH0 PUSH2 0x7B8 PUSH1 0x15 DUP4 PUSH2 0x774 JUMP JUMPDEST SWAP2 POP PUSH2 0x7C3 DUP3 PUSH2 0x784 JUMP JUMPDEST PUSH1 0x20 DUP3 ADD SWAP1 POP SWAP2 SWAP1 POP JUMP JUMPDEST PUSH0 PUSH1 0x20 DUP3 ADD SWAP1 POP DUP2 DUP2 SUB PUSH0 DUP4 ADD MSTORE PUSH2 0x7E5 DUP2 PUSH2 0x7AC JUMP JUMPDEST SWAP1 POP SWAP2 SWAP1 POP JUMP JUMPDEST PUSH32 0x496E73756666696369656E742062696420616D6F756E74000000000000000000 PUSH0 DUP3 ADD MSTORE POP JUMP JUMPDEST PUSH0 PUSH2 0x820 PUSH1 0x17 DUP4 PUSH2 0x774 JUMP JUMPDEST SWAP2 POP PUSH2 0x82B DUP3 PUSH2 0x7EC JUMP JUMPDEST PUSH1 0x20 DUP3 ADD SWAP1 POP SWAP2 SWAP1 POP JUMP JUMPDEST PUSH0 PUSH1 0x20 DUP3 ADD SWAP1 POP DUP2 DUP2 SUB PUSH0 DUP4 ADD MSTORE PUSH2 0x84D DUP2 PUSH2 0x814 JUMP JUMPDEST SWAP1 POP SWAP2 SWAP1 POP JUMP JUMPDEST PUSH0 PUSH2 0x85E DUP3 PUSH2 0x658 JUMP JUMPDEST SWAP1 POP SWAP2 SWAP1 POP JUMP JUMPDEST PUSH2 0x86E DUP2 PUSH2 0x854 JUMP JUMPDEST DUP3 MSTORE POP POP JUMP JUMPDEST PUSH0 PUSH2 0x87E DUP3 PUSH2 0x5D6 JUMP JUMPDEST SWAP1 POP SWAP2 SWAP1 POP JUMP JUMPDEST PUSH2 0x88E DUP2 PUSH2 0x874 JUMP JUMPDEST DUP3 MSTORE POP POP JUMP JUMPDEST PUSH0 PUSH1 0x60 DUP3 ADD SWAP1 POP PUSH2 0x8A7 PUSH0 DUP4 ADD DUP7 PUSH2 0x865 JUMP JUMPDEST PUSH2 0x8B4 PUSH1 0x20 DUP4 ADD DUP6 PUSH2 0x885 JUMP JUMPDEST PUSH2 0x8C1 PUSH1 0x40 DUP4 ADD DUP5 PUSH2 0x6AB JUMP JUMPDEST SWAP5 SWAP4 POP POP POP POP JUMP JUMPDEST PUSH0 DUP2 SWAP1 POP SWAP3 SWAP2 POP POP JUMP JUMPDEST POP JUMP JUMPDEST PUSH0 PUSH2 0x8E1 PUSH0 DUP4 PUSH2 0x8C9 JUMP JUMPDEST SWAP2 POP PUSH2 0x8EC DUP3 PUSH2 0x8D3 JUMP JUMPDEST PUSH0 DUP3 ADD SWAP1 POP SWAP2 SWAP1 POP JUMP JUMPDEST PUSH0 PUSH2 0x900 DUP3 PUSH2 0x8D6 JUMP JUMPDEST SWAP2 POP DUP2 SWAP1 POP SWAP2 SWAP1 POP JUMP JUMPDEST PUSH32 0x5472616E73666572206661696C65640000000000000000000000000000000000 PUSH0 DUP3 ADD MSTORE POP JUMP JUMPDEST PUSH0 PUSH2 0x93E PUSH1 0xF DUP4 PUSH2 0x774 JUMP JUMPDEST SWAP2 POP PUSH2 0x949 DUP3 PUSH2 0x90A JUMP JUMPDEST PUSH1 0x20 DUP3 ADD SWAP1 POP SWAP2 SWAP1 POP JUMP JUMPDEST PUSH0 PUSH1 0x20 DUP3 ADD SWAP1 POP DUP2 DUP2 SUB PUSH0 DUP4 ADD MSTORE PUSH2 0x96B DUP2 PUSH2 0x932 JUMP JUMPDEST SWAP1 POP SWAP2 SWAP1 POP JUMP INVALID LOG2 PUSH5 0x6970667358 0x22 SLT KECCAK256 BYTE 0xB1 0xD7 0xDD JUMPF 0x2BEF DUP5 0x4F 0xB0 0x28 0xC5 SWAP12 0xAE 0x25 DUP9 STATICCALL MLOAD 0xBF PUSH14 0x96639B2141A5701121D1340A6473 PUSH16 0x6C634300081E00330000000000000000 "
				},
				"gasEstimates": {
					"creation": {
						"codeDepositCost": "494400",
						"executionCost": "infinite",
						"totalCost": "infinite"
					},
					"external": {
						"buy()": "infinite",
						"discountRate()": "infinite",
						"expiresAt()": "infinite",
						"getPrice()": "infinite",
						"nft()": "infinite",
						"nftId()": "2446",
						"seller()": "infinite",
						"startedAt()": "infinite",
						"startingPrice()": "infinite"
					}
				},
				"methodIdentifiers": {
					"buy()": "a6f2ae3a",
					"discountRate()": "e6c0e6d5",
					"expiresAt()": "8622a689",
					"getPrice()": "98d5fdca",
					"nft()": "47ccca02",
					"nftId()": "c6bc5182",
					"seller()": "08551a53",
					"startedAt()": "f21f537d",
					"startingPrice()": "d6fbf202"
				}
			},
			"storageLayout": {
				"storage": [
					{
						"astId": 16,
						"contract": "DutchAuction.sol:DutchAuction",
						"label": "nftId",
						"offset": 0,
						"slot": "0",
						"type": "t_uint256"
					}
				],
				"types": {
					"t_uint256": {
						"encoding": "inplace",
						"label": "uint256",
						"numberOfBytes": "32"
					}
				}
			},
			"userdoc": {
				"kind": "user",
				"methods": {},
				"version": 1
			}
		}
	}
}