{
	"data": {
		"bytecode": {
			"linkReferences": {},
			"object": "6080604052348015600e575f5ffd5b506109438061001c5f395ff3fe608060405234801561000f575f5ffd5b5060043610610034575f3560e01c806373d4a13a14610038578063dd5f151e14610056575b5f5ffd5b610040610072565b60405161004d91906102a4565b60405180910390f35b610070600480360381019061006b919061048e565b6100fd565b005b5f805461007e90610527565b80601f01602080910402602001604051908101604052809291908181526020018280546100aa90610527565b80156100f55780601f106100cc576101008083540402835291602001916100f5565b820191905f5260205f20905b8154815290600101906020018083116100d857829003601f168201915b505050505081565b5f5f8473ffffffffffffffffffffffffffffffffffffffff166324ccab8f60e01b85856040516024016101319291906105b8565b604051602081830303815290604052907bffffffffffffffffffffffffffffffffffffffffffffffffffffffff19166020820180517bffffffffffffffffffffffffffffffffffffffffffffffffffffffff838183161783525050505060405161019b9190610620565b5f604051808303815f865af19150503d805f81146101d4576040519150601f19603f3d011682016040523d82523d5f602084013e6101d9565b606091505b50915091508161021e576040517f08c379a000000000000000000000000000000000000000000000000000000000815260040161021590610680565b60405180910390fd5b805f908161022c919061083e565b505050505050565b5f81519050919050565b5f82825260208201905092915050565b8281835e5f83830152505050565b5f601f19601f8301169050919050565b5f61027682610234565b610280818561023e565b935061029081856020860161024e565b6102998161025c565b840191505092915050565b5f6020820190508181035f8301526102bc818461026c565b905092915050565b5f604051905090565b5f5ffd5b5f5ffd5b5f73ffffffffffffffffffffffffffffffffffffffff82169050919050565b5f6102fe826102d5565b9050919050565b61030e816102f4565b8114610318575f5ffd5b50565b5f8135905061032981610305565b92915050565b5f5ffd5b5f5ffd5b7f4e487b71000000000000000000000000000000000000000000000000000000005f52604160045260245ffd5b61036d8261025c565b810181811067ffffffffffffffff8211171561038c5761038b610337565b5b80604052505050565b5f61039e6102c4565b90506103aa8282610364565b919050565b5f67ffffffffffffffff8211156103c9576103c8610337565b5b6103d28261025c565b9050602081019050919050565b828183375f83830152505050565b5f6103ff6103fa846103af565b610395565b90508281526020810184848401111561041b5761041a610333565b5b6104268482856103df565b509392505050565b5f82601f8301126104425761044161032f565b5b81356104528482602086016103ed565b91505092915050565b5f819050919050565b61046d8161045b565b8114610477575f5ffd5b50565b5f8135905061048881610464565b92915050565b5f5f5f606084860312156104a5576104a46102cd565b5b5f6104b28682870161031b565b935050602084013567ffffffffffffffff8111156104d3576104d26102d1565b5b6104df8682870161042e565b92505060406104f08682870161047a565b9150509250925092565b7f4e487b71000000000000000000000000000000000000000000000000000000005f52602260045260245ffd5b5f600282049050600182168061053e57607f821691505b602082108103610551576105506104fa565b5b50919050565b5f81519050919050565b5f82825260208201905092915050565b5f61057b82610557565b6105858185610561565b935061059581856020860161024e565b61059e8161025c565b840191505092915050565b6105b28161045b565b82525050565b5f6040820190508181035f8301526105d08185610571565b90506105df60208301846105a9565b9392505050565b5f81905092915050565b5f6105fa82610234565b61060481856105e6565b935061061481856020860161024e565b80840191505092915050565b5f61062b82846105f0565b915081905092915050565b7f43616c6c206661696c65640000000000000000000000000000000000000000005f82015250565b5f61066a600b83610561565b915061067582610636565b602082019050919050565b5f6020820190508181035f8301526106978161065e565b9050919050565b5f819050815f5260205f209050919050565b5f6020601f8301049050919050565b5f82821b905092915050565b5f600883026106fa7fffffffffffffffffffffffffffffffffffffffffffffffffffffffffffffffff826106bf565b61070486836106bf565b95508019841693508086168417925050509392505050565b5f819050919050565b5f61073f61073a6107358461045b565b61071c565b61045b565b9050919050565b5f819050919050565b61075883610725565b61076c61076482610746565b8484546106cb565b825550505050565b5f5f905090565b610783610774565b61078e81848461074f565b505050565b5b818110156107b1576107a65f8261077b565b600181019050610794565b5050565b601f8211156107f6576107c78161069e565b6107d0846106b0565b810160208510156107df578190505b6107f36107eb856106b0565b830182610793565b50505b505050565b5f82821c905092915050565b5f6108165f19846008026107fb565b1980831691505092915050565b5f61082e8383610807565b9150826002028217905092915050565b61084782610234565b67ffffffffffffffff8111156108605761085f610337565b5b61086a8254610527565b6108758282856107b5565b5f60209050601f8311600181146108a6575f8415610894578287015190505b61089e8582610823565b865550610905565b601f1984166108b48661069e565b5f5b828110156108db578489015182556001820191506020850194506020810190506108b6565b868310156108f857848901516108f4601f891682610807565b8355505b6001600288020188555050505b50505050505056fea26469706673582212205f8334dd74b5f95f9f1f181134178146f4d8805bcda798d8270477b5eb0f6c6764736f6c634300081e0033",
			"opcodes": "PUSH1 0x80 PUSH1 0x40 MSTORE CALLVALUE DUP1 ISZERO PUSH1 0xE JUMPI PUSH0 PUSH0 REVERT JUMPDEST POP PUSH2 0x943 DUP1 PUSH2 0x1C PUSH0 CODECOPY PUSH0 RETURN INVALID PUSH1 0x80 PUSH1 0x40 MSTORE CALLVALUE DUP1 ISZERO PUSH2 0xF JUMPI PUSH0 PUSH0 REVERT JUMPDEST POP PUSH1 0x4 CALLDATASIZE LT PUSH2 0x34 JUMPI PUSH0 CALLDATALOAD PUSH1 0xE0 SHR DUP1 PUSH4 0x73D4A13A EQ PUSH2 0x38 JUMPI DUP1 PUSH4 0xDD5F151E EQ PUSH2 0x56 JUMPI JUMPDEST PUSH0 PUSH0 REVERT JUMPDEST PUSH2 0x40 PUSH2 0x72 JUMP JUMPDEST PUSH1 0x40 MLOAD PUSH2 0x4D SWAP2 SWAP1 PUSH2 0x2A4 JUMP JUMPDEST PUSH1 0x40 MLOAD DUP1 SWAP2 SUB SWAP1 RETURN JUMPDEST PUSH2 0x70 PUSH1 0x4 DUP1 CALLDATASIZE SUB DUP2 ADD SWAP1 PUSH2 0x6B SWAP2 SWAP1 PUSH2 0x48E JUMP JUMPDEST PUSH2 0xFD JUMP JUMPDEST STOP JUMPDEST PUSH0 DUP1 SLOAD PUSH2 0x7E SWAP1 PUSH2 0x527 JUMP JUMPDEST DUP1 PUSH1 0x1F ADD PUSH1 0x20 DUP1 SWAP2 DIV MUL PUSH1 0x20 ADD PUSH1 0x40 MLOAD SWAP1 DUP2 ADD PUSH1 0x40 MSTORE DUP1 SWAP3 SWAP2 SWAP1 DUP2 DUP2 MSTORE PUSH1 0x20 ADD DUP3 DUP1 SLOAD PUSH2 0xAA SWAP1 PUSH2 0x527 JUMP JUMPDEST DUP1 ISZERO PUSH2 0xF5 JUMPI DUP1 PUSH1 0x1F LT PUSH2 0xCC JUMPI PUSH2 0x100 DUP1 DUP4 SLOAD DIV MUL DUP4 MSTORE SWAP2 PUSH1 0x20 ADD SWAP2 PUSH2 0xF5 JUMP JUMPDEST DUP3 ADD SWAP2 SWAP1 PUSH0 MSTORE PUSH1 0x20 PUSH0 KECCAK256 SWAP1 JUMPDEST DUP2 SLOAD DUP2 MSTORE SWAP1 PUSH1 0x1 ADD SWAP1 PUSH1 0x20 ADD DUP1 DUP4 GT PUSH2 0xD8 JUMPI DUP3 SWAP1 SUB PUSH1 0x1F AND DUP3 ADD SWAP2 JUMPDEST POP POP POP POP POP DUP2 JUMP JUMPDEST PUSH0 PUSH0 DUP5 PUSH20 0xFFFFFFFFFFFFFFFFFFFFFFFFFFFFFFFFFFFFFFFF AND PUSH4 0x24CCAB8F PUSH1 0xE0 SHL DUP6 DUP6 PUSH1 0x40 MLOAD PUSH1 0x24 ADD PUSH2 0x131 SWAP3 SWAP2 SWAP1 PUSH2 0x5B8 JUMP JUMPDEST PUSH1 0x40 MLOAD PUSH1 0x20 DUP2 DUP4 SUB SUB DUP2 MSTORE SWAP1 PUSH1 0x40 MSTORE SWAP1 PUSH28 0xFFFFFFFFFFFFFFFFFFFFFFFFFFFFFFFFFFFFFFFFFFFFFFFFFFFFFFFF NOT AND PUSH1 0x20 DUP3 ADD DUP1 MLOAD PUSH28 0xFFFFFFFFFFFFFFFFFFFFFFFFFFFFFFFFFFFFFFFFFFFFFFFFFFFFFFFF DUP4 DUP2 DUP4 AND OR DUP4 MSTORE POP POP POP POP PUSH1 0x40 MLOAD PUSH2 0x19B SWAP2 SWAP1 PUSH2 0x620 JUMP JUMPDEST PUSH0 PUSH1 0x40 MLOAD DUP1 DUP4 SUB DUP2 PUSH0 DUP7 GAS CALL SWAP2 POP POP RETURNDATASIZE DUP1 PUSH0 DUP2 EQ PUSH2 0x1D4 JUMPI PUSH1 0x40 MLOAD SWAP2 POP PUSH1 0x1F NOT PUSH1 0x3F RETURNDATASIZE ADD AND DUP3 ADD PUSH1 0x40 MSTORE RETURNDATASIZE DUP3 MSTORE RETURNDATASIZE PUSH0 PUSH1 0x20 DUP5 ADD RETURNDATACOPY PUSH2 0x1D9 JUMP JUMPDEST PUSH1 0x60 SWAP2 POP JUMPDEST POP SWAP2 POP SWAP2 POP DUP2 PUSH2 0x21E JUMPI PUSH1 0x40 MLOAD PUSH32 0x8C379A000000000000000000000000000000000000000000000000000000000 DUP2 MSTORE PUSH1 0x4 ADD PUSH2 0x215 SWAP1 PUSH2 0x680 JUMP JUMPDEST PUSH1 0x40 MLOAD DUP1 SWAP2 SUB SWAP1 REVERT JUMPDEST DUP1 PUSH0 SWAP1 DUP2 PUSH2 0x22C SWAP2 SWAP1 PUSH2 0x83E JUMP JUMPDEST POP POP POP POP POP POP JUMP JUMPDEST PUSH0 DUP2 MLOAD SWAP1 POP SWAP2 SWAP1 POP JUMP JUMPDEST PUSH0 DUP3 DUP3 MSTORE PUSH1 0x20 DUP3 ADD SWAP1 POP SWAP3 SWAP2 POP POP JUMP JUMPDEST DUP3 DUP2 DUP4 MCOPY PUSH0 DUP4 DUP4 ADD MSTORE POP POP POP JUMP JUMPDEST PUSH0 PUSH1 0x1F NOT PUSH1 0x1F DUP4 ADD AND SWAP1 POP SWAP2 SWAP1 POP JUMP JUMPDEST PUSH0 PUSH2 0x276 DUP3 PUSH2 0x234 JUMP JUMPDEST PUSH2 0x280 DUP2 DUP6 PUSH2 0x23E JUMP JUMPDEST SWAP4 POP PUSH2 0x290 DUP2 DUP6 PUSH1 0x20 DUP7 ADD PUSH2 0x24E JUMP JUMPDEST PUSH2 0x299 DUP2 PUSH2 0x25C JUMP JUMPDEST DUP5 ADD SWAP2 POP POP SWAP3 SWAP2 POP POP JUMP JUMPDEST PUSH0 PUSH1 0x20 DUP3 ADD SWAP1 POP DUP2 DUP2 SUB PUSH0 DUP4 ADD MSTORE PUSH2 0x2BC DUP2 DUP5 PUSH2 0x26C JUMP JUMPDEST SWAP1 POP SWAP3 SWAP2 POP POP JUMP JUMPDEST PUSH0 PUSH1 0x40 MLOAD SWAP1 POP SWAP1 JUMP JUMPDEST PUSH0 PUSH0 REVERT JUMPDEST PUSH0 PUSH0 REVERT JUMPDEST PUSH0 PUSH20 0xFFFFFFFFFFFFFFFFFFFFFFFFFFFFFFFFFFFFFFFF DUP3 AND SWAP1 POP SWAP2 SWAP1 POP JUMP JUMPDEST PUSH0 PUSH2 0x2FE DUP3 PUSH2 0x2D5 JUMP JUMPDEST SWAP1 POP SWAP2 SWAP1 POP JUMP JUMPDEST PUSH2 0x30E DUP2 PUSH2 0x2F4 JUMP JUMPDEST DUP2 EQ PUSH2 0x318 JUMPI PUSH0 PUSH0 REVERT JUMPDEST POP JUMP JUMPDEST PUSH0 DUP2 CALLDATALOAD SWAP1 POP PUSH2 0x329 DUP2 PUSH2 0x305 JUMP JUMPDEST SWAP3 SWAP2 POP POP JUMP JUMPDEST PUSH0 PUSH0 REVERT JUMPDEST PUSH0 PUSH0 REVERT JUMPDEST PUSH32 0x4E487B7100000000000000000000000000000000000000000000000000000000 PUSH0 MSTORE PUSH1 0x41 PUSH1 0x4 MSTORE PUSH1 0x24 PUSH0 REVERT JUMPDEST PUSH2 0x36D DUP3 PUSH2 0x25C JUMP JUMPDEST DUP2 ADD DUP2 DUP2 LT PUSH8 0xFFFFFFFFFFFFFFFF DUP3 GT OR ISZERO PUSH2 0x38C JUMPI PUSH2 0x38B PUSH2 0x337 JUMP JUMPDEST JUMPDEST DUP1 PUSH1 0x40 MSTORE POP POP POP JUMP JUMPDEST PUSH0 PUSH2 0x39E PUSH2 0x2C4 JUMP JUMPDEST SWAP1 POP PUSH2 0x3AA DUP3 DUP3 PUSH2 0x364 JUMP JUMPDEST SWAP2 SWAP1 POP JUMP JUMPDEST PUSH0 PUSH8 0xFFFFFFFFFFFFFFFF DUP3 GT ISZERO PUSH2 0x3C9 JUMPI PUSH2 0x3C8 PUSH2 0x337 JUMP JUMPDEST JUMPDEST PUSH2 0x3D2 DUP3 PUSH2 0x25C JUMP JUMPDEST SWAP1 POP PUSH1 0x20 DUP2 ADD SWAP1 POP SWAP2 SWAP1 POP JUMP JUMPDEST DUP3 DUP2 DUP4 CALLDATACOPY PUSH0 DUP4 DUP4 ADD MSTORE POP POP POP JUMP JUMPDEST PUSH0 PUSH2 0x3FF PUSH2 0x3FA DUP5 PUSH2 0x3AF JUMP JUMPDEST PUSH2 0x395 JUMP JUMPDEST SWAP1 POP DUP3 DUP2 MSTORE PUSH1 0x20 DUP2 ADD DUP5 DUP5 DUP5 ADD GT ISZERO PUSH2 0x41B JUMPI PUSH2 0x41A PUSH2 0x333 JUMP JUMPDEST JUMPDEST PUSH2 0x426 DUP5 DUP3 DUP6 PUSH2 0x3DF JUMP JUMPDEST POP SWAP4 SWAP3 POP POP POP JUMP JUMPDEST PUSH0 DUP3 PUSH1 0x1F DUP4 ADD SLT PUSH2 0x442 JUMPI PUSH2 0x441 PUSH2 0x32F JUMP JUMPDEST JUMPDEST DUP2 CALLDATALOAD PUSH2 0x452 DUP5 DUP3 PUSH1 0x20 DUP7 ADD PUSH2 0x3ED JUMP JUMPDEST SWAP2 POP POP SWAP3 SWAP2 POP POP JUMP JUMPDEST PUSH0 DUP2 SWAP1 POP SWAP2 SWAP1 POP JUMP JUMPDEST PUSH2 0x46D DUP2 PUSH2 0x45B JUMP JUMPDEST DUP2 EQ PUSH2 0x477 JUMPI PUSH0 PUSH0 REVERT JUMPDEST POP JUMP JUMPDEST PUSH0 DUP2 CALLDATALOAD SWAP1 POP PUSH2 0x488 DUP2 PUSH2 0x464 JUMP JUMPDEST SWAP3 SWAP2 POP POP JUMP JUMPDEST PUSH0 PUSH0 PUSH0 PUSH1 0x60 DUP5 DUP7 SUB SLT ISZERO PUSH2 0x4A5 JUMPI PUSH2 0x4A4 PUSH2 0x2CD JUMP JUMPDEST JUMPDEST PUSH0 PUSH2 0x4B2 DUP7 DUP3 DUP8 ADD PUSH2 0x31B JUMP JUMPDEST SWAP4 POP POP PUSH1 0x20 DUP5 ADD CALLDATALOAD PUSH8 0xFFFFFFFFFFFFFFFF DUP2 GT ISZERO PUSH2 0x4D3 JUMPI PUSH2 0x4D2 PUSH2 0x2D1 JUMP JUMPDEST JUMPDEST PUSH2 0x4DF DUP7 DUP3 DUP8 ADD PUSH2 0x42E JUMP JUMPDEST SWAP3 POP POP PUSH1 0x40 PUSH2 0x4F0 DUP7 DUP3 DUP8 ADD PUSH2 0x47A JUMP JUMPDEST SWAP2 POP POP SWAP3 POP SWAP3 POP SWAP3 JUMP JUMPDEST PUSH32 0x4E487B7100000000000000000000000000000000000000000000000000000000 PUSH0 MSTORE PUSH1 0x22 PUSH1 0x4 MSTORE PUSH1 0x24 PUSH0 REVERT JUMPDEST PUSH0 PUSH1 0x2 DUP3 DIV SWAP1 POP PUSH1 0x1 DUP3 AND DUP1 PUSH2 0x53E JUMPI PUSH1 0x7F DUP3 AND SWAP2 POP JUMPDEST PUSH1 0x20 DUP3 LT DUP2 SUB PUSH2 0x551 JUMPI PUSH2 0x550 PUSH2 0x4FA JUMP JUMPDEST JUMPDEST POP SWAP2 SWAP1 POP JUMP JUMPDEST PUSH0 DUP2 MLOAD SWAP1 POP SWAP2 SWAP1 POP JUMP JUMPDEST PUSH0 DUP3 DUP3 MSTORE PUSH1 0x20 DUP3 ADD SWAP1 POP SWAP3 SWAP2 POP POP JUMP JUMPDEST PUSH0 PUSH2 0x57B DUP3 PUSH2 0x557 JUMP JUMPDEST PUSH2 0x585 DUP2 DUP6 PUSH2 0x561 JUMP JUMPDEST SWAP4 POP PUSH2 0x595 DUP2 DUP6 PUSH1 0x20 DUP7 ADD PUSH2 0x24E JUMP JUMPDEST PUSH2 0x59E DUP2 PUSH2 0x25C JUMP JUMPDEST DUP5 ADD SWAP2 POP POP SWAP3 SWAP2 POP POP JUMP JUMPDEST PUSH2 0x5B2 DUP2 PUSH2 0x45B JUMP JUMPDEST DUP3 MSTORE POP POP JUMP JUMPDEST PUSH0 PUSH1 0x40 DUP3 ADD SWAP1 POP DUP2 DUP2 SUB PUSH0 DUP4 ADD MSTORE PUSH2 0x5D0 DUP2 DUP6 PUSH2 0x571 JUMP JUMPDEST SWAP1 POP PUSH2 0x5DF PUSH1 0x20 DUP4 ADD DUP5 PUSH2 0x5A9 JUMP JUMPDEST SWAP4 SWAP3 POP POP POP JUMP JUMPDEST PUSH0 DUP2 SWAP1 POP SWAP3 SWAP2 POP POP JUMP JUMPDEST PUSH0 PUSH2 0x5FA DUP3 PUSH2 0x234 JUMP JUMPDEST PUSH2 0x604 DUP2 DUP6 PUSH2 0x5E6 JUMP JUMPDEST SWAP4 POP PUSH2 0x614 DUP2 DUP6 PUSH1 0x20 DUP7 ADD PUSH2 0x24E JUMP JUMPDEST DUP1 DUP5 ADD SWAP2 POP POP SWAP3 SWAP2 POP POP JUMP JUMPDEST PUSH0 PUSH2 0x62B DUP3 DUP5 PUSH2 0x5F0 JUMP JUMPDEST SWAP2 POP DUP2 SWAP1 POP SWAP3 SWAP2 POP POP JUMP JUMPDEST PUSH32 0x43616C6C206661696C6564000000000000000000000000000000000000000000 PUSH0 DUP3 ADD MSTORE POP JUMP JUMPDEST PUSH0 PUSH2 0x66A PUSH1 0xB DUP4 PUSH2 0x561 JUMP JUMPDEST SWAP2 POP PUSH2 0x675 DUP3 PUSH2 0x636 JUMP JUMPDEST PUSH1 0x20 DUP3 ADD SWAP1 POP SWAP2 SWAP1 POP JUMP JUMPDEST PUSH0 PUSH1 0x20 DUP3 ADD SWAP1 POP DUP2 DUP2 SUB PUSH0 DUP4 ADD MSTORE PUSH2 0x697 DUP2 PUSH2 0x65E JUMP JUMPDEST SWAP1 POP SWAP2 SWAP1 POP JUMP JUMPDEST PUSH0 DUP2 SWAP1 POP DUP2 PUSH0 MSTORE PUSH1 0x20 PUSH0 KECCAK256 SWAP1 POP SWAP2 SWAP1 POP JUMP JUMPDEST PUSH0 PUSH1 0x20 PUSH1 0x1F DUP4 ADD DIV SWAP1 POP SWAP2 SWAP1 POP JUMP JUMPDEST PUSH0 DUP3 DUP3 SHL SWAP1 POP SWAP3 SWAP2 POP POP JUMP JUMPDEST PUSH0 PUSH1 0x8 DUP4 MUL PUSH2 0x6FA PUSH32 0xFFFFFFFFFFFFFFFFFFFFFFFFFFFFFFFFFFFFFFFFFFFFFFFFFFFFFFFFFFFFFFFF DUP3 PUSH2 0x6BF JUMP JUMPDEST PUSH2 0x704 DUP7 DUP4 PUSH2 0x6BF JUMP JUMPDEST SWAP6 POP DUP1 NOT DUP5 AND SWAP4 POP DUP1 DUP7 AND DUP5 OR SWAP3 POP POP POP SWAP4 SWAP3 POP POP POP JUMP JUMPDEST PUSH0 DUP2 SWAP1 POP SWAP2 SWAP1 POP JUMP JUMPDEST PUSH0 PUSH2 0x73F PUSH2 0x73A PUSH2 0x735 DUP5 PUSH2 0x45B JUMP JUMPDEST PUSH2 0x71C JUMP JUMPDEST PUSH2 0x45B JUMP JUMPDEST SWAP1 POP SWAP2 SWAP1 POP JUMP JUMPDEST PUSH0 DUP2 SWAP1 POP SWAP2 SWAP1 POP JUMP JUMPDEST PUSH2 0x758 DUP4 PUSH2 0x725 JUMP JUMPDEST PUSH2 0x76C PUSH2 0x764 DUP3 PUSH2 0x746 JUMP JUMPDEST DUP5 DUP5 SLOAD PUSH2 0x6CB JUMP JUMPDEST DUP3 SSTORE POP POP POP POP JUMP JUMPDEST PUSH0 PUSH0 SWAP1 POP SWAP1 JUMP JUMPDEST PUSH2 0x783 PUSH2 0x774 JUMP JUMPDEST PUSH2 0x78E DUP2 DUP5 DUP5 PUSH2 0x74F JUMP JUMPDEST POP POP POP JUMP JUMPDEST JUMPDEST DUP2 DUP2 LT ISZERO PUSH2 0x7B1 JUMPI PUSH2 0x7A6 PUSH0 DUP3 PUSH2 0x77B JUMP JUMPDEST PUSH1 0x1 DUP2 ADD SWAP1 POP PUSH2 0x794 JUMP JUMPDEST POP POP JUMP JUMPDEST PUSH1 0x1F DUP3 GT ISZERO PUSH2 0x7F6 JUMPI PUSH2 0x7C7 DUP2 PUSH2 0x69E JUMP JUMPDEST PUSH2 0x7D0 DUP5 PUSH2 0x6B0 JUMP JUMPDEST DUP2 ADD PUSH1 0x20 DUP6 LT ISZERO PUSH2 0x7DF JUMPI DUP2 SWAP1 POP JUMPDEST PUSH2 0x7F3 PUSH2 0x7EB DUP6 PUSH2 0x6B0 JUMP JUMPDEST DUP4 ADD DUP3 PUSH2 0x793 JUMP JUMPDEST POP POP JUMPDEST POP POP POP JUMP JUMPDEST PUSH0 DUP3 DUP3 SHR SWAP1 POP SWAP3 SWAP2 POP POP JUMP JUMPDEST PUSH0 PUSH2 0x816 PUSH0 NOT DUP5 PUSH1 0x8 MUL PUSH2 0x7FB JUMP JUMPDEST NOT DUP1 DUP4 AND SWAP2 POP POP SWAP3 SWAP2 POP POP JUMP JUMPDEST PUSH0 PUSH2 0x82E DUP4 DUP4 PUSH2 0x807 JUMP JUMPDEST SWAP2 POP DUP3 PUSH1 0x2 MUL DUP3 OR SWAP1 POP SWAP3 SWAP2 POP POP JUMP JUMPDEST PUSH2 0x847 DUP3 PUSH2 0x234 JUMP JUMPDEST PUSH8 0xFFFFFFFFFFFFFFFF DUP2 GT ISZERO PUSH2 0x860 JUMPI PUSH2 0x85F PUSH2 0x337 JUMP JUMPDEST JUMPDEST PUSH2 0x86A DUP3 SLOAD PUSH2 0x527 JUMP JUMPDEST PUSH2 0x875 DUP3 DUP3 DUP6 PUSH2 0x7B5 JUMP JUMPDEST PUSH0 PUSH1 0x20 SWAP1 POP PUSH1 0x1F DUP4 GT PUSH1 0x1 DUP2 EQ PUSH2 0x8A6 JUMPI PUSH0 DUP5 ISZERO PUSH2 0x894 JUMPI DUP3 DUP8 ADD MLOAD SWAP1 POP JUMPDEST PUSH2 0x89E DUP6 DUP3 PUSH2 0x823 JUMP JUMPDEST DUP7 SSTORE POP PUSH2 0x905 JUMP JUMPDEST PUSH1 0x1F NOT DUP5 AND PUSH2 0x8B4 DUP7 PUSH2 0x69E JUMP JUMPDEST PUSH0 JUMPDEST DUP3 DUP2 LT ISZERO PUSH2 0x8DB JUMPI DUP5 DUP10 ADD MLOAD DUP3 SSTORE PUSH1 0x1 DUP3 ADD SWAP2 POP PUSH1 0x20 DUP6 ADD SWAP5 POP PUSH1 0x20 DUP2 ADD SWAP1 POP PUSH2 0x8B6 JUMP JUMPDEST DUP7 DUP4 LT ISZERO PUSH2 0x8F8 JUMPI DUP5 DUP10 ADD MLOAD PUSH2 0x8F4 PUSH1 0x1F DUP10 AND DUP3 PUSH2 0x807 JUMP JUMPDEST DUP4 SSTORE POP JUMPDEST PUSH1 0x1 PUSH1 0x2 DUP9 MUL ADD DUP9 SSTORE POP POP POP JUMPDEST POP POP POP POP POP POP JUMP INVALID LOG2 PUSH5 0x6970667358 0x22 SLT KECCAK256 PUSH0 DUP4 CALLVALUE 0xDD PUSH21 0xB5F95F9F1F181134178146F4D8805BCDA798D82704 PUSH24 0xB5EB0F6C6764736F6C634300081E00330000000000000000 "
		},
		"gasEstimates": {
			"creation": {
				"codeDepositCost": "474200",
				"executionCost": "509",
				"totalCost": "474709"
			},
			"external": {
				"callFoo(address,string,uint256)": "infinite",
				"data()": "infinite"
			}
		},
		"methodIdentifiers": {
			"callFoo(address,string,uint256)": "dd5f151e",
			"data()": "73d4a13a"
		}
	},
	"abi": [
		{
			"inputs": [
				{
					"internalType": "address",
					"name": "_test",
					"type": "address"
				},
				{
					"internalType": "string",
					"name": "_message",
					"type": "string"
				},
				{
					"internalType": "uint256",
					"name": "_x",
					"type": "uint256"
				}
			],
			"name": "callFoo",
			"outputs": [],
			"stateMutability": "nonpayable",
			"type": "function"
		},
		{
			"inputs": [],
			"name": "data",
			"outputs": [
				{
					"internalType": "bytes",
					"name": "",
					"type": "bytes"
				}
			],
			"stateMutability": "view",
			"type": "function"
		}
	]
}