{
	"data": {
		"bytecode": {
			"linkReferences": {},
			"object": "60e060405234801561000f575f5ffd5b506040516114ff3803806114ff83398181016040528101906100319190610169565b8473ffffffffffffffffffffffffffffffffffffffff1660808173ffffffffffffffffffffffffffffffffffffffff1681525050835f819055503373ffffffffffffffffffffffffffffffffffffffff1660a08173ffffffffffffffffffffffffffffffffffffffff16815250508160015f6101000a81548163ffffffff021916908363ffffffff1602179055508060c081815250508260028190555050505050506101e0565b5f5ffd5b5f73ffffffffffffffffffffffffffffffffffffffff82169050919050565b5f610105826100dc565b9050919050565b610115816100fb565b811461011f575f5ffd5b50565b5f815190506101308161010c565b92915050565b5f819050919050565b61014881610136565b8114610152575f5ffd5b50565b5f815190506101638161013f565b92915050565b5f5f5f5f5f60a08688031215610182576101816100d8565b5b5f61018f88828901610122565b95505060206101a088828901610155565b94505060406101b188828901610155565b93505060606101c288828901610155565b92505060806101d388828901610155565b9150509295509295909350565b60805160a05160c0516112c461023b5f395f818161031001526107d201525f81816102ec0152818161085901528181610ac80152610bd401525f81816106f40152818161081d01528181610a1a0152610b9701526112c45ff3fe6080604052600436106100dc575f3560e01c806362ea82db1161007e578063be9a655511610058578063be9a65551461026a578063c6bc518214610280578063d57bde79146102aa578063efbe1c1c146102d4576100dc565b806362ea82db146101da5780637cc3ae8c1461021657806391f9015714610240576100dc565b80631998aeef116100ba5780631998aeef1461015e5780631f2698ab146101685780633ccfd60b1461019257806347ccca02146101b0576100dc565b806308551a53146100e05780630fb5a6b41461010a57806312fa6feb14610134575b5f5ffd5b3480156100eb575f5ffd5b506100f46102ea565b6040516101019190610cf4565b60405180910390f35b348015610115575f5ffd5b5061011e61030e565b60405161012b9190610d25565b60405180910390f35b34801561013f575f5ffd5b50610148610332565b6040516101559190610d58565b60405180910390f35b610166610345565b005b348015610173575f5ffd5b5061017c61054a565b6040516101899190610d58565b60405180910390f35b61019a61055d565b6040516101a79190610d58565b60405180910390f35b3480156101bb575f5ffd5b506101c46106f2565b6040516101d19190610dcc565b60405180910390f35b3480156101e5575f5ffd5b5061020060048036038101906101fb9190610e24565b610716565b60405161020d9190610d25565b60405180910390f35b348015610221575f5ffd5b5061022a61072b565b6040516102379190610e6d565b60405180910390f35b34801561024b575f5ffd5b50610254610740565b6040516102619190610e95565b60405180910390f35b348015610275575f5ffd5b5061027e610766565b005b34801561028b575f5ffd5b506102946108f4565b6040516102a19190610d25565b60405180910390f35b3480156102b5575f5ffd5b506102be6108f9565b6040516102cb9190610d25565b60405180910390f35b3480156102df575f5ffd5b506102e86108ff565b005b7f000000000000000000000000000000000000000000000000000000000000000081565b7f000000000000000000000000000000000000000000000000000000000000000081565b600160059054906101000a900460ff1681565b600160049054906101000a900460ff16610394576040517f08c379a000000000000000000000000000000000000000000000000000000000815260040161038b90610f08565b60405180910390fd5b60015f9054906101000a900463ffffffff1663ffffffff1642106103ed576040517f08c379a00000000000000000000000000000000000000000000000000000000081526004016103e490610f70565b60405180910390fd5b6002543411610431576040517f08c379a000000000000000000000000000000000000000000000000000000000815260040161042890610fd8565b60405180910390fd5b5f600254146104b25760025460035f600160069054906101000a900473ffffffffffffffffffffffffffffffffffffffff1673ffffffffffffffffffffffffffffffffffffffff1673ffffffffffffffffffffffffffffffffffffffff1681526020019081526020015f205f8282546104aa9190611023565b925050819055505b33600160066101000a81548173ffffffffffffffffffffffffffffffffffffffff021916908373ffffffffffffffffffffffffffffffffffffffff160217905550346002819055503373ffffffffffffffffffffffffffffffffffffffff167fe684a55f31b79eca403df938249029212a5925ec6be8012e099b45bc1019e5d2346040516105409190610d25565b60405180910390a2565b600160049054906101000a900460ff1681565b5f5f60035f3373ffffffffffffffffffffffffffffffffffffffff1673ffffffffffffffffffffffffffffffffffffffff1681526020019081526020015f205490505f8111156106ea575f60035f3373ffffffffffffffffffffffffffffffffffffffff1673ffffffffffffffffffffffffffffffffffffffff1681526020019081526020015f20819055505f3373ffffffffffffffffffffffffffffffffffffffff168260405161060e90611083565b5f6040518083038185875af1925050503d805f8114610648576040519150601f19603f3d011682016040523d82523d5f602084013e61064d565b606091505b5050905080610691576040517f08c379a0000000000000000000000000000000000000000000000000000000008152600401610688906110e1565b60405180910390fd5b3373ffffffffffffffffffffffffffffffffffffffff167f884edad9ce6fa2440d8a54cc123490eb96d2768479d49ff9c7366125a9424364836040516106d79190610d25565b60405180910390a26001925050506106ef565b5f9150505b90565b7f000000000000000000000000000000000000000000000000000000000000000081565b6003602052805f5260405f205f915090505481565b60015f9054906101000a900463ffffffff1681565b600160069054906101000a900473ffffffffffffffffffffffffffffffffffffffff1681565b600160049054906101000a900460ff16156107b6576040517f08c379a00000000000000000000000000000000000000000000000000000000081526004016107ad90611149565b60405180910390fd5b60018060046101000a81548160ff0219169083151502179055507f0000000000000000000000000000000000000000000000000000000000000000426107fc9190611023565b60015f6101000a81548163ffffffff021916908363ffffffff1602179055507f000000000000000000000000000000000000000000000000000000000000000073ffffffffffffffffffffffffffffffffffffffff166323b872dd7f0000000000000000000000000000000000000000000000000000000000000000305f546040518463ffffffff1660e01b815260040161089993929190611187565b5f604051808303815f87803b1580156108b0575f5ffd5b505af11580156108c2573d5f5f3e3d5ffd5b505050507fd8cea0ecd56872ff072e771658b5682ffe4de16d752947f79597d600ea56f7a960405160405180910390a1565b5f5481565b60025481565b60015f9054906101000a900463ffffffff1663ffffffff16421015610959576040517f08c379a000000000000000000000000000000000000000000000000000000000815260040161095090611206565b60405180910390fd5b600160059054906101000a900460ff16156109a9576040517f08c379a00000000000000000000000000000000000000000000000000000000081526004016109a090610f70565b60405180910390fd5b60018060056101000a81548160ff0219169083151502179055505f73ffffffffffffffffffffffffffffffffffffffff16600160069054906101000a900473ffffffffffffffffffffffffffffffffffffffff1673ffffffffffffffffffffffffffffffffffffffff1614610b95577f000000000000000000000000000000000000000000000000000000000000000073ffffffffffffffffffffffffffffffffffffffff166323b872dd30600160069054906101000a900473ffffffffffffffffffffffffffffffffffffffff165f546040518463ffffffff1660e01b8152600401610a9893929190611224565b5f604051808303815f87803b158015610aaf575f5ffd5b505af1158015610ac1573d5f5f3e3d5ffd5b505050505f7f000000000000000000000000000000000000000000000000000000000000000073ffffffffffffffffffffffffffffffffffffffff16600254604051610b0c90611083565b5f6040518083038185875af1925050503d805f8114610b46576040519150601f19603f3d011682016040523d82523d5f602084013e610b4b565b606091505b5050905080610b8f576040517f08c379a0000000000000000000000000000000000000000000000000000000008152600401610b86906110e1565b60405180910390fd5b50610c41565b7f000000000000000000000000000000000000000000000000000000000000000073ffffffffffffffffffffffffffffffffffffffff166323b872dd307f00000000000000000000000000000000000000000000000000000000000000005f546040518463ffffffff1660e01b8152600401610c1393929190611259565b5f604051808303815f87803b158015610c2a575f5ffd5b505af1158015610c3c573d5f5f3e3d5ffd5b505050505b600160069054906101000a900473ffffffffffffffffffffffffffffffffffffffff1673ffffffffffffffffffffffffffffffffffffffff167f0ab6ead5ff681783e38604d729771f8ba89300f334c9f52cba4909f79c6b5588600254604051610cab9190610d25565b60405180910390a2565b5f73ffffffffffffffffffffffffffffffffffffffff82169050919050565b5f610cde82610cb5565b9050919050565b610cee81610cd4565b82525050565b5f602082019050610d075f830184610ce5565b92915050565b5f819050919050565b610d1f81610d0d565b82525050565b5f602082019050610d385f830184610d16565b92915050565b5f8115159050919050565b610d5281610d3e565b82525050565b5f602082019050610d6b5f830184610d49565b92915050565b5f819050919050565b5f610d94610d8f610d8a84610cb5565b610d71565b610cb5565b9050919050565b5f610da582610d7a565b9050919050565b5f610db682610d9b565b9050919050565b610dc681610dac565b82525050565b5f602082019050610ddf5f830184610dbd565b92915050565b5f5ffd5b5f610df382610cb5565b9050919050565b610e0381610de9565b8114610e0d575f5ffd5b50565b5f81359050610e1e81610dfa565b92915050565b5f60208284031215610e3957610e38610de5565b5b5f610e4684828501610e10565b91505092915050565b5f63ffffffff82169050919050565b610e6781610e4f565b82525050565b5f602082019050610e805f830184610e5e565b92915050565b610e8f81610de9565b82525050565b5f602082019050610ea85f830184610e86565b92915050565b5f82825260208201905092915050565b7f41756374696f6e206e6f742073746172746564000000000000000000000000005f82015250565b5f610ef2601383610eae565b9150610efd82610ebe565b602082019050919050565b5f6020820190508181035f830152610f1f81610ee6565b9050919050565b7f41756374696f6e20616c726561647920656e64656400000000000000000000005f82015250565b5f610f5a601583610eae565b9150610f6582610f26565b602082019050919050565b5f6020820190508181035f830152610f8781610f4e565b9050919050565b7f546865726520616c7265616479206973206120686967686572206269640000005f82015250565b5f610fc2601d83610eae565b9150610fcd82610f8e565b602082019050919050565b5f6020820190508181035f830152610fef81610fb6565b9050919050565b7f4e487b71000000000000000000000000000000000000000000000000000000005f52601160045260245ffd5b5f61102d82610d0d565b915061103883610d0d565b92508282019050808211156110505761104f610ff6565b5b92915050565b5f81905092915050565b50565b5f61106e5f83611056565b915061107982611060565b5f82019050919050565b5f61108d82611063565b9150819050919050565b7f5472616e73666572206661696c656400000000000000000000000000000000005f82015250565b5f6110cb600f83610eae565b91506110d682611097565b602082019050919050565b5f6020820190508181035f8301526110f8816110bf565b9050919050565b7f41756374696f6e20616c726561647920737461727465640000000000000000005f82015250565b5f611133601783610eae565b915061113e826110ff565b602082019050919050565b5f6020820190508181035f83015261116081611127565b9050919050565b5f61117182610d9b565b9050919050565b61118181611167565b82525050565b5f60608201905061119a5f830186611178565b6111a76020830185610e86565b6111b46040830184610d16565b949350505050565b7f41756374696f6e206e6f7420656e6465640000000000000000000000000000005f82015250565b5f6111f0601183610eae565b91506111fb826111bc565b602082019050919050565b5f6020820190508181035f83015261121d816111e4565b9050919050565b5f6060820190506112375f830186610e86565b6112446020830185610e86565b6112516040830184610d16565b949350505050565b5f60608201905061126c5f830186610e86565b6112796020830185611178565b6112866040830184610d16565b94935050505056fea26469706673582212205f8eff19ca6aeff845e2bbb3bb5d5c0abe75cb0c38161532acccd12865b9fe3364736f6c634300081e0033",
			"opcodes": "PUSH1 0xE0 PUSH1 0x40 MSTORE CALLVALUE DUP1 ISZERO PUSH2 0xF JUMPI PUSH0 PUSH0 REVERT JUMPDEST POP PUSH1 0x40 MLOAD PUSH2 0x14FF CODESIZE SUB DUP1 PUSH2 0x14FF DUP4 CODECOPY DUP2 DUP2 ADD PUSH1 0x40 MSTORE DUP2 ADD SWAP1 PUSH2 0x31 SWAP2 SWAP1 PUSH2 0x169 JUMP JUMPDEST DUP5 PUSH20 0xFFFFFFFFFFFFFFFFFFFFFFFFFFFFFFFFFFFFFFFF AND PUSH1 0x80 DUP2 PUSH20 0xFFFFFFFFFFFFFFFFFFFFFFFFFFFFFFFFFFFFFFFF AND DUP2 MSTORE POP POP DUP4 PUSH0 DUP2 SWAP1 SSTORE POP CALLER PUSH20 0xFFFFFFFFFFFFFFFFFFFFFFFFFFFFFFFFFFFFFFFF AND PUSH1 0xA0 DUP2 PUSH20 0xFFFFFFFFFFFFFFFFFFFFFFFFFFFFFFFFFFFFFFFF AND DUP2 MSTORE POP POP DUP2 PUSH1 0x1 PUSH0 PUSH2 0x100 EXP DUP2 SLOAD DUP2 PUSH4 0xFFFFFFFF MUL NOT AND SWAP1 DUP4 PUSH4 0xFFFFFFFF AND MUL OR SWAP1 SSTORE POP DUP1 PUSH1 0xC0 DUP2 DUP2 MSTORE POP POP DUP3 PUSH1 0x2 DUP2 SWAP1 SSTORE POP POP POP POP POP POP PUSH2 0x1E0 JUMP JUMPDEST PUSH0 PUSH0 REVERT JUMPDEST PUSH0 PUSH20 0xFFFFFFFFFFFFFFFFFFFFFFFFFFFFFFFFFFFFFFFF DUP3 AND SWAP1 POP SWAP2 SWAP1 POP JUMP JUMPDEST PUSH0 PUSH2 0x105 DUP3 PUSH2 0xDC JUMP JUMPDEST SWAP1 POP SWAP2 SWAP1 POP JUMP JUMPDEST PUSH2 0x115 DUP2 PUSH2 0xFB JUMP JUMPDEST DUP2 EQ PUSH2 0x11F JUMPI PUSH0 PUSH0 REVERT JUMPDEST POP JUMP JUMPDEST PUSH0 DUP2 MLOAD SWAP1 POP PUSH2 0x130 DUP2 PUSH2 0x10C JUMP JUMPDEST SWAP3 SWAP2 POP POP JUMP JUMPDEST PUSH0 DUP2 SWAP1 POP SWAP2 SWAP1 POP JUMP JUMPDEST PUSH2 0x148 DUP2 PUSH2 0x136 JUMP JUMPDEST DUP2 EQ PUSH2 0x152 JUMPI PUSH0 PUSH0 REVERT JUMPDEST POP JUMP JUMPDEST PUSH0 DUP2 MLOAD SWAP1 POP PUSH2 0x163 DUP2 PUSH2 0x13F JUMP JUMPDEST SWAP3 SWAP2 POP POP JUMP JUMPDEST PUSH0 PUSH0 PUSH0 PUSH0 PUSH0 PUSH1 0xA0 DUP7 DUP9 SUB SLT ISZERO PUSH2 0x182 JUMPI PUSH2 0x181 PUSH2 0xD8 JUMP JUMPDEST JUMPDEST PUSH0 PUSH2 0x18F DUP9 DUP3 DUP10 ADD PUSH2 0x122 JUMP JUMPDEST SWAP6 POP POP PUSH1 0x20 PUSH2 0x1A0 DUP9 DUP3 DUP10 ADD PUSH2 0x155 JUMP JUMPDEST SWAP5 POP POP PUSH1 0x40 PUSH2 0x1B1 DUP9 DUP3 DUP10 ADD PUSH2 0x155 JUMP JUMPDEST SWAP4 POP POP PUSH1 0x60 PUSH2 0x1C2 DUP9 DUP3 DUP10 ADD PUSH2 0x155 JUMP JUMPDEST SWAP3 POP POP PUSH1 0x80 PUSH2 0x1D3 DUP9 DUP3 DUP10 ADD PUSH2 0x155 JUMP JUMPDEST SWAP2 POP POP SWAP3 SWAP6 POP SWAP3 SWAP6 SWAP1 SWAP4 POP JUMP JUMPDEST PUSH1 0x80 MLOAD PUSH1 0xA0 MLOAD PUSH1 0xC0 MLOAD PUSH2 0x12C4 PUSH2 0x23B PUSH0 CODECOPY PUSH0 DUP2 DUP2 PUSH2 0x310 ADD MSTORE PUSH2 0x7D2 ADD MSTORE PUSH0 DUP2 DUP2 PUSH2 0x2EC ADD MSTORE DUP2 DUP2 PUSH2 0x859 ADD MSTORE DUP2 DUP2 PUSH2 0xAC8 ADD MSTORE PUSH2 0xBD4 ADD MSTORE PUSH0 DUP2 DUP2 PUSH2 0x6F4 ADD MSTORE DUP2 DUP2 PUSH2 0x81D ADD MSTORE DUP2 DUP2 PUSH2 0xA1A ADD MSTORE PUSH2 0xB97 ADD MSTORE PUSH2 0x12C4 PUSH0 RETURN INVALID PUSH1 0x80 PUSH1 0x40 MSTORE PUSH1 0x4 CALLDATASIZE LT PUSH2 0xDC JUMPI PUSH0 CALLDATALOAD PUSH1 0xE0 SHR DUP1 PUSH4 0x62EA82DB GT PUSH2 0x7E JUMPI DUP1 PUSH4 0xBE9A6555 GT PUSH2 0x58 JUMPI DUP1 PUSH4 0xBE9A6555 EQ PUSH2 0x26A JUMPI DUP1 PUSH4 0xC6BC5182 EQ PUSH2 0x280 JUMPI DUP1 PUSH4 0xD57BDE79 EQ PUSH2 0x2AA JUMPI DUP1 PUSH4 0xEFBE1C1C EQ PUSH2 0x2D4 JUMPI PUSH2 0xDC JUMP JUMPDEST DUP1 PUSH4 0x62EA82DB EQ PUSH2 0x1DA JUMPI DUP1 PUSH4 0x7CC3AE8C EQ PUSH2 0x216 JUMPI DUP1 PUSH4 0x91F90157 EQ PUSH2 0x240 JUMPI PUSH2 0xDC JUMP JUMPDEST DUP1 PUSH4 0x1998AEEF GT PUSH2 0xBA JUMPI DUP1 PUSH4 0x1998AEEF EQ PUSH2 0x15E JUMPI DUP1 PUSH4 0x1F2698AB EQ PUSH2 0x168 JUMPI DUP1 PUSH4 0x3CCFD60B EQ PUSH2 0x192 JUMPI DUP1 PUSH4 0x47CCCA02 EQ PUSH2 0x1B0 JUMPI PUSH2 0xDC JUMP JUMPDEST DUP1 PUSH4 0x8551A53 EQ PUSH2 0xE0 JUMPI DUP1 PUSH4 0xFB5A6B4 EQ PUSH2 0x10A JUMPI DUP1 PUSH4 0x12FA6FEB EQ PUSH2 0x134 JUMPI JUMPDEST PUSH0 PUSH0 REVERT JUMPDEST CALLVALUE DUP1 ISZERO PUSH2 0xEB JUMPI PUSH0 PUSH0 REVERT JUMPDEST POP PUSH2 0xF4 PUSH2 0x2EA JUMP JUMPDEST PUSH1 0x40 MLOAD PUSH2 0x101 SWAP2 SWAP1 PUSH2 0xCF4 JUMP JUMPDEST PUSH1 0x40 MLOAD DUP1 SWAP2 SUB SWAP1 RETURN JUMPDEST CALLVALUE DUP1 ISZERO PUSH2 0x115 JUMPI PUSH0 PUSH0 REVERT JUMPDEST POP PUSH2 0x11E PUSH2 0x30E JUMP JUMPDEST PUSH1 0x40 MLOAD PUSH2 0x12B SWAP2 SWAP1 PUSH2 0xD25 JUMP JUMPDEST PUSH1 0x40 MLOAD DUP1 SWAP2 SUB SWAP1 RETURN JUMPDEST CALLVALUE DUP1 ISZERO PUSH2 0x13F JUMPI PUSH0 PUSH0 REVERT JUMPDEST POP PUSH2 0x148 PUSH2 0x332 JUMP JUMPDEST PUSH1 0x40 MLOAD PUSH2 0x155 SWAP2 SWAP1 PUSH2 0xD58 JUMP JUMPDEST PUSH1 0x40 MLOAD DUP1 SWAP2 SUB SWAP1 RETURN JUMPDEST PUSH2 0x166 PUSH2 0x345 JUMP JUMPDEST STOP JUMPDEST CALLVALUE DUP1 ISZERO PUSH2 0x173 JUMPI PUSH0 PUSH0 REVERT JUMPDEST POP PUSH2 0x17C PUSH2 0x54A JUMP JUMPDEST PUSH1 0x40 MLOAD PUSH2 0x189 SWAP2 SWAP1 PUSH2 0xD58 JUMP JUMPDEST PUSH1 0x40 MLOAD DUP1 SWAP2 SUB SWAP1 RETURN JUMPDEST PUSH2 0x19A PUSH2 0x55D JUMP JUMPDEST PUSH1 0x40 MLOAD PUSH2 0x1A7 SWAP2 SWAP1 PUSH2 0xD58 JUMP JUMPDEST PUSH1 0x40 MLOAD DUP1 SWAP2 SUB SWAP1 RETURN JUMPDEST CALLVALUE DUP1 ISZERO PUSH2 0x1BB JUMPI PUSH0 PUSH0 REVERT JUMPDEST POP PUSH2 0x1C4 PUSH2 0x6F2 JUMP JUMPDEST PUSH1 0x40 MLOAD PUSH2 0x1D1 SWAP2 SWAP1 PUSH2 0xDCC JUMP JUMPDEST PUSH1 0x40 MLOAD DUP1 SWAP2 SUB SWAP1 RETURN JUMPDEST CALLVALUE DUP1 ISZERO PUSH2 0x1E5 JUMPI PUSH0 PUSH0 REVERT JUMPDEST POP PUSH2 0x200 PUSH1 0x4 DUP1 CALLDATASIZE SUB DUP2 ADD SWAP1 PUSH2 0x1FB SWAP2 SWAP1 PUSH2 0xE24 JUMP JUMPDEST PUSH2 0x716 JUMP JUMPDEST PUSH1 0x40 MLOAD PUSH2 0x20D SWAP2 SWAP1 PUSH2 0xD25 JUMP JUMPDEST PUSH1 0x40 MLOAD DUP1 SWAP2 SUB SWAP1 RETURN JUMPDEST CALLVALUE DUP1 ISZERO PUSH2 0x221 JUMPI PUSH0 PUSH0 REVERT JUMPDEST POP PUSH2 0x22A PUSH2 0x72B JUMP JUMPDEST PUSH1 0x40 MLOAD PUSH2 0x237 SWAP2 SWAP1 PUSH2 0xE6D JUMP JUMPDEST PUSH1 0x40 MLOAD DUP1 SWAP2 SUB SWAP1 RETURN JUMPDEST CALLVALUE DUP1 ISZERO PUSH2 0x24B JUMPI PUSH0 PUSH0 REVERT JUMPDEST POP PUSH2 0x254 PUSH2 0x740 JUMP JUMPDEST PUSH1 0x40 MLOAD PUSH2 0x261 SWAP2 SWAP1 PUSH2 0xE95 JUMP JUMPDEST PUSH1 0x40 MLOAD DUP1 SWAP2 SUB SWAP1 RETURN JUMPDEST CALLVALUE DUP1 ISZERO PUSH2 0x275 JUMPI PUSH0 PUSH0 REVERT JUMPDEST POP PUSH2 0x27E PUSH2 0x766 JUMP JUMPDEST STOP JUMPDEST CALLVALUE DUP1 ISZERO PUSH2 0x28B JUMPI PUSH0 PUSH0 REVERT JUMPDEST POP PUSH2 0x294 PUSH2 0x8F4 JUMP JUMPDEST PUSH1 0x40 MLOAD PUSH2 0x2A1 SWAP2 SWAP1 PUSH2 0xD25 JUMP JUMPDEST PUSH1 0x40 MLOAD DUP1 SWAP2 SUB SWAP1 RETURN JUMPDEST CALLVALUE DUP1 ISZERO PUSH2 0x2B5 JUMPI PUSH0 PUSH0 REVERT JUMPDEST POP PUSH2 0x2BE PUSH2 0x8F9 JUMP JUMPDEST PUSH1 0x40 MLOAD PUSH2 0x2CB SWAP2 SWAP1 PUSH2 0xD25 JUMP JUMPDEST PUSH1 0x40 MLOAD DUP1 SWAP2 SUB SWAP1 RETURN JUMPDEST CALLVALUE DUP1 ISZERO PUSH2 0x2DF JUMPI PUSH0 PUSH0 REVERT JUMPDEST POP PUSH2 0x2E8 PUSH2 0x8FF JUMP JUMPDEST STOP JUMPDEST PUSH32 0x0 DUP2 JUMP JUMPDEST PUSH32 0x0 DUP2 JUMP JUMPDEST PUSH1 0x1 PUSH1 0x5 SWAP1 SLOAD SWAP1 PUSH2 0x100 EXP SWAP1 DIV PUSH1 0xFF AND DUP2 JUMP JUMPDEST PUSH1 0x1 PUSH1 0x4 SWAP1 SLOAD SWAP1 PUSH2 0x100 EXP SWAP1 DIV PUSH1 0xFF AND PUSH2 0x394 JUMPI PUSH1 0x40 MLOAD PUSH32 0x8C379A000000000000000000000000000000000000000000000000000000000 DUP2 MSTORE PUSH1 0x4 ADD PUSH2 0x38B SWAP1 PUSH2 0xF08 JUMP JUMPDEST PUSH1 0x40 MLOAD DUP1 SWAP2 SUB SWAP1 REVERT JUMPDEST PUSH1 0x1 PUSH0 SWAP1 SLOAD SWAP1 PUSH2 0x100 EXP SWAP1 DIV PUSH4 0xFFFFFFFF AND PUSH4 0xFFFFFFFF AND TIMESTAMP LT PUSH2 0x3ED JUMPI PUSH1 0x40 MLOAD PUSH32 0x8C379A000000000000000000000000000000000000000000000000000000000 DUP2 MSTORE PUSH1 0x4 ADD PUSH2 0x3E4 SWAP1 PUSH2 0xF70 JUMP JUMPDEST PUSH1 0x40 MLOAD DUP1 SWAP2 SUB SWAP1 REVERT JUMPDEST PUSH1 0x2 SLOAD CALLVALUE GT PUSH2 0x431 JUMPI PUSH1 0x40 MLOAD PUSH32 0x8C379A000000000000000000000000000000000000000000000000000000000 DUP2 MSTORE PUSH1 0x4 ADD PUSH2 0x428 SWAP1 PUSH2 0xFD8 JUMP JUMPDEST PUSH1 0x40 MLOAD DUP1 SWAP2 SUB SWAP1 REVERT JUMPDEST PUSH0 PUSH1 0x2 SLOAD EQ PUSH2 0x4B2 JUMPI PUSH1 0x2 SLOAD PUSH1 0x3 PUSH0 PUSH1 0x1 PUSH1 0x6 SWAP1 SLOAD SWAP1 PUSH2 0x100 EXP SWAP1 DIV PUSH20 0xFFFFFFFFFFFFFFFFFFFFFFFFFFFFFFFFFFFFFFFF AND PUSH20 0xFFFFFFFFFFFFFFFFFFFFFFFFFFFFFFFFFFFFFFFF AND PUSH20 0xFFFFFFFFFFFFFFFFFFFFFFFFFFFFFFFFFFFFFFFF AND DUP2 MSTORE PUSH1 0x20 ADD SWAP1 DUP2 MSTORE PUSH1 0x20 ADD PUSH0 KECCAK256 PUSH0 DUP3 DUP3 SLOAD PUSH2 0x4AA SWAP2 SWAP1 PUSH2 0x1023 JUMP JUMPDEST SWAP3 POP POP DUP2 SWAP1 SSTORE POP JUMPDEST CALLER PUSH1 0x1 PUSH1 0x6 PUSH2 0x100 EXP DUP2 SLOAD DUP2 PUSH20 0xFFFFFFFFFFFFFFFFFFFFFFFFFFFFFFFFFFFFFFFF MUL NOT AND SWAP1 DUP4 PUSH20 0xFFFFFFFFFFFFFFFFFFFFFFFFFFFFFFFFFFFFFFFF AND MUL OR SWAP1 SSTORE POP CALLVALUE PUSH1 0x2 DUP2 SWAP1 SSTORE POP CALLER PUSH20 0xFFFFFFFFFFFFFFFFFFFFFFFFFFFFFFFFFFFFFFFF AND PUSH32 0xE684A55F31B79ECA403DF938249029212A5925EC6BE8012E099B45BC1019E5D2 CALLVALUE PUSH1 0x40 MLOAD PUSH2 0x540 SWAP2 SWAP1 PUSH2 0xD25 JUMP JUMPDEST PUSH1 0x40 MLOAD DUP1 SWAP2 SUB SWAP1 LOG2 JUMP JUMPDEST PUSH1 0x1 PUSH1 0x4 SWAP1 SLOAD SWAP1 PUSH2 0x100 EXP SWAP1 DIV PUSH1 0xFF AND DUP2 JUMP JUMPDEST PUSH0 PUSH0 PUSH1 0x3 PUSH0 CALLER PUSH20 0xFFFFFFFFFFFFFFFFFFFFFFFFFFFFFFFFFFFFFFFF AND PUSH20 0xFFFFFFFFFFFFFFFFFFFFFFFFFFFFFFFFFFFFFFFF AND DUP2 MSTORE PUSH1 0x20 ADD SWAP1 DUP2 MSTORE PUSH1 0x20 ADD PUSH0 KECCAK256 SLOAD SWAP1 POP PUSH0 DUP2 GT ISZERO PUSH2 0x6EA JUMPI PUSH0 PUSH1 0x3 PUSH0 CALLER PUSH20 0xFFFFFFFFFFFFFFFFFFFFFFFFFFFFFFFFFFFFFFFF AND PUSH20 0xFFFFFFFFFFFFFFFFFFFFFFFFFFFFFFFFFFFFFFFF AND DUP2 MSTORE PUSH1 0x20 ADD SWAP1 DUP2 MSTORE PUSH1 0x20 ADD PUSH0 KECCAK256 DUP2 SWAP1 SSTORE POP PUSH0 CALLER PUSH20 0xFFFFFFFFFFFFFFFFFFFFFFFFFFFFFFFFFFFFFFFF AND DUP3 PUSH1 0x40 MLOAD PUSH2 0x60E SWAP1 PUSH2 0x1083 JUMP JUMPDEST PUSH0 PUSH1 0x40 MLOAD DUP1 DUP4 SUB DUP2 DUP6 DUP8 GAS CALL SWAP3 POP POP POP RETURNDATASIZE DUP1 PUSH0 DUP2 EQ PUSH2 0x648 JUMPI PUSH1 0x40 MLOAD SWAP2 POP PUSH1 0x1F NOT PUSH1 0x3F RETURNDATASIZE ADD AND DUP3 ADD PUSH1 0x40 MSTORE RETURNDATASIZE DUP3 MSTORE RETURNDATASIZE PUSH0 PUSH1 0x20 DUP5 ADD RETURNDATACOPY PUSH2 0x64D JUMP JUMPDEST PUSH1 0x60 SWAP2 POP JUMPDEST POP POP SWAP1 POP DUP1 PUSH2 0x691 JUMPI PUSH1 0x40 MLOAD PUSH32 0x8C379A000000000000000000000000000000000000000000000000000000000 DUP2 MSTORE PUSH1 0x4 ADD PUSH2 0x688 SWAP1 PUSH2 0x10E1 JUMP JUMPDEST PUSH1 0x40 MLOAD DUP1 SWAP2 SUB SWAP1 REVERT JUMPDEST CALLER PUSH20 0xFFFFFFFFFFFFFFFFFFFFFFFFFFFFFFFFFFFFFFFF AND PUSH32 0x884EDAD9CE6FA2440D8A54CC123490EB96D2768479D49FF9C7366125A9424364 DUP4 PUSH1 0x40 MLOAD PUSH2 0x6D7 SWAP2 SWAP1 PUSH2 0xD25 JUMP JUMPDEST PUSH1 0x40 MLOAD DUP1 SWAP2 SUB SWAP1 LOG2 PUSH1 0x1 SWAP3 POP POP POP PUSH2 0x6EF JUMP JUMPDEST PUSH0 SWAP2 POP POP JUMPDEST SWAP1 JUMP JUMPDEST PUSH32 0x0 DUP2 JUMP JUMPDEST PUSH1 0x3 PUSH1 0x20 MSTORE DUP1 PUSH0 MSTORE PUSH1 0x40 PUSH0 KECCAK256 PUSH0 SWAP2 POP SWAP1 POP SLOAD DUP2 JUMP JUMPDEST PUSH1 0x1 PUSH0 SWAP1 SLOAD SWAP1 PUSH2 0x100 EXP SWAP1 DIV PUSH4 0xFFFFFFFF AND DUP2 JUMP JUMPDEST PUSH1 0x1 PUSH1 0x6 SWAP1 SLOAD SWAP1 PUSH2 0x100 EXP SWAP1 DIV PUSH20 0xFFFFFFFFFFFFFFFFFFFFFFFFFFFFFFFFFFFFFFFF AND DUP2 JUMP JUMPDEST PUSH1 0x1 PUSH1 0x4 SWAP1 SLOAD SWAP1 PUSH2 0x100 EXP SWAP1 DIV PUSH1 0xFF AND ISZERO PUSH2 0x7B6 JUMPI PUSH1 0x40 MLOAD PUSH32 0x8C379A000000000000000000000000000000000000000000000000000000000 DUP2 MSTORE PUSH1 0x4 ADD PUSH2 0x7AD SWAP1 PUSH2 0x1149 JUMP JUMPDEST PUSH1 0x40 MLOAD DUP1 SWAP2 SUB SWAP1 REVERT JUMPDEST PUSH1 0x1 DUP1 PUSH1 0x4 PUSH2 0x100 EXP DUP2 SLOAD DUP2 PUSH1 0xFF MUL NOT AND SWAP1 DUP4 ISZERO ISZERO MUL OR SWAP1 SSTORE POP PUSH32 0x0 TIMESTAMP PUSH2 0x7FC SWAP2 SWAP1 PUSH2 0x1023 JUMP JUMPDEST PUSH1 0x1 PUSH0 PUSH2 0x100 EXP DUP2 SLOAD DUP2 PUSH4 0xFFFFFFFF MUL NOT AND SWAP1 DUP4 PUSH4 0xFFFFFFFF AND MUL OR SWAP1 SSTORE POP PUSH32 0x0 PUSH20 0xFFFFFFFFFFFFFFFFFFFFFFFFFFFFFFFFFFFFFFFF AND PUSH4 0x23B872DD PUSH32 0x0 ADDRESS PUSH0 SLOAD PUSH1 0x40 MLOAD DUP5 PUSH4 0xFFFFFFFF AND PUSH1 0xE0 SHL DUP2 MSTORE PUSH1 0x4 ADD PUSH2 0x899 SWAP4 SWAP3 SWAP2 SWAP1 PUSH2 0x1187 JUMP JUMPDEST PUSH0 PUSH1 0x40 MLOAD DUP1 DUP4 SUB DUP2 PUSH0 DUP8 DUP1 EXTCODESIZE ISZERO DUP1 ISZERO PUSH2 0x8B0 JUMPI PUSH0 PUSH0 REVERT JUMPDEST POP GAS CALL ISZERO DUP1 ISZERO PUSH2 0x8C2 JUMPI RETURNDATASIZE PUSH0 PUSH0 RETURNDATACOPY RETURNDATASIZE PUSH0 REVERT JUMPDEST POP POP POP POP PUSH32 0xD8CEA0ECD56872FF072E771658B5682FFE4DE16D752947F79597D600EA56F7A9 PUSH1 0x40 MLOAD PUSH1 0x40 MLOAD DUP1 SWAP2 SUB SWAP1 LOG1 JUMP JUMPDEST PUSH0 SLOAD DUP2 JUMP JUMPDEST PUSH1 0x2 SLOAD DUP2 JUMP JUMPDEST PUSH1 0x1 PUSH0 SWAP1 SLOAD SWAP1 PUSH2 0x100 EXP SWAP1 DIV PUSH4 0xFFFFFFFF AND PUSH4 0xFFFFFFFF AND TIMESTAMP LT ISZERO PUSH2 0x959 JUMPI PUSH1 0x40 MLOAD PUSH32 0x8C379A000000000000000000000000000000000000000000000000000000000 DUP2 MSTORE PUSH1 0x4 ADD PUSH2 0x950 SWAP1 PUSH2 0x1206 JUMP JUMPDEST PUSH1 0x40 MLOAD DUP1 SWAP2 SUB SWAP1 REVERT JUMPDEST PUSH1 0x1 PUSH1 0x5 SWAP1 SLOAD SWAP1 PUSH2 0x100 EXP SWAP1 DIV PUSH1 0xFF AND ISZERO PUSH2 0x9A9 JUMPI PUSH1 0x40 MLOAD PUSH32 0x8C379A000000000000000000000000000000000000000000000000000000000 DUP2 MSTORE PUSH1 0x4 ADD PUSH2 0x9A0 SWAP1 PUSH2 0xF70 JUMP JUMPDEST PUSH1 0x40 MLOAD DUP1 SWAP2 SUB SWAP1 REVERT JUMPDEST PUSH1 0x1 DUP1 PUSH1 0x5 PUSH2 0x100 EXP DUP2 SLOAD DUP2 PUSH1 0xFF MUL NOT AND SWAP1 DUP4 ISZERO ISZERO MUL OR SWAP1 SSTORE POP PUSH0 PUSH20 0xFFFFFFFFFFFFFFFFFFFFFFFFFFFFFFFFFFFFFFFF AND PUSH1 0x1 PUSH1 0x6 SWAP1 SLOAD SWAP1 PUSH2 0x100 EXP SWAP1 DIV PUSH20 0xFFFFFFFFFFFFFFFFFFFFFFFFFFFFFFFFFFFFFFFF AND PUSH20 0xFFFFFFFFFFFFFFFFFFFFFFFFFFFFFFFFFFFFFFFF AND EQ PUSH2 0xB95 JUMPI PUSH32 0x0 PUSH20 0xFFFFFFFFFFFFFFFFFFFFFFFFFFFFFFFFFFFFFFFF AND PUSH4 0x23B872DD ADDRESS PUSH1 0x1 PUSH1 0x6 SWAP1 SLOAD SWAP1 PUSH2 0x100 EXP SWAP1 DIV PUSH20 0xFFFFFFFFFFFFFFFFFFFFFFFFFFFFFFFFFFFFFFFF AND PUSH0 SLOAD PUSH1 0x40 MLOAD DUP5 PUSH4 0xFFFFFFFF AND PUSH1 0xE0 SHL DUP2 MSTORE PUSH1 0x4 ADD PUSH2 0xA98 SWAP4 SWAP3 SWAP2 SWAP1 PUSH2 0x1224 JUMP JUMPDEST PUSH0 PUSH1 0x40 MLOAD DUP1 DUP4 SUB DUP2 PUSH0 DUP8 DUP1 EXTCODESIZE ISZERO DUP1 ISZERO PUSH2 0xAAF JUMPI PUSH0 PUSH0 REVERT JUMPDEST POP GAS CALL ISZERO DUP1 ISZERO PUSH2 0xAC1 JUMPI RETURNDATASIZE PUSH0 PUSH0 RETURNDATACOPY RETURNDATASIZE PUSH0 REVERT JUMPDEST POP POP POP POP PUSH0 PUSH32 0x0 PUSH20 0xFFFFFFFFFFFFFFFFFFFFFFFFFFFFFFFFFFFFFFFF AND PUSH1 0x2 SLOAD PUSH1 0x40 MLOAD PUSH2 0xB0C SWAP1 PUSH2 0x1083 JUMP JUMPDEST PUSH0 PUSH1 0x40 MLOAD DUP1 DUP4 SUB DUP2 DUP6 DUP8 GAS CALL SWAP3 POP POP POP RETURNDATASIZE DUP1 PUSH0 DUP2 EQ PUSH2 0xB46 JUMPI PUSH1 0x40 MLOAD SWAP2 POP PUSH1 0x1F NOT PUSH1 0x3F RETURNDATASIZE ADD AND DUP3 ADD PUSH1 0x40 MSTORE RETURNDATASIZE DUP3 MSTORE RETURNDATASIZE PUSH0 PUSH1 0x20 DUP5 ADD RETURNDATACOPY PUSH2 0xB4B JUMP JUMPDEST PUSH1 0x60 SWAP2 POP JUMPDEST POP POP SWAP1 POP DUP1 PUSH2 0xB8F JUMPI PUSH1 0x40 MLOAD PUSH32 0x8C379A000000000000000000000000000000000000000000000000000000000 DUP2 MSTORE PUSH1 0x4 ADD PUSH2 0xB86 SWAP1 PUSH2 0x10E1 JUMP JUMPDEST PUSH1 0x40 MLOAD DUP1 SWAP2 SUB SWAP1 REVERT JUMPDEST POP PUSH2 0xC41 JUMP JUMPDEST PUSH32 0x0 PUSH20 0xFFFFFFFFFFFFFFFFFFFFFFFFFFFFFFFFFFFFFFFF AND PUSH4 0x23B872DD ADDRESS PUSH32 0x0 PUSH0 SLOAD PUSH1 0x40 MLOAD DUP5 PUSH4 0xFFFFFFFF AND PUSH1 0xE0 SHL DUP2 MSTORE PUSH1 0x4 ADD PUSH2 0xC13 SWAP4 SWAP3 SWAP2 SWAP1 PUSH2 0x1259 JUMP JUMPDEST PUSH0 PUSH1 0x40 MLOAD DUP1 DUP4 SUB DUP2 PUSH0 DUP8 DUP1 EXTCODESIZE ISZERO DUP1 ISZERO PUSH2 0xC2A JUMPI PUSH0 PUSH0 REVERT JUMPDEST POP GAS CALL ISZERO DUP1 ISZERO PUSH2 0xC3C JUMPI RETURNDATASIZE PUSH0 PUSH0 RETURNDATACOPY RETURNDATASIZE PUSH0 REVERT JUMPDEST POP POP POP POP JUMPDEST PUSH1 0x1 PUSH1 0x6 SWAP1 SLOAD SWAP1 PUSH2 0x100 EXP SWAP1 DIV PUSH20 0xFFFFFFFFFFFFFFFFFFFFFFFFFFFFFFFFFFFFFFFF AND PUSH20 0xFFFFFFFFFFFFFFFFFFFFFFFFFFFFFFFFFFFFFFFF AND PUSH32 0xAB6EAD5FF681783E38604D729771F8BA89300F334C9F52CBA4909F79C6B5588 PUSH1 0x2 SLOAD PUSH1 0x40 MLOAD PUSH2 0xCAB SWAP2 SWAP1 PUSH2 0xD25 JUMP JUMPDEST PUSH1 0x40 MLOAD DUP1 SWAP2 SUB SWAP1 LOG2 JUMP JUMPDEST PUSH0 PUSH20 0xFFFFFFFFFFFFFFFFFFFFFFFFFFFFFFFFFFFFFFFF DUP3 AND SWAP1 POP SWAP2 SWAP1 POP JUMP JUMPDEST PUSH0 PUSH2 0xCDE DUP3 PUSH2 0xCB5 JUMP JUMPDEST SWAP1 POP SWAP2 SWAP1 POP JUMP JUMPDEST PUSH2 0xCEE DUP2 PUSH2 0xCD4 JUMP JUMPDEST DUP3 MSTORE POP POP JUMP JUMPDEST PUSH0 PUSH1 0x20 DUP3 ADD SWAP1 POP PUSH2 0xD07 PUSH0 DUP4 ADD DUP5 PUSH2 0xCE5 JUMP JUMPDEST SWAP3 SWAP2 POP POP JUMP JUMPDEST PUSH0 DUP2 SWAP1 POP SWAP2 SWAP1 POP JUMP JUMPDEST PUSH2 0xD1F DUP2 PUSH2 0xD0D JUMP JUMPDEST DUP3 MSTORE POP POP JUMP JUMPDEST PUSH0 PUSH1 0x20 DUP3 ADD SWAP1 POP PUSH2 0xD38 PUSH0 DUP4 ADD DUP5 PUSH2 0xD16 JUMP JUMPDEST SWAP3 SWAP2 POP POP JUMP JUMPDEST PUSH0 DUP2 ISZERO ISZERO SWAP1 POP SWAP2 SWAP1 POP JUMP JUMPDEST PUSH2 0xD52 DUP2 PUSH2 0xD3E JUMP JUMPDEST DUP3 MSTORE POP POP JUMP JUMPDEST PUSH0 PUSH1 0x20 DUP3 ADD SWAP1 POP PUSH2 0xD6B PUSH0 DUP4 ADD DUP5 PUSH2 0xD49 JUMP JUMPDEST SWAP3 SWAP2 POP POP JUMP JUMPDEST PUSH0 DUP2 SWAP1 POP SWAP2 SWAP1 POP JUMP JUMPDEST PUSH0 PUSH2 0xD94 PUSH2 0xD8F PUSH2 0xD8A DUP5 PUSH2 0xCB5 JUMP JUMPDEST PUSH2 0xD71 JUMP JUMPDEST PUSH2 0xCB5 JUMP JUMPDEST SWAP1 POP SWAP2 SWAP1 POP JUMP JUMPDEST PUSH0 PUSH2 0xDA5 DUP3 PUSH2 0xD7A JUMP JUMPDEST SWAP1 POP SWAP2 SWAP1 POP JUMP JUMPDEST PUSH0 PUSH2 0xDB6 DUP3 PUSH2 0xD9B JUMP JUMPDEST SWAP1 POP SWAP2 SWAP1 POP JUMP JUMPDEST PUSH2 0xDC6 DUP2 PUSH2 0xDAC JUMP JUMPDEST DUP3 MSTORE POP POP JUMP JUMPDEST PUSH0 PUSH1 0x20 DUP3 ADD SWAP1 POP PUSH2 0xDDF PUSH0 DUP4 ADD DUP5 PUSH2 0xDBD JUMP JUMPDEST SWAP3 SWAP2 POP POP JUMP JUMPDEST PUSH0 PUSH0 REVERT JUMPDEST PUSH0 PUSH2 0xDF3 DUP3 PUSH2 0xCB5 JUMP JUMPDEST SWAP1 POP SWAP2 SWAP1 POP JUMP JUMPDEST PUSH2 0xE03 DUP2 PUSH2 0xDE9 JUMP JUMPDEST DUP2 EQ PUSH2 0xE0D JUMPI PUSH0 PUSH0 REVERT JUMPDEST POP JUMP JUMPDEST PUSH0 DUP2 CALLDATALOAD SWAP1 POP PUSH2 0xE1E DUP2 PUSH2 0xDFA JUMP JUMPDEST SWAP3 SWAP2 POP POP JUMP JUMPDEST PUSH0 PUSH1 0x20 DUP3 DUP5 SUB SLT ISZERO PUSH2 0xE39 JUMPI PUSH2 0xE38 PUSH2 0xDE5 JUMP JUMPDEST JUMPDEST PUSH0 PUSH2 0xE46 DUP5 DUP3 DUP6 ADD PUSH2 0xE10 JUMP JUMPDEST SWAP2 POP POP SWAP3 SWAP2 POP POP JUMP JUMPDEST PUSH0 PUSH4 0xFFFFFFFF DUP3 AND SWAP1 POP SWAP2 SWAP1 POP JUMP JUMPDEST PUSH2 0xE67 DUP2 PUSH2 0xE4F JUMP JUMPDEST DUP3 MSTORE POP POP JUMP JUMPDEST PUSH0 PUSH1 0x20 DUP3 ADD SWAP1 POP PUSH2 0xE80 PUSH0 DUP4 ADD DUP5 PUSH2 0xE5E JUMP JUMPDEST SWAP3 SWAP2 POP POP JUMP JUMPDEST PUSH2 0xE8F DUP2 PUSH2 0xDE9 JUMP JUMPDEST DUP3 MSTORE POP POP JUMP JUMPDEST PUSH0 PUSH1 0x20 DUP3 ADD SWAP1 POP PUSH2 0xEA8 PUSH0 DUP4 ADD DUP5 PUSH2 0xE86 JUMP JUMPDEST SWAP3 SWAP2 POP POP JUMP JUMPDEST PUSH0 DUP3 DUP3 MSTORE PUSH1 0x20 DUP3 ADD SWAP1 POP SWAP3 SWAP2 POP POP JUMP JUMPDEST PUSH32 0x41756374696F6E206E6F74207374617274656400000000000000000000000000 PUSH0 DUP3 ADD MSTORE POP JUMP JUMPDEST PUSH0 PUSH2 0xEF2 PUSH1 0x13 DUP4 PUSH2 0xEAE JUMP JUMPDEST SWAP2 POP PUSH2 0xEFD DUP3 PUSH2 0xEBE JUMP JUMPDEST PUSH1 0x20 DUP3 ADD SWAP1 POP SWAP2 SWAP1 POP JUMP JUMPDEST PUSH0 PUSH1 0x20 DUP3 ADD SWAP1 POP DUP2 DUP2 SUB PUSH0 DUP4 ADD MSTORE PUSH2 0xF1F DUP2 PUSH2 0xEE6 JUMP JUMPDEST SWAP1 POP SWAP2 SWAP1 POP JUMP JUMPDEST PUSH32 0x41756374696F6E20616C726561647920656E6465640000000000000000000000 PUSH0 DUP3 ADD MSTORE POP JUMP JUMPDEST PUSH0 PUSH2 0xF5A PUSH1 0x15 DUP4 PUSH2 0xEAE JUMP JUMPDEST SWAP2 POP PUSH2 0xF65 DUP3 PUSH2 0xF26 JUMP JUMPDEST PUSH1 0x20 DUP3 ADD SWAP1 POP SWAP2 SWAP1 POP JUMP JUMPDEST PUSH0 PUSH1 0x20 DUP3 ADD SWAP1 POP DUP2 DUP2 SUB PUSH0 DUP4 ADD MSTORE PUSH2 0xF87 DUP2 PUSH2 0xF4E JUMP JUMPDEST SWAP1 POP SWAP2 SWAP1 POP JUMP JUMPDEST PUSH32 0x546865726520616C726561647920697320612068696768657220626964000000 PUSH0 DUP3 ADD MSTORE POP JUMP JUMPDEST PUSH0 PUSH2 0xFC2 PUSH1 0x1D DUP4 PUSH2 0xEAE JUMP JUMPDEST SWAP2 POP PUSH2 0xFCD DUP3 PUSH2 0xF8E JUMP JUMPDEST PUSH1 0x20 DUP3 ADD SWAP1 POP SWAP2 SWAP1 POP JUMP JUMPDEST PUSH0 PUSH1 0x20 DUP3 ADD SWAP1 POP DUP2 DUP2 SUB PUSH0 DUP4 ADD MSTORE PUSH2 0xFEF DUP2 PUSH2 0xFB6 JUMP JUMPDEST SWAP1 POP SWAP2 SWAP1 POP JUMP JUMPDEST PUSH32 0x4E487B7100000000000000000000000000000000000000000000000000000000 PUSH0 MSTORE PUSH1 0x11 PUSH1 0x4 MSTORE PUSH1 0x24 PUSH0 REVERT JUMPDEST PUSH0 PUSH2 0x102D DUP3 PUSH2 0xD0D JUMP JUMPDEST SWAP2 POP PUSH2 0x1038 DUP4 PUSH2 0xD0D JUMP JUMPDEST SWAP3 POP DUP3 DUP3 ADD SWAP1 POP DUP1 DUP3 GT ISZERO PUSH2 0x1050 JUMPI PUSH2 0x104F PUSH2 0xFF6 JUMP JUMPDEST JUMPDEST SWAP3 SWAP2 POP POP JUMP JUMPDEST PUSH0 DUP2 SWAP1 POP SWAP3 SWAP2 POP POP JUMP JUMPDEST POP JUMP JUMPDEST PUSH0 PUSH2 0x106E PUSH0 DUP4 PUSH2 0x1056 JUMP JUMPDEST SWAP2 POP PUSH2 0x1079 DUP3 PUSH2 0x1060 JUMP JUMPDEST PUSH0 DUP3 ADD SWAP1 POP SWAP2 SWAP1 POP JUMP JUMPDEST PUSH0 PUSH2 0x108D DUP3 PUSH2 0x1063 JUMP JUMPDEST SWAP2 POP DUP2 SWAP1 POP SWAP2 SWAP1 POP JUMP JUMPDEST PUSH32 0x5472616E73666572206661696C65640000000000000000000000000000000000 PUSH0 DUP3 ADD MSTORE POP JUMP JUMPDEST PUSH0 PUSH2 0x10CB PUSH1 0xF DUP4 PUSH2 0xEAE JUMP JUMPDEST SWAP2 POP PUSH2 0x10D6 DUP3 PUSH2 0x1097 JUMP JUMPDEST PUSH1 0x20 DUP3 ADD SWAP1 POP SWAP2 SWAP1 POP JUMP JUMPDEST PUSH0 PUSH1 0x20 DUP3 ADD SWAP1 POP DUP2 DUP2 SUB PUSH0 DUP4 ADD MSTORE PUSH2 0x10F8 DUP2 PUSH2 0x10BF JUMP JUMPDEST SWAP1 POP SWAP2 SWAP1 POP JUMP JUMPDEST PUSH32 0x41756374696F6E20616C72656164792073746172746564000000000000000000 PUSH0 DUP3 ADD MSTORE POP JUMP JUMPDEST PUSH0 PUSH2 0x1133 PUSH1 0x17 DUP4 PUSH2 0xEAE JUMP JUMPDEST SWAP2 POP PUSH2 0x113E DUP3 PUSH2 0x10FF JUMP JUMPDEST PUSH1 0x20 DUP3 ADD SWAP1 POP SWAP2 SWAP1 POP JUMP JUMPDEST PUSH0 PUSH1 0x20 DUP3 ADD SWAP1 POP DUP2 DUP2 SUB PUSH0 DUP4 ADD MSTORE PUSH2 0x1160 DUP2 PUSH2 0x1127 JUMP JUMPDEST SWAP1 POP SWAP2 SWAP1 POP JUMP JUMPDEST PUSH0 PUSH2 0x1171 DUP3 PUSH2 0xD9B JUMP JUMPDEST SWAP1 POP SWAP2 SWAP1 POP JUMP JUMPDEST PUSH2 0x1181 DUP2 PUSH2 0x1167 JUMP JUMPDEST DUP3 MSTORE POP POP JUMP JUMPDEST PUSH0 PUSH1 0x60 DUP3 ADD SWAP1 POP PUSH2 0x119A PUSH0 DUP4 ADD DUP7 PUSH2 0x1178 JUMP JUMPDEST PUSH2 0x11A7 PUSH1 0x20 DUP4 ADD DUP6 PUSH2 0xE86 JUMP JUMPDEST PUSH2 0x11B4 PUSH1 0x40 DUP4 ADD DUP5 PUSH2 0xD16 JUMP JUMPDEST SWAP5 SWAP4 POP POP POP POP JUMP JUMPDEST PUSH32 0x41756374696F6E206E6F7420656E646564000000000000000000000000000000 PUSH0 DUP3 ADD MSTORE POP JUMP JUMPDEST PUSH0 PUSH2 0x11F0 PUSH1 0x11 DUP4 PUSH2 0xEAE JUMP JUMPDEST SWAP2 POP PUSH2 0x11FB DUP3 PUSH2 0x11BC JUMP JUMPDEST PUSH1 0x20 DUP3 ADD SWAP1 POP SWAP2 SWAP1 POP JUMP JUMPDEST PUSH0 PUSH1 0x20 DUP3 ADD SWAP1 POP DUP2 DUP2 SUB PUSH0 DUP4 ADD MSTORE PUSH2 0x121D DUP2 PUSH2 0x11E4 JUMP JUMPDEST SWAP1 POP SWAP2 SWAP1 POP JUMP JUMPDEST PUSH0 PUSH1 0x60 DUP3 ADD SWAP1 POP PUSH2 0x1237 PUSH0 DUP4 ADD DUP7 PUSH2 0xE86 JUMP JUMPDEST PUSH2 0x1244 PUSH1 0x20 DUP4 ADD DUP6 PUSH2 0xE86 JUMP JUMPDEST PUSH2 0x1251 PUSH1 0x40 DUP4 ADD DUP5 PUSH2 0xD16 JUMP JUMPDEST SWAP5 SWAP4 POP POP POP POP JUMP JUMPDEST PUSH0 PUSH1 0x60 DUP3 ADD SWAP1 POP PUSH2 0x126C PUSH0 DUP4 ADD DUP7 PUSH2 0xE86 JUMP JUMPDEST PUSH2 0x1279 PUSH1 0x20 DUP4 ADD DUP6 PUSH2 0x1178 JUMP JUMPDEST PUSH2 0x1286 PUSH1 0x40 DUP4 ADD DUP5 PUSH2 0xD16 JUMP JUMPDEST SWAP5 SWAP4 POP POP POP POP JUMP INVALID LOG2 PUSH5 0x6970667358 0x22 SLT KECCAK256 PUSH0 DUP15 SELFDESTRUCT NOT 0xCA PUSH11 0xEFF845E2BBB3BB5D5C0ABE PUSH22 0xCB0C38161532ACCCD12865B9FE3364736F6C63430008 0x1E STOP CALLER "
		},
		"gasEstimates": {
			"creation": {
				"codeDepositCost": "960800",
				"executionCost": "infinite",
				"totalCost": "infinite"
			},
			"external": {
				"bid()": "infinite",
				"bids(address)": "2825",
				"duration()": "infinite",
				"end()": "infinite",
				"endAt()": "2511",
				"ended()": "2585",
				"highestBid()": "2491",
				"highestBidder()": "2626",
				"nft()": "infinite",
				"nftId()": "2468",
				"seller()": "infinite",
				"start()": "infinite",
				"started()": "2562",
				"withdraw()": "infinite"
			}
		},
		"methodIdentifiers": {
			"bid()": "1998aeef",
			"bids(address)": "62ea82db",
			"duration()": "0fb5a6b4",
			"end()": "efbe1c1c",
			"endAt()": "7cc3ae8c",
			"ended()": "12fa6feb",
			"highestBid()": "d57bde79",
			"highestBidder()": "91f90157",
			"nft()": "47ccca02",
			"nftId()": "c6bc5182",
			"seller()": "08551a53",
			"start()": "be9a6555",
			"started()": "1f2698ab",
			"withdraw()": "3ccfd60b"
		}
	},
	"abi": [
		{
			"inputs": [
				{
					"internalType": "address",
					"name": "_nft",
					"type": "address"
				},
				{
					"internalType": "uint256",
					"name": "_nftId",
					"type": "uint256"
				},
				{
					"internalType": "uint256",
					"name": "_startingPrice",
					"type": "uint256"
				},
				{
					"internalType": "uint256",
					"name": "_endAt",
					"type": "uint256"
				},
				{
					"internalType": "uint256",
					"name": "_duration",
					"type": "uint256"
				}
			],
			"stateMutability": "nonpayable",
			"type": "constructor"
		},
		{
			"anonymous": false,
			"inputs": [
				{
					"indexed": true,
					"internalType": "address",
					"name": "bidder",
					"type": "address"
				},
				{
					"indexed": false,
					"internalType": "uint256",
					"name": "amount",
					"type": "uint256"
				}
			],
			"name": "Bid",
			"type": "event"
		},
		{
			"anonymous": false,
			"inputs": [
				{
					"indexed": true,
					"internalType": "address",
					"name": "bidder",
					"type": "address"
				},
				{
					"indexed": false,
					"internalType": "uint256",
					"name": "amount",
					"type": "uint256"
				}
			],
			"name": "Ended",
			"type": "event"
		},
		{
			"anonymous": false,
			"inputs": [],
			"name": "Started",
			"type": "event"
		},
		{
			"anonymous": false,
			"inputs": [
				{
					"indexed": true,
					"internalType": "address",
					"name": "bidder",
					"type": "address"
				},
				{
					"indexed": false,
					"internalType": "uint256",
					"name": "amount",
					"type": "uint256"
				}
			],
			"name": "Withdraw",
			"type": "event"
		},
		{
			"inputs": [],
			"name": "bid",
			"outputs": [],
			"stateMutability": "payable",
			"type": "function"
		},
		{
			"inputs": [
				{
					"internalType": "address",
					"name": "",
					"type": "address"
				}
			],
			"name": "bids",
			"outputs": [
				{
					"internalType": "uint256",
					"name": "",
					"type": "uint256"
				}
			],
			"stateMutability": "view",
			"type": "function"
		},
		{
			"inputs": [],
			"name": "duration",
			"outputs": [
				{
					"internalType": "uint256",
					"name": "",
					"type": "uint256"
				}
			],
			"stateMutability": "view",
			"type": "function"
		},
		{
			"inputs": [],
			"name": "end",
			"outputs": [],
			"stateMutability": "nonpayable",
			"type": "function"
		},
		{
			"inputs": [],
			"name": "endAt",
			"outputs": [
				{
					"internalType": "uint32",
					"name": "",
					"type": "uint32"
				}
			],
			"stateMutability": "view",
			"type": "function"
		},
		{
			"inputs": [],
			"name": "ended",
			"outputs": [
				{
					"internalType": "bool",
					"name": "",
					"type": "bool"
				}
			],
			"stateMutability": "view",
			"type": "function"
		},
		{
			"inputs": [],
			"name": "highestBid",
			"outputs": [
				{
					"internalType": "uint256",
					"name": "",
					"type": "uint256"
				}
			],
			"stateMutability": "view",
			"type": "function"
		},
		{
			"inputs": [],
			"name": "highestBidder",
			"outputs": [
				{
					"internalType": "address",
					"name": "",
					"type": "address"
				}
			],
			"stateMutability": "view",
			"type": "function"
		},
		{
			"inputs": [],
			"name": "nft",
			"outputs": [
				{
					"internalType": "contract IERC721",
					"name": "",
					"type": "address"
				}
			],
			"stateMutability": "view",
			"type": "function"
		},
		{
			"inputs": [],
			"name": "nftId",
			"outputs": [
				{
					"internalType": "uint256",
					"name": "",
					"type": "uint256"
				}
			],
			"stateMutability": "view",
			"type": "function"
		},
		{
			"inputs": [],
			"name": "seller",
			"outputs": [
				{
					"internalType": "address payable",
					"name": "",
					"type": "address"
				}
			],
			"stateMutability": "view",
			"type": "function"
		},
		{
			"inputs": [],
			"name": "start",
			"outputs": [],
			"stateMutability": "nonpayable",
			"type": "function"
		},
		{
			"inputs": [],
			"name": "started",
			"outputs": [
				{
					"internalType": "bool",
					"name": "",
					"type": "bool"
				}
			],
			"stateMutability": "view",
			"type": "function"
		},
		{
			"inputs": [],
			"name": "withdraw",
			"outputs": [
				{
					"internalType": "bool",
					"name": "",
					"type": "bool"
				}
			],
			"stateMutability": "payable",
			"type": "function"
		}
	]
}