{
	"data": {
		"bytecode": {
			"linkReferences": {},
			"object": "6080604052348015600e575f5ffd5b506109cd8061001c5f395ff3fe608060405260043610610033575f3560e01c806381871cbc1461003757806394ca2cb5146100735780639c4ae2d0146100af575b5f5ffd5b348015610042575f5ffd5b5061005d60048036038101906100589190610287565b6100cb565b60405161006a9190610335565b60405180910390f35b34801561007e575f5ffd5b5061009960048036038101906100949190610481565b610140565b6040516100a691906104ea565b60405180910390f35b6100c960048036038101906100c49190610481565b610188565b005b60605f604051806020016100de906101dc565b6020820181038252601f19601f820116604052509050808484604051602001610108929190610512565b604051602081830303815290604052604051602001610128929190610573565b60405160208183030381529060405291505092915050565b5f5f60ff60f81b30848680519060200120604051602001610164949392919061066f565b604051602081830303815290604052805190602001209050805f1c91505092915050565b5f8183516020850134f59050803b61019e575f5ffd5b7fb03c53b28e78a88e31607a27e1fa48234dce28d5d9d9ec7b295aeb02e674a1e181836040516101cf929190610512565b60405180910390a1505050565b6102db806106bd83390190565b5f604051905090565b5f5ffd5b5f5ffd5b5f73ffffffffffffffffffffffffffffffffffffffff82169050919050565b5f610223826101fa565b9050919050565b61023381610219565b811461023d575f5ffd5b50565b5f8135905061024e8161022a565b92915050565b5f819050919050565b61026681610254565b8114610270575f5ffd5b50565b5f813590506102818161025d565b92915050565b5f5f6040838503121561029d5761029c6101f2565b5b5f6102aa85828601610240565b92505060206102bb85828601610273565b9150509250929050565b5f81519050919050565b5f82825260208201905092915050565b8281835e5f83830152505050565b5f601f19601f8301169050919050565b5f610307826102c5565b61031181856102cf565b93506103218185602086016102df565b61032a816102ed565b840191505092915050565b5f6020820190508181035f83015261034d81846102fd565b905092915050565b5f5ffd5b5f5ffd5b7f4e487b71000000000000000000000000000000000000000000000000000000005f52604160045260245ffd5b610393826102ed565b810181811067ffffffffffffffff821117156103b2576103b161035d565b5b80604052505050565b5f6103c46101e9565b90506103d0828261038a565b919050565b5f67ffffffffffffffff8211156103ef576103ee61035d565b5b6103f8826102ed565b9050602081019050919050565b828183375f83830152505050565b5f610425610420846103d5565b6103bb565b90508281526020810184848401111561044157610440610359565b5b61044c848285610405565b509392505050565b5f82601f83011261046857610467610355565b5b8135610478848260208601610413565b91505092915050565b5f5f60408385031215610497576104966101f2565b5b5f83013567ffffffffffffffff8111156104b4576104b36101f6565b5b6104c085828601610454565b92505060206104d185828601610273565b9150509250929050565b6104e481610219565b82525050565b5f6020820190506104fd5f8301846104db565b92915050565b61050c81610254565b82525050565b5f6040820190506105255f8301856104db565b6105326020830184610503565b9392505050565b5f81905092915050565b5f61054d826102c5565b6105578185610539565b93506105678185602086016102df565b80840191505092915050565b5f61057e8285610543565b915061058a8284610543565b91508190509392505050565b5f7fff0000000000000000000000000000000000000000000000000000000000000082169050919050565b5f819050919050565b6105db6105d682610596565b6105c1565b82525050565b5f8160601b9050919050565b5f6105f7826105e1565b9050919050565b5f610608826105ed565b9050919050565b61062061061b82610219565b6105fe565b82525050565b5f819050919050565b61064061063b82610254565b610626565b82525050565b5f819050919050565b5f819050919050565b61066961066482610646565b61064f565b82525050565b5f61067a82876105ca565b60018201915061068a828661060f565b60148201915061069a828561062f565b6020820191506106aa8284610658565b6020820191508190509594505050505056fe60806040526040516102db3803806102db83398181016040528101906100259190610103565b815f5f6101000a81548173ffffffffffffffffffffffffffffffffffffffff021916908373ffffffffffffffffffffffffffffffffffffffff160217905550806001819055505050610141565b5f5ffd5b5f73ffffffffffffffffffffffffffffffffffffffff82169050919050565b5f61009f82610076565b9050919050565b6100af81610095565b81146100b9575f5ffd5b50565b5f815190506100ca816100a6565b92915050565b5f819050919050565b6100e2816100d0565b81146100ec575f5ffd5b50565b5f815190506100fd816100d9565b92915050565b5f5f6040838503121561011957610118610072565b5b5f610126858286016100bc565b9250506020610137858286016100ef565b9150509250929050565b61018d8061014e5f395ff3fe608060405234801561000f575f5ffd5b506004361061003f575f3560e01c806312065fe0146100435780638da5cb5b14610061578063c29855781461007f575b5f5ffd5b61004b61009d565b60405161005891906100e6565b60405180910390f35b6100696100a4565b604051610076919061013e565b60405180910390f35b6100876100c8565b60405161009491906100e6565b60405180910390f35b5f47905090565b5f5f9054906101000a900473ffffffffffffffffffffffffffffffffffffffff1681565b60015481565b5f819050919050565b6100e0816100ce565b82525050565b5f6020820190506100f95f8301846100d7565b92915050565b5f73ffffffffffffffffffffffffffffffffffffffff82169050919050565b5f610128826100ff565b9050919050565b6101388161011e565b82525050565b5f6020820190506101515f83018461012f565b9291505056fea26469706673582212201bf94a7dccd87b5566ef231b80ab1b6d21e3bbc2a975a81a07e17b7f4a3224e264736f6c634300081e0033a2646970667358221220f317f6abceb2eb615eca913eeff845a7e82f546a4344a8fbca1111348cd97f1a64736f6c634300081e0033",
			"opcodes": "PUSH1 0x80 PUSH1 0x40 MSTORE CALLVALUE DUP1 ISZERO PUSH1 0xE JUMPI PUSH0 PUSH0 REVERT JUMPDEST POP PUSH2 0x9CD DUP1 PUSH2 0x1C PUSH0 CODECOPY PUSH0 RETURN INVALID PUSH1 0x80 PUSH1 0x40 MSTORE PUSH1 0x4 CALLDATASIZE LT PUSH2 0x33 JUMPI PUSH0 CALLDATALOAD PUSH1 0xE0 SHR DUP1 PUSH4 0x81871CBC EQ PUSH2 0x37 JUMPI DUP1 PUSH4 0x94CA2CB5 EQ PUSH2 0x73 JUMPI DUP1 PUSH4 0x9C4AE2D0 EQ PUSH2 0xAF JUMPI JUMPDEST PUSH0 PUSH0 REVERT JUMPDEST CALLVALUE DUP1 ISZERO PUSH2 0x42 JUMPI PUSH0 PUSH0 REVERT JUMPDEST POP PUSH2 0x5D PUSH1 0x4 DUP1 CALLDATASIZE SUB DUP2 ADD SWAP1 PUSH2 0x58 SWAP2 SWAP1 PUSH2 0x287 JUMP JUMPDEST PUSH2 0xCB JUMP JUMPDEST PUSH1 0x40 MLOAD PUSH2 0x6A SWAP2 SWAP1 PUSH2 0x335 JUMP JUMPDEST PUSH1 0x40 MLOAD DUP1 SWAP2 SUB SWAP1 RETURN JUMPDEST CALLVALUE DUP1 ISZERO PUSH2 0x7E JUMPI PUSH0 PUSH0 REVERT JUMPDEST POP PUSH2 0x99 PUSH1 0x4 DUP1 CALLDATASIZE SUB DUP2 ADD SWAP1 PUSH2 0x94 SWAP2 SWAP1 PUSH2 0x481 JUMP JUMPDEST PUSH2 0x140 JUMP JUMPDEST PUSH1 0x40 MLOAD PUSH2 0xA6 SWAP2 SWAP1 PUSH2 0x4EA JUMP JUMPDEST PUSH1 0x40 MLOAD DUP1 SWAP2 SUB SWAP1 RETURN JUMPDEST PUSH2 0xC9 PUSH1 0x4 DUP1 CALLDATASIZE SUB DUP2 ADD SWAP1 PUSH2 0xC4 SWAP2 SWAP1 PUSH2 0x481 JUMP JUMPDEST PUSH2 0x188 JUMP JUMPDEST STOP JUMPDEST PUSH1 0x60 PUSH0 PUSH1 0x40 MLOAD DUP1 PUSH1 0x20 ADD PUSH2 0xDE SWAP1 PUSH2 0x1DC JUMP JUMPDEST PUSH1 0x20 DUP3 ADD DUP2 SUB DUP3 MSTORE PUSH1 0x1F NOT PUSH1 0x1F DUP3 ADD AND PUSH1 0x40 MSTORE POP SWAP1 POP DUP1 DUP5 DUP5 PUSH1 0x40 MLOAD PUSH1 0x20 ADD PUSH2 0x108 SWAP3 SWAP2 SWAP1 PUSH2 0x512 JUMP JUMPDEST PUSH1 0x40 MLOAD PUSH1 0x20 DUP2 DUP4 SUB SUB DUP2 MSTORE SWAP1 PUSH1 0x40 MSTORE PUSH1 0x40 MLOAD PUSH1 0x20 ADD PUSH2 0x128 SWAP3 SWAP2 SWAP1 PUSH2 0x573 JUMP JUMPDEST PUSH1 0x40 MLOAD PUSH1 0x20 DUP2 DUP4 SUB SUB DUP2 MSTORE SWAP1 PUSH1 0x40 MSTORE SWAP2 POP POP SWAP3 SWAP2 POP POP JUMP JUMPDEST PUSH0 PUSH0 PUSH1 0xFF PUSH1 0xF8 SHL ADDRESS DUP5 DUP7 DUP1 MLOAD SWAP1 PUSH1 0x20 ADD KECCAK256 PUSH1 0x40 MLOAD PUSH1 0x20 ADD PUSH2 0x164 SWAP5 SWAP4 SWAP3 SWAP2 SWAP1 PUSH2 0x66F JUMP JUMPDEST PUSH1 0x40 MLOAD PUSH1 0x20 DUP2 DUP4 SUB SUB DUP2 MSTORE SWAP1 PUSH1 0x40 MSTORE DUP1 MLOAD SWAP1 PUSH1 0x20 ADD KECCAK256 SWAP1 POP DUP1 PUSH0 SHR SWAP2 POP POP SWAP3 SWAP2 POP POP JUMP JUMPDEST PUSH0 DUP2 DUP4 MLOAD PUSH1 0x20 DUP6 ADD CALLVALUE CREATE2 SWAP1 POP DUP1 EXTCODESIZE PUSH2 0x19E JUMPI PUSH0 PUSH0 REVERT JUMPDEST PUSH32 0xB03C53B28E78A88E31607A27E1FA48234DCE28D5D9D9EC7B295AEB02E674A1E1 DUP2 DUP4 PUSH1 0x40 MLOAD PUSH2 0x1CF SWAP3 SWAP2 SWAP1 PUSH2 0x512 JUMP JUMPDEST PUSH1 0x40 MLOAD DUP1 SWAP2 SUB SWAP1 LOG1 POP POP POP JUMP JUMPDEST PUSH2 0x2DB DUP1 PUSH2 0x6BD DUP4 CODECOPY ADD SWAP1 JUMP JUMPDEST PUSH0 PUSH1 0x40 MLOAD SWAP1 POP SWAP1 JUMP JUMPDEST PUSH0 PUSH0 REVERT JUMPDEST PUSH0 PUSH0 REVERT JUMPDEST PUSH0 PUSH20 0xFFFFFFFFFFFFFFFFFFFFFFFFFFFFFFFFFFFFFFFF DUP3 AND SWAP1 POP SWAP2 SWAP1 POP JUMP JUMPDEST PUSH0 PUSH2 0x223 DUP3 PUSH2 0x1FA JUMP JUMPDEST SWAP1 POP SWAP2 SWAP1 POP JUMP JUMPDEST PUSH2 0x233 DUP2 PUSH2 0x219 JUMP JUMPDEST DUP2 EQ PUSH2 0x23D JUMPI PUSH0 PUSH0 REVERT JUMPDEST POP JUMP JUMPDEST PUSH0 DUP2 CALLDATALOAD SWAP1 POP PUSH2 0x24E DUP2 PUSH2 0x22A JUMP JUMPDEST SWAP3 SWAP2 POP POP JUMP JUMPDEST PUSH0 DUP2 SWAP1 POP SWAP2 SWAP1 POP JUMP JUMPDEST PUSH2 0x266 DUP2 PUSH2 0x254 JUMP JUMPDEST DUP2 EQ PUSH2 0x270 JUMPI PUSH0 PUSH0 REVERT JUMPDEST POP JUMP JUMPDEST PUSH0 DUP2 CALLDATALOAD SWAP1 POP PUSH2 0x281 DUP2 PUSH2 0x25D JUMP JUMPDEST SWAP3 SWAP2 POP POP JUMP JUMPDEST PUSH0 PUSH0 PUSH1 0x40 DUP4 DUP6 SUB SLT ISZERO PUSH2 0x29D JUMPI PUSH2 0x29C PUSH2 0x1F2 JUMP JUMPDEST JUMPDEST PUSH0 PUSH2 0x2AA DUP6 DUP3 DUP7 ADD PUSH2 0x240 JUMP JUMPDEST SWAP3 POP POP PUSH1 0x20 PUSH2 0x2BB DUP6 DUP3 DUP7 ADD PUSH2 0x273 JUMP JUMPDEST SWAP2 POP POP SWAP3 POP SWAP3 SWAP1 POP JUMP JUMPDEST PUSH0 DUP2 MLOAD SWAP1 POP SWAP2 SWAP1 POP JUMP JUMPDEST PUSH0 DUP3 DUP3 MSTORE PUSH1 0x20 DUP3 ADD SWAP1 POP SWAP3 SWAP2 POP POP JUMP JUMPDEST DUP3 DUP2 DUP4 MCOPY PUSH0 DUP4 DUP4 ADD MSTORE POP POP POP JUMP JUMPDEST PUSH0 PUSH1 0x1F NOT PUSH1 0x1F DUP4 ADD AND SWAP1 POP SWAP2 SWAP1 POP JUMP JUMPDEST PUSH0 PUSH2 0x307 DUP3 PUSH2 0x2C5 JUMP JUMPDEST PUSH2 0x311 DUP2 DUP6 PUSH2 0x2CF JUMP JUMPDEST SWAP4 POP PUSH2 0x321 DUP2 DUP6 PUSH1 0x20 DUP7 ADD PUSH2 0x2DF JUMP JUMPDEST PUSH2 0x32A DUP2 PUSH2 0x2ED JUMP JUMPDEST DUP5 ADD SWAP2 POP POP SWAP3 SWAP2 POP POP JUMP JUMPDEST PUSH0 PUSH1 0x20 DUP3 ADD SWAP1 POP DUP2 DUP2 SUB PUSH0 DUP4 ADD MSTORE PUSH2 0x34D DUP2 DUP5 PUSH2 0x2FD JUMP JUMPDEST SWAP1 POP SWAP3 SWAP2 POP POP JUMP JUMPDEST PUSH0 PUSH0 REVERT JUMPDEST PUSH0 PUSH0 REVERT JUMPDEST PUSH32 0x4E487B7100000000000000000000000000000000000000000000000000000000 PUSH0 MSTORE PUSH1 0x41 PUSH1 0x4 MSTORE PUSH1 0x24 PUSH0 REVERT JUMPDEST PUSH2 0x393 DUP3 PUSH2 0x2ED JUMP JUMPDEST DUP2 ADD DUP2 DUP2 LT PUSH8 0xFFFFFFFFFFFFFFFF DUP3 GT OR ISZERO PUSH2 0x3B2 JUMPI PUSH2 0x3B1 PUSH2 0x35D JUMP JUMPDEST JUMPDEST DUP1 PUSH1 0x40 MSTORE POP POP POP JUMP JUMPDEST PUSH0 PUSH2 0x3C4 PUSH2 0x1E9 JUMP JUMPDEST SWAP1 POP PUSH2 0x3D0 DUP3 DUP3 PUSH2 0x38A JUMP JUMPDEST SWAP2 SWAP1 POP JUMP JUMPDEST PUSH0 PUSH8 0xFFFFFFFFFFFFFFFF DUP3 GT ISZERO PUSH2 0x3EF JUMPI PUSH2 0x3EE PUSH2 0x35D JUMP JUMPDEST JUMPDEST PUSH2 0x3F8 DUP3 PUSH2 0x2ED JUMP JUMPDEST SWAP1 POP PUSH1 0x20 DUP2 ADD SWAP1 POP SWAP2 SWAP1 POP JUMP JUMPDEST DUP3 DUP2 DUP4 CALLDATACOPY PUSH0 DUP4 DUP4 ADD MSTORE POP POP POP JUMP JUMPDEST PUSH0 PUSH2 0x425 PUSH2 0x420 DUP5 PUSH2 0x3D5 JUMP JUMPDEST PUSH2 0x3BB JUMP JUMPDEST SWAP1 POP DUP3 DUP2 MSTORE PUSH1 0x20 DUP2 ADD DUP5 DUP5 DUP5 ADD GT ISZERO PUSH2 0x441 JUMPI PUSH2 0x440 PUSH2 0x359 JUMP JUMPDEST JUMPDEST PUSH2 0x44C DUP5 DUP3 DUP6 PUSH2 0x405 JUMP JUMPDEST POP SWAP4 SWAP3 POP POP POP JUMP JUMPDEST PUSH0 DUP3 PUSH1 0x1F DUP4 ADD SLT PUSH2 0x468 JUMPI PUSH2 0x467 PUSH2 0x355 JUMP JUMPDEST JUMPDEST DUP2 CALLDATALOAD PUSH2 0x478 DUP5 DUP3 PUSH1 0x20 DUP7 ADD PUSH2 0x413 JUMP JUMPDEST SWAP2 POP POP SWAP3 SWAP2 POP POP JUMP JUMPDEST PUSH0 PUSH0 PUSH1 0x40 DUP4 DUP6 SUB SLT ISZERO PUSH2 0x497 JUMPI PUSH2 0x496 PUSH2 0x1F2 JUMP JUMPDEST JUMPDEST PUSH0 DUP4 ADD CALLDATALOAD PUSH8 0xFFFFFFFFFFFFFFFF DUP2 GT ISZERO PUSH2 0x4B4 JUMPI PUSH2 0x4B3 PUSH2 0x1F6 JUMP JUMPDEST JUMPDEST PUSH2 0x4C0 DUP6 DUP3 DUP7 ADD PUSH2 0x454 JUMP JUMPDEST SWAP3 POP POP PUSH1 0x20 PUSH2 0x4D1 DUP6 DUP3 DUP7 ADD PUSH2 0x273 JUMP JUMPDEST SWAP2 POP POP SWAP3 POP SWAP3 SWAP1 POP JUMP JUMPDEST PUSH2 0x4E4 DUP2 PUSH2 0x219 JUMP JUMPDEST DUP3 MSTORE POP POP JUMP JUMPDEST PUSH0 PUSH1 0x20 DUP3 ADD SWAP1 POP PUSH2 0x4FD PUSH0 DUP4 ADD DUP5 PUSH2 0x4DB JUMP JUMPDEST SWAP3 SWAP2 POP POP JUMP JUMPDEST PUSH2 0x50C DUP2 PUSH2 0x254 JUMP JUMPDEST DUP3 MSTORE POP POP JUMP JUMPDEST PUSH0 PUSH1 0x40 DUP3 ADD SWAP1 POP PUSH2 0x525 PUSH0 DUP4 ADD DUP6 PUSH2 0x4DB JUMP JUMPDEST PUSH2 0x532 PUSH1 0x20 DUP4 ADD DUP5 PUSH2 0x503 JUMP JUMPDEST SWAP4 SWAP3 POP POP POP JUMP JUMPDEST PUSH0 DUP2 SWAP1 POP SWAP3 SWAP2 POP POP JUMP JUMPDEST PUSH0 PUSH2 0x54D DUP3 PUSH2 0x2C5 JUMP JUMPDEST PUSH2 0x557 DUP2 DUP6 PUSH2 0x539 JUMP JUMPDEST SWAP4 POP PUSH2 0x567 DUP2 DUP6 PUSH1 0x20 DUP7 ADD PUSH2 0x2DF JUMP JUMPDEST DUP1 DUP5 ADD SWAP2 POP POP SWAP3 SWAP2 POP POP JUMP JUMPDEST PUSH0 PUSH2 0x57E DUP3 DUP6 PUSH2 0x543 JUMP JUMPDEST SWAP2 POP PUSH2 0x58A DUP3 DUP5 PUSH2 0x543 JUMP JUMPDEST SWAP2 POP DUP2 SWAP1 POP SWAP4 SWAP3 POP POP POP JUMP JUMPDEST PUSH0 PUSH32 0xFF00000000000000000000000000000000000000000000000000000000000000 DUP3 AND SWAP1 POP SWAP2 SWAP1 POP JUMP JUMPDEST PUSH0 DUP2 SWAP1 POP SWAP2 SWAP1 POP JUMP JUMPDEST PUSH2 0x5DB PUSH2 0x5D6 DUP3 PUSH2 0x596 JUMP JUMPDEST PUSH2 0x5C1 JUMP JUMPDEST DUP3 MSTORE POP POP JUMP JUMPDEST PUSH0 DUP2 PUSH1 0x60 SHL SWAP1 POP SWAP2 SWAP1 POP JUMP JUMPDEST PUSH0 PUSH2 0x5F7 DUP3 PUSH2 0x5E1 JUMP JUMPDEST SWAP1 POP SWAP2 SWAP1 POP JUMP JUMPDEST PUSH0 PUSH2 0x608 DUP3 PUSH2 0x5ED JUMP JUMPDEST SWAP1 POP SWAP2 SWAP1 POP JUMP JUMPDEST PUSH2 0x620 PUSH2 0x61B DUP3 PUSH2 0x219 JUMP JUMPDEST PUSH2 0x5FE JUMP JUMPDEST DUP3 MSTORE POP POP JUMP JUMPDEST PUSH0 DUP2 SWAP1 POP SWAP2 SWAP1 POP JUMP JUMPDEST PUSH2 0x640 PUSH2 0x63B DUP3 PUSH2 0x254 JUMP JUMPDEST PUSH2 0x626 JUMP JUMPDEST DUP3 MSTORE POP POP JUMP JUMPDEST PUSH0 DUP2 SWAP1 POP SWAP2 SWAP1 POP JUMP JUMPDEST PUSH0 DUP2 SWAP1 POP SWAP2 SWAP1 POP JUMP JUMPDEST PUSH2 0x669 PUSH2 0x664 DUP3 PUSH2 0x646 JUMP JUMPDEST PUSH2 0x64F JUMP JUMPDEST DUP3 MSTORE POP POP JUMP JUMPDEST PUSH0 PUSH2 0x67A DUP3 DUP8 PUSH2 0x5CA JUMP JUMPDEST PUSH1 0x1 DUP3 ADD SWAP2 POP PUSH2 0x68A DUP3 DUP7 PUSH2 0x60F JUMP JUMPDEST PUSH1 0x14 DUP3 ADD SWAP2 POP PUSH2 0x69A DUP3 DUP6 PUSH2 0x62F JUMP JUMPDEST PUSH1 0x20 DUP3 ADD SWAP2 POP PUSH2 0x6AA DUP3 DUP5 PUSH2 0x658 JUMP JUMPDEST PUSH1 0x20 DUP3 ADD SWAP2 POP DUP2 SWAP1 POP SWAP6 SWAP5 POP POP POP POP POP JUMP INVALID PUSH1 0x80 PUSH1 0x40 MSTORE PUSH1 0x40 MLOAD PUSH2 0x2DB CODESIZE SUB DUP1 PUSH2 0x2DB DUP4 CODECOPY DUP2 DUP2 ADD PUSH1 0x40 MSTORE DUP2 ADD SWAP1 PUSH2 0x25 SWAP2 SWAP1 PUSH2 0x103 JUMP JUMPDEST DUP2 PUSH0 PUSH0 PUSH2 0x100 EXP DUP2 SLOAD DUP2 PUSH20 0xFFFFFFFFFFFFFFFFFFFFFFFFFFFFFFFFFFFFFFFF MUL NOT AND SWAP1 DUP4 PUSH20 0xFFFFFFFFFFFFFFFFFFFFFFFFFFFFFFFFFFFFFFFF AND MUL OR SWAP1 SSTORE POP DUP1 PUSH1 0x1 DUP2 SWAP1 SSTORE POP POP POP PUSH2 0x141 JUMP JUMPDEST PUSH0 PUSH0 REVERT JUMPDEST PUSH0 PUSH20 0xFFFFFFFFFFFFFFFFFFFFFFFFFFFFFFFFFFFFFFFF DUP3 AND SWAP1 POP SWAP2 SWAP1 POP JUMP JUMPDEST PUSH0 PUSH2 0x9F DUP3 PUSH2 0x76 JUMP JUMPDEST SWAP1 POP SWAP2 SWAP1 POP JUMP JUMPDEST PUSH2 0xAF DUP2 PUSH2 0x95 JUMP JUMPDEST DUP2 EQ PUSH2 0xB9 JUMPI PUSH0 PUSH0 REVERT JUMPDEST POP JUMP JUMPDEST PUSH0 DUP2 MLOAD SWAP1 POP PUSH2 0xCA DUP2 PUSH2 0xA6 JUMP JUMPDEST SWAP3 SWAP2 POP POP JUMP JUMPDEST PUSH0 DUP2 SWAP1 POP SWAP2 SWAP1 POP JUMP JUMPDEST PUSH2 0xE2 DUP2 PUSH2 0xD0 JUMP JUMPDEST DUP2 EQ PUSH2 0xEC JUMPI PUSH0 PUSH0 REVERT JUMPDEST POP JUMP JUMPDEST PUSH0 DUP2 MLOAD SWAP1 POP PUSH2 0xFD DUP2 PUSH2 0xD9 JUMP JUMPDEST SWAP3 SWAP2 POP POP JUMP JUMPDEST PUSH0 PUSH0 PUSH1 0x40 DUP4 DUP6 SUB SLT ISZERO PUSH2 0x119 JUMPI PUSH2 0x118 PUSH2 0x72 JUMP JUMPDEST JUMPDEST PUSH0 PUSH2 0x126 DUP6 DUP3 DUP7 ADD PUSH2 0xBC JUMP JUMPDEST SWAP3 POP POP PUSH1 0x20 PUSH2 0x137 DUP6 DUP3 DUP7 ADD PUSH2 0xEF JUMP JUMPDEST SWAP2 POP POP SWAP3 POP SWAP3 SWAP1 POP JUMP JUMPDEST PUSH2 0x18D DUP1 PUSH2 0x14E PUSH0 CODECOPY PUSH0 RETURN INVALID PUSH1 0x80 PUSH1 0x40 MSTORE CALLVALUE DUP1 ISZERO PUSH2 0xF JUMPI PUSH0 PUSH0 REVERT JUMPDEST POP PUSH1 0x4 CALLDATASIZE LT PUSH2 0x3F JUMPI PUSH0 CALLDATALOAD PUSH1 0xE0 SHR DUP1 PUSH4 0x12065FE0 EQ PUSH2 0x43 JUMPI DUP1 PUSH4 0x8DA5CB5B EQ PUSH2 0x61 JUMPI DUP1 PUSH4 0xC2985578 EQ PUSH2 0x7F JUMPI JUMPDEST PUSH0 PUSH0 REVERT JUMPDEST PUSH2 0x4B PUSH2 0x9D JUMP JUMPDEST PUSH1 0x40 MLOAD PUSH2 0x58 SWAP2 SWAP1 PUSH2 0xE6 JUMP JUMPDEST PUSH1 0x40 MLOAD DUP1 SWAP2 SUB SWAP1 RETURN JUMPDEST PUSH2 0x69 PUSH2 0xA4 JUMP JUMPDEST PUSH1 0x40 MLOAD PUSH2 0x76 SWAP2 SWAP1 PUSH2 0x13E JUMP JUMPDEST PUSH1 0x40 MLOAD DUP1 SWAP2 SUB SWAP1 RETURN JUMPDEST PUSH2 0x87 PUSH2 0xC8 JUMP JUMPDEST PUSH1 0x40 MLOAD PUSH2 0x94 SWAP2 SWAP1 PUSH2 0xE6 JUMP JUMPDEST PUSH1 0x40 MLOAD DUP1 SWAP2 SUB SWAP1 RETURN JUMPDEST PUSH0 SELFBALANCE SWAP1 POP SWAP1 JUMP JUMPDEST PUSH0 PUSH0 SWAP1 SLOAD SWAP1 PUSH2 0x100 EXP SWAP1 DIV PUSH20 0xFFFFFFFFFFFFFFFFFFFFFFFFFFFFFFFFFFFFFFFF AND DUP2 JUMP JUMPDEST PUSH1 0x1 SLOAD DUP2 JUMP JUMPDEST PUSH0 DUP2 SWAP1 POP SWAP2 SWAP1 POP JUMP JUMPDEST PUSH2 0xE0 DUP2 PUSH2 0xCE JUMP JUMPDEST DUP3 MSTORE POP POP JUMP JUMPDEST PUSH0 PUSH1 0x20 DUP3 ADD SWAP1 POP PUSH2 0xF9 PUSH0 DUP4 ADD DUP5 PUSH2 0xD7 JUMP JUMPDEST SWAP3 SWAP2 POP POP JUMP JUMPDEST PUSH0 PUSH20 0xFFFFFFFFFFFFFFFFFFFFFFFFFFFFFFFFFFFFFFFF DUP3 AND SWAP1 POP SWAP2 SWAP1 POP JUMP JUMPDEST PUSH0 PUSH2 0x128 DUP3 PUSH2 0xFF JUMP JUMPDEST SWAP1 POP SWAP2 SWAP1 POP JUMP JUMPDEST PUSH2 0x138 DUP2 PUSH2 0x11E JUMP JUMPDEST DUP3 MSTORE POP POP JUMP JUMPDEST PUSH0 PUSH1 0x20 DUP3 ADD SWAP1 POP PUSH2 0x151 PUSH0 DUP4 ADD DUP5 PUSH2 0x12F JUMP JUMPDEST SWAP3 SWAP2 POP POP JUMP INVALID LOG2 PUSH5 0x6970667358 0x22 SLT KECCAK256 SHL EXTDELEGATECALL BLOBBASEFEE PUSH30 0xCCD87B5566EF231B80AB1B6D21E3BBC2A975A81A07E17B7F4A3224E26473 PUSH16 0x6C634300081E0033A264697066735822 SLT KECCAK256 RETURN OR 0xF6 0xAB 0xCE 0xB2 0xEB PUSH2 0x5ECA SWAP2 RETURNDATACOPY 0xEF EXTCALL GASLIMIT 0xA7 0xE8 0x2F SLOAD PUSH11 0x4344A8FBCA1111348CD97F BYTE PUSH5 0x736F6C6343 STOP ADDMOD 0x1E STOP CALLER "
		},
		"gasEstimates": {
			"creation": {
				"codeDepositCost": "501800",
				"executionCost": "535",
				"totalCost": "502335"
			},
			"external": {
				"deploy(bytes,uint256)": "infinite",
				"getAddress(bytes,uint256)": "infinite",
				"getBytecode(address,uint256)": "infinite"
			}
		},
		"methodIdentifiers": {
			"deploy(bytes,uint256)": "9c4ae2d0",
			"getAddress(bytes,uint256)": "94ca2cb5",
			"getBytecode(address,uint256)": "81871cbc"
		}
	},
	"abi": [
		{
			"anonymous": false,
			"inputs": [
				{
					"indexed": false,
					"internalType": "address",
					"name": "addr",
					"type": "address"
				},
				{
					"indexed": false,
					"internalType": "uint256",
					"name": "salt",
					"type": "uint256"
				}
			],
			"name": "Deployed",
			"type": "event"
		},
		{
			"inputs": [
				{
					"internalType": "bytes",
					"name": "bytecode",
					"type": "bytes"
				},
				{
					"internalType": "uint256",
					"name": "_salt",
					"type": "uint256"
				}
			],
			"name": "deploy",
			"outputs": [],
			"stateMutability": "payable",
			"type": "function"
		},
		{
			"inputs": [
				{
					"internalType": "bytes",
					"name": "bytecode",
					"type": "bytes"
				},
				{
					"internalType": "uint256",
					"name": "_salt",
					"type": "uint256"
				}
			],
			"name": "getAddress",
			"outputs": [
				{
					"internalType": "address",
					"name": "",
					"type": "address"
				}
			],
			"stateMutability": "view",
			"type": "function"
		},
		{
			"inputs": [
				{
					"internalType": "address",
					"name": "_owner",
					"type": "address"
				},
				{
					"internalType": "uint256",
					"name": "_foo",
					"type": "uint256"
				}
			],
			"name": "getBytecode",
			"outputs": [
				{
					"internalType": "bytes",
					"name": "",
					"type": "bytes"
				}
			],
			"stateMutability": "pure",
			"type": "function"
		}
	]
}