{
	"data": {
		"bytecode": {
			"linkReferences": {},
			"object": "6080604052348015600e575f5ffd5b50610aee8061001c5f395ff3fe608060405234801561000f575f5ffd5b5060043610610055575f3560e01c806397aba7f914610059578063a35f8a4014610089578063a7bb5803146100b9578063abe5026a146100eb578063fa5408011461011b575b5f5ffd5b610073600480360381019061006e9190610463565b61014b565b60405161008091906104fc565b60405180910390f35b6100a3600480360381019061009e9190610610565b6101b5565b6040516100b0919061069f565b60405180910390f35b6100d360048036038101906100ce91906106b8565b6101ed565b6040516100e29392919061071a565b60405180910390f35b6101056004803603810190610100919061074f565b610252565b604051610112919061082a565b60405180910390f35b61013560048036038101906101309190610843565b6102b4565b604051610142919061069f565b60405180910390f35b5f5f5f5f610158856101ed565b9250925092506001868285856040515f8152602001604052604051610180949392919061086e565b6020604051602081039080840390855afa1580156101a0573d5f5f3e3d5ffd5b50505060206040510351935050505092915050565b5f848484846040516020016101cd9493929190610968565b604051602081830303815290604052805190602001209050949350505050565b5f5f5f6041845114610234576040517f08c379a000000000000000000000000000000000000000000000000000000000815260040161022b90610a0b565b60405180910390fd5b602084015192506040840151915060608401515f1a90509193909250565b5f5f610260878787876101b5565b90505f61026c826102b4565b90508873ffffffffffffffffffffffffffffffffffffffff1661028f828661014b565b73ffffffffffffffffffffffffffffffffffffffff1614925050509695505050505050565b5f816040516020016102c69190610a93565b604051602081830303815290604052805190602001209050919050565b5f604051905090565b5f5ffd5b5f5ffd5b5f819050919050565b610306816102f4565b8114610310575f5ffd5b50565b5f81359050610321816102fd565b92915050565b5f5ffd5b5f5ffd5b5f601f19601f8301169050919050565b7f4e487b71000000000000000000000000000000000000000000000000000000005f52604160045260245ffd5b6103758261032f565b810181811067ffffffffffffffff821117156103945761039361033f565b5b80604052505050565b5f6103a66102e3565b90506103b2828261036c565b919050565b5f67ffffffffffffffff8211156103d1576103d061033f565b5b6103da8261032f565b9050602081019050919050565b828183375f83830152505050565b5f610407610402846103b7565b61039d565b9050828152602081018484840111156104235761042261032b565b5b61042e8482856103e7565b509392505050565b5f82601f83011261044a57610449610327565b5b813561045a8482602086016103f5565b91505092915050565b5f5f60408385031215610479576104786102ec565b5b5f61048685828601610313565b925050602083013567ffffffffffffffff8111156104a7576104a66102f0565b5b6104b385828601610436565b9150509250929050565b5f73ffffffffffffffffffffffffffffffffffffffff82169050919050565b5f6104e6826104bd565b9050919050565b6104f6816104dc565b82525050565b5f60208201905061050f5f8301846104ed565b92915050565b61051e816104dc565b8114610528575f5ffd5b50565b5f8135905061053981610515565b92915050565b5f819050919050565b6105518161053f565b811461055b575f5ffd5b50565b5f8135905061056c81610548565b92915050565b5f67ffffffffffffffff82111561058c5761058b61033f565b5b6105958261032f565b9050602081019050919050565b5f6105b46105af84610572565b61039d565b9050828152602081018484840111156105d0576105cf61032b565b5b6105db8482856103e7565b509392505050565b5f82601f8301126105f7576105f6610327565b5b81356106078482602086016105a2565b91505092915050565b5f5f5f5f60808587031215610628576106276102ec565b5b5f6106358782880161052b565b94505060206106468782880161055e565b935050604085013567ffffffffffffffff811115610667576106666102f0565b5b610673878288016105e3565b92505060606106848782880161055e565b91505092959194509250565b610699816102f4565b82525050565b5f6020820190506106b25f830184610690565b92915050565b5f602082840312156106cd576106cc6102ec565b5b5f82013567ffffffffffffffff8111156106ea576106e96102f0565b5b6106f684828501610436565b91505092915050565b5f60ff82169050919050565b610714816106ff565b82525050565b5f60608201905061072d5f830186610690565b61073a6020830185610690565b610747604083018461070b565b949350505050565b5f5f5f5f5f5f60c08789031215610769576107686102ec565b5b5f61077689828a0161052b565b965050602061078789828a0161052b565b955050604061079889828a0161055e565b945050606087013567ffffffffffffffff8111156107b9576107b86102f0565b5b6107c589828a016105e3565b93505060806107d689828a0161055e565b92505060a087013567ffffffffffffffff8111156107f7576107f66102f0565b5b61080389828a01610436565b9150509295509295509295565b5f8115159050919050565b61082481610810565b82525050565b5f60208201905061083d5f83018461081b565b92915050565b5f60208284031215610858576108576102ec565b5b5f61086584828501610313565b91505092915050565b5f6080820190506108815f830187610690565b61088e602083018661070b565b61089b6040830185610690565b6108a86060830184610690565b95945050505050565b5f8160601b9050919050565b5f6108c7826108b1565b9050919050565b5f6108d8826108bd565b9050919050565b6108f06108eb826104dc565b6108ce565b82525050565b5f819050919050565b61091061090b8261053f565b6108f6565b82525050565b5f81519050919050565b5f81905092915050565b8281835e5f83830152505050565b5f61094282610916565b61094c8185610920565b935061095c81856020860161092a565b80840191505092915050565b5f61097382876108df565b60148201915061098382866108ff565b6020820191506109938285610938565b915061099f82846108ff565b60208201915081905095945050505050565b5f82825260208201905092915050565b7f696e76616c6964207369676e6174757265206c656e67746800000000000000005f82015250565b5f6109f56018836109b1565b9150610a00826109c1565b602082019050919050565b5f6020820190508181035f830152610a22816109e9565b9050919050565b7f19457468657265756d205369676e6564204d6573736167653a0a3332000000005f82015250565b5f610a5d601c83610920565b9150610a6882610a29565b601c82019050919050565b5f819050919050565b610a8d610a88826102f4565b610a73565b82525050565b5f610a9d82610a51565b9150610aa98284610a7c565b6020820191508190509291505056fea2646970667358221220600db6cbf43a4c7927fb4e6f94f7448ad886c8080f4bdeecd70e6b07a3d6d9fc64736f6c634300081e0033",
			"opcodes": "PUSH1 0x80 PUSH1 0x40 MSTORE CALLVALUE DUP1 ISZERO PUSH1 0xE JUMPI PUSH0 PUSH0 REVERT JUMPDEST POP PUSH2 0xAEE DUP1 PUSH2 0x1C PUSH0 CODECOPY PUSH0 RETURN INVALID PUSH1 0x80 PUSH1 0x40 MSTORE CALLVALUE DUP1 ISZERO PUSH2 0xF JUMPI PUSH0 PUSH0 REVERT JUMPDEST POP PUSH1 0x4 CALLDATASIZE LT PUSH2 0x55 JUMPI PUSH0 CALLDATALOAD PUSH1 0xE0 SHR DUP1 PUSH4 0x97ABA7F9 EQ PUSH2 0x59 JUMPI DUP1 PUSH4 0xA35F8A40 EQ PUSH2 0x89 JUMPI DUP1 PUSH4 0xA7BB5803 EQ PUSH2 0xB9 JUMPI DUP1 PUSH4 0xABE5026A EQ PUSH2 0xEB JUMPI DUP1 PUSH4 0xFA540801 EQ PUSH2 0x11B JUMPI JUMPDEST PUSH0 PUSH0 REVERT JUMPDEST PUSH2 0x73 PUSH1 0x4 DUP1 CALLDATASIZE SUB DUP2 ADD SWAP1 PUSH2 0x6E SWAP2 SWAP1 PUSH2 0x463 JUMP JUMPDEST PUSH2 0x14B JUMP JUMPDEST PUSH1 0x40 MLOAD PUSH2 0x80 SWAP2 SWAP1 PUSH2 0x4FC JUMP JUMPDEST PUSH1 0x40 MLOAD DUP1 SWAP2 SUB SWAP1 RETURN JUMPDEST PUSH2 0xA3 PUSH1 0x4 DUP1 CALLDATASIZE SUB DUP2 ADD SWAP1 PUSH2 0x9E SWAP2 SWAP1 PUSH2 0x610 JUMP JUMPDEST PUSH2 0x1B5 JUMP JUMPDEST PUSH1 0x40 MLOAD PUSH2 0xB0 SWAP2 SWAP1 PUSH2 0x69F JUMP JUMPDEST PUSH1 0x40 MLOAD DUP1 SWAP2 SUB SWAP1 RETURN JUMPDEST PUSH2 0xD3 PUSH1 0x4 DUP1 CALLDATASIZE SUB DUP2 ADD SWAP1 PUSH2 0xCE SWAP2 SWAP1 PUSH2 0x6B8 JUMP JUMPDEST PUSH2 0x1ED JUMP JUMPDEST PUSH1 0x40 MLOAD PUSH2 0xE2 SWAP4 SWAP3 SWAP2 SWAP1 PUSH2 0x71A JUMP JUMPDEST PUSH1 0x40 MLOAD DUP1 SWAP2 SUB SWAP1 RETURN JUMPDEST PUSH2 0x105 PUSH1 0x4 DUP1 CALLDATASIZE SUB DUP2 ADD SWAP1 PUSH2 0x100 SWAP2 SWAP1 PUSH2 0x74F JUMP JUMPDEST PUSH2 0x252 JUMP JUMPDEST PUSH1 0x40 MLOAD PUSH2 0x112 SWAP2 SWAP1 PUSH2 0x82A JUMP JUMPDEST PUSH1 0x40 MLOAD DUP1 SWAP2 SUB SWAP1 RETURN JUMPDEST PUSH2 0x135 PUSH1 0x4 DUP1 CALLDATASIZE SUB DUP2 ADD SWAP1 PUSH2 0x130 SWAP2 SWAP1 PUSH2 0x843 JUMP JUMPDEST PUSH2 0x2B4 JUMP JUMPDEST PUSH1 0x40 MLOAD PUSH2 0x142 SWAP2 SWAP1 PUSH2 0x69F JUMP JUMPDEST PUSH1 0x40 MLOAD DUP1 SWAP2 SUB SWAP1 RETURN JUMPDEST PUSH0 PUSH0 PUSH0 PUSH0 PUSH2 0x158 DUP6 PUSH2 0x1ED JUMP JUMPDEST SWAP3 POP SWAP3 POP SWAP3 POP PUSH1 0x1 DUP7 DUP3 DUP6 DUP6 PUSH1 0x40 MLOAD PUSH0 DUP2 MSTORE PUSH1 0x20 ADD PUSH1 0x40 MSTORE PUSH1 0x40 MLOAD PUSH2 0x180 SWAP5 SWAP4 SWAP3 SWAP2 SWAP1 PUSH2 0x86E JUMP JUMPDEST PUSH1 0x20 PUSH1 0x40 MLOAD PUSH1 0x20 DUP2 SUB SWAP1 DUP1 DUP5 SUB SWAP1 DUP6 GAS STATICCALL ISZERO DUP1 ISZERO PUSH2 0x1A0 JUMPI RETURNDATASIZE PUSH0 PUSH0 RETURNDATACOPY RETURNDATASIZE PUSH0 REVERT JUMPDEST POP POP POP PUSH1 0x20 PUSH1 0x40 MLOAD SUB MLOAD SWAP4 POP POP POP POP SWAP3 SWAP2 POP POP JUMP JUMPDEST PUSH0 DUP5 DUP5 DUP5 DUP5 PUSH1 0x40 MLOAD PUSH1 0x20 ADD PUSH2 0x1CD SWAP5 SWAP4 SWAP3 SWAP2 SWAP1 PUSH2 0x968 JUMP JUMPDEST PUSH1 0x40 MLOAD PUSH1 0x20 DUP2 DUP4 SUB SUB DUP2 MSTORE SWAP1 PUSH1 0x40 MSTORE DUP1 MLOAD SWAP1 PUSH1 0x20 ADD KECCAK256 SWAP1 POP SWAP5 SWAP4 POP POP POP POP JUMP JUMPDEST PUSH0 PUSH0 PUSH0 PUSH1 0x41 DUP5 MLOAD EQ PUSH2 0x234 JUMPI PUSH1 0x40 MLOAD PUSH32 0x8C379A000000000000000000000000000000000000000000000000000000000 DUP2 MSTORE PUSH1 0x4 ADD PUSH2 0x22B SWAP1 PUSH2 0xA0B JUMP JUMPDEST PUSH1 0x40 MLOAD DUP1 SWAP2 SUB SWAP1 REVERT JUMPDEST PUSH1 0x20 DUP5 ADD MLOAD SWAP3 POP PUSH1 0x40 DUP5 ADD MLOAD SWAP2 POP PUSH1 0x60 DUP5 ADD MLOAD PUSH0 BYTE SWAP1 POP SWAP2 SWAP4 SWAP1 SWAP3 POP JUMP JUMPDEST PUSH0 PUSH0 PUSH2 0x260 DUP8 DUP8 DUP8 DUP8 PUSH2 0x1B5 JUMP JUMPDEST SWAP1 POP PUSH0 PUSH2 0x26C DUP3 PUSH2 0x2B4 JUMP JUMPDEST SWAP1 POP DUP9 PUSH20 0xFFFFFFFFFFFFFFFFFFFFFFFFFFFFFFFFFFFFFFFF AND PUSH2 0x28F DUP3 DUP7 PUSH2 0x14B JUMP JUMPDEST PUSH20 0xFFFFFFFFFFFFFFFFFFFFFFFFFFFFFFFFFFFFFFFF AND EQ SWAP3 POP POP POP SWAP7 SWAP6 POP POP POP POP POP POP JUMP JUMPDEST PUSH0 DUP2 PUSH1 0x40 MLOAD PUSH1 0x20 ADD PUSH2 0x2C6 SWAP2 SWAP1 PUSH2 0xA93 JUMP JUMPDEST PUSH1 0x40 MLOAD PUSH1 0x20 DUP2 DUP4 SUB SUB DUP2 MSTORE SWAP1 PUSH1 0x40 MSTORE DUP1 MLOAD SWAP1 PUSH1 0x20 ADD KECCAK256 SWAP1 POP SWAP2 SWAP1 POP JUMP JUMPDEST PUSH0 PUSH1 0x40 MLOAD SWAP1 POP SWAP1 JUMP JUMPDEST PUSH0 PUSH0 REVERT JUMPDEST PUSH0 PUSH0 REVERT JUMPDEST PUSH0 DUP2 SWAP1 POP SWAP2 SWAP1 POP JUMP JUMPDEST PUSH2 0x306 DUP2 PUSH2 0x2F4 JUMP JUMPDEST DUP2 EQ PUSH2 0x310 JUMPI PUSH0 PUSH0 REVERT JUMPDEST POP JUMP JUMPDEST PUSH0 DUP2 CALLDATALOAD SWAP1 POP PUSH2 0x321 DUP2 PUSH2 0x2FD JUMP JUMPDEST SWAP3 SWAP2 POP POP JUMP JUMPDEST PUSH0 PUSH0 REVERT JUMPDEST PUSH0 PUSH0 REVERT JUMPDEST PUSH0 PUSH1 0x1F NOT PUSH1 0x1F DUP4 ADD AND SWAP1 POP SWAP2 SWAP1 POP JUMP JUMPDEST PUSH32 0x4E487B7100000000000000000000000000000000000000000000000000000000 PUSH0 MSTORE PUSH1 0x41 PUSH1 0x4 MSTORE PUSH1 0x24 PUSH0 REVERT JUMPDEST PUSH2 0x375 DUP3 PUSH2 0x32F JUMP JUMPDEST DUP2 ADD DUP2 DUP2 LT PUSH8 0xFFFFFFFFFFFFFFFF DUP3 GT OR ISZERO PUSH2 0x394 JUMPI PUSH2 0x393 PUSH2 0x33F JUMP JUMPDEST JUMPDEST DUP1 PUSH1 0x40 MSTORE POP POP POP JUMP JUMPDEST PUSH0 PUSH2 0x3A6 PUSH2 0x2E3 JUMP JUMPDEST SWAP1 POP PUSH2 0x3B2 DUP3 DUP3 PUSH2 0x36C JUMP JUMPDEST SWAP2 SWAP1 POP JUMP JUMPDEST PUSH0 PUSH8 0xFFFFFFFFFFFFFFFF DUP3 GT ISZERO PUSH2 0x3D1 JUMPI PUSH2 0x3D0 PUSH2 0x33F JUMP JUMPDEST JUMPDEST PUSH2 0x3DA DUP3 PUSH2 0x32F JUMP JUMPDEST SWAP1 POP PUSH1 0x20 DUP2 ADD SWAP1 POP SWAP2 SWAP1 POP JUMP JUMPDEST DUP3 DUP2 DUP4 CALLDATACOPY PUSH0 DUP4 DUP4 ADD MSTORE POP POP POP JUMP JUMPDEST PUSH0 PUSH2 0x407 PUSH2 0x402 DUP5 PUSH2 0x3B7 JUMP JUMPDEST PUSH2 0x39D JUMP JUMPDEST SWAP1 POP DUP3 DUP2 MSTORE PUSH1 0x20 DUP2 ADD DUP5 DUP5 DUP5 ADD GT ISZERO PUSH2 0x423 JUMPI PUSH2 0x422 PUSH2 0x32B JUMP JUMPDEST JUMPDEST PUSH2 0x42E DUP5 DUP3 DUP6 PUSH2 0x3E7 JUMP JUMPDEST POP SWAP4 SWAP3 POP POP POP JUMP JUMPDEST PUSH0 DUP3 PUSH1 0x1F DUP4 ADD SLT PUSH2 0x44A JUMPI PUSH2 0x449 PUSH2 0x327 JUMP JUMPDEST JUMPDEST DUP2 CALLDATALOAD PUSH2 0x45A DUP5 DUP3 PUSH1 0x20 DUP7 ADD PUSH2 0x3F5 JUMP JUMPDEST SWAP2 POP POP SWAP3 SWAP2 POP POP JUMP JUMPDEST PUSH0 PUSH0 PUSH1 0x40 DUP4 DUP6 SUB SLT ISZERO PUSH2 0x479 JUMPI PUSH2 0x478 PUSH2 0x2EC JUMP JUMPDEST JUMPDEST PUSH0 PUSH2 0x486 DUP6 DUP3 DUP7 ADD PUSH2 0x313 JUMP JUMPDEST SWAP3 POP POP PUSH1 0x20 DUP4 ADD CALLDATALOAD PUSH8 0xFFFFFFFFFFFFFFFF DUP2 GT ISZERO PUSH2 0x4A7 JUMPI PUSH2 0x4A6 PUSH2 0x2F0 JUMP JUMPDEST JUMPDEST PUSH2 0x4B3 DUP6 DUP3 DUP7 ADD PUSH2 0x436 JUMP JUMPDEST SWAP2 POP POP SWAP3 POP SWAP3 SWAP1 POP JUMP JUMPDEST PUSH0 PUSH20 0xFFFFFFFFFFFFFFFFFFFFFFFFFFFFFFFFFFFFFFFF DUP3 AND SWAP1 POP SWAP2 SWAP1 POP JUMP JUMPDEST PUSH0 PUSH2 0x4E6 DUP3 PUSH2 0x4BD JUMP JUMPDEST SWAP1 POP SWAP2 SWAP1 POP JUMP JUMPDEST PUSH2 0x4F6 DUP2 PUSH2 0x4DC JUMP JUMPDEST DUP3 MSTORE POP POP JUMP JUMPDEST PUSH0 PUSH1 0x20 DUP3 ADD SWAP1 POP PUSH2 0x50F PUSH0 DUP4 ADD DUP5 PUSH2 0x4ED JUMP JUMPDEST SWAP3 SWAP2 POP POP JUMP JUMPDEST PUSH2 0x51E DUP2 PUSH2 0x4DC JUMP JUMPDEST DUP2 EQ PUSH2 0x528 JUMPI PUSH0 PUSH0 REVERT JUMPDEST POP JUMP JUMPDEST PUSH0 DUP2 CALLDATALOAD SWAP1 POP PUSH2 0x539 DUP2 PUSH2 0x515 JUMP JUMPDEST SWAP3 SWAP2 POP POP JUMP JUMPDEST PUSH0 DUP2 SWAP1 POP SWAP2 SWAP1 POP JUMP JUMPDEST PUSH2 0x551 DUP2 PUSH2 0x53F JUMP JUMPDEST DUP2 EQ PUSH2 0x55B JUMPI PUSH0 PUSH0 REVERT JUMPDEST POP JUMP JUMPDEST PUSH0 DUP2 CALLDATALOAD SWAP1 POP PUSH2 0x56C DUP2 PUSH2 0x548 JUMP JUMPDEST SWAP3 SWAP2 POP POP JUMP JUMPDEST PUSH0 PUSH8 0xFFFFFFFFFFFFFFFF DUP3 GT ISZERO PUSH2 0x58C JUMPI PUSH2 0x58B PUSH2 0x33F JUMP JUMPDEST JUMPDEST PUSH2 0x595 DUP3 PUSH2 0x32F JUMP JUMPDEST SWAP1 POP PUSH1 0x20 DUP2 ADD SWAP1 POP SWAP2 SWAP1 POP JUMP JUMPDEST PUSH0 PUSH2 0x5B4 PUSH2 0x5AF DUP5 PUSH2 0x572 JUMP JUMPDEST PUSH2 0x39D JUMP JUMPDEST SWAP1 POP DUP3 DUP2 MSTORE PUSH1 0x20 DUP2 ADD DUP5 DUP5 DUP5 ADD GT ISZERO PUSH2 0x5D0 JUMPI PUSH2 0x5CF PUSH2 0x32B JUMP JUMPDEST JUMPDEST PUSH2 0x5DB DUP5 DUP3 DUP6 PUSH2 0x3E7 JUMP JUMPDEST POP SWAP4 SWAP3 POP POP POP JUMP JUMPDEST PUSH0 DUP3 PUSH1 0x1F DUP4 ADD SLT PUSH2 0x5F7 JUMPI PUSH2 0x5F6 PUSH2 0x327 JUMP JUMPDEST JUMPDEST DUP2 CALLDATALOAD PUSH2 0x607 DUP5 DUP3 PUSH1 0x20 DUP7 ADD PUSH2 0x5A2 JUMP JUMPDEST SWAP2 POP POP SWAP3 SWAP2 POP POP JUMP JUMPDEST PUSH0 PUSH0 PUSH0 PUSH0 PUSH1 0x80 DUP6 DUP8 SUB SLT ISZERO PUSH2 0x628 JUMPI PUSH2 0x627 PUSH2 0x2EC JUMP JUMPDEST JUMPDEST PUSH0 PUSH2 0x635 DUP8 DUP3 DUP9 ADD PUSH2 0x52B JUMP JUMPDEST SWAP5 POP POP PUSH1 0x20 PUSH2 0x646 DUP8 DUP3 DUP9 ADD PUSH2 0x55E JUMP JUMPDEST SWAP4 POP POP PUSH1 0x40 DUP6 ADD CALLDATALOAD PUSH8 0xFFFFFFFFFFFFFFFF DUP2 GT ISZERO PUSH2 0x667 JUMPI PUSH2 0x666 PUSH2 0x2F0 JUMP JUMPDEST JUMPDEST PUSH2 0x673 DUP8 DUP3 DUP9 ADD PUSH2 0x5E3 JUMP JUMPDEST SWAP3 POP POP PUSH1 0x60 PUSH2 0x684 DUP8 DUP3 DUP9 ADD PUSH2 0x55E JUMP JUMPDEST SWAP2 POP POP SWAP3 SWAP6 SWAP2 SWAP5 POP SWAP3 POP JUMP JUMPDEST PUSH2 0x699 DUP2 PUSH2 0x2F4 JUMP JUMPDEST DUP3 MSTORE POP POP JUMP JUMPDEST PUSH0 PUSH1 0x20 DUP3 ADD SWAP1 POP PUSH2 0x6B2 PUSH0 DUP4 ADD DUP5 PUSH2 0x690 JUMP JUMPDEST SWAP3 SWAP2 POP POP JUMP JUMPDEST PUSH0 PUSH1 0x20 DUP3 DUP5 SUB SLT ISZERO PUSH2 0x6CD JUMPI PUSH2 0x6CC PUSH2 0x2EC JUMP JUMPDEST JUMPDEST PUSH0 DUP3 ADD CALLDATALOAD PUSH8 0xFFFFFFFFFFFFFFFF DUP2 GT ISZERO PUSH2 0x6EA JUMPI PUSH2 0x6E9 PUSH2 0x2F0 JUMP JUMPDEST JUMPDEST PUSH2 0x6F6 DUP5 DUP3 DUP6 ADD PUSH2 0x436 JUMP JUMPDEST SWAP2 POP POP SWAP3 SWAP2 POP POP JUMP JUMPDEST PUSH0 PUSH1 0xFF DUP3 AND SWAP1 POP SWAP2 SWAP1 POP JUMP JUMPDEST PUSH2 0x714 DUP2 PUSH2 0x6FF JUMP JUMPDEST DUP3 MSTORE POP POP JUMP JUMPDEST PUSH0 PUSH1 0x60 DUP3 ADD SWAP1 POP PUSH2 0x72D PUSH0 DUP4 ADD DUP7 PUSH2 0x690 JUMP JUMPDEST PUSH2 0x73A PUSH1 0x20 DUP4 ADD DUP6 PUSH2 0x690 JUMP JUMPDEST PUSH2 0x747 PUSH1 0x40 DUP4 ADD DUP5 PUSH2 0x70B JUMP JUMPDEST SWAP5 SWAP4 POP POP POP POP JUMP JUMPDEST PUSH0 PUSH0 PUSH0 PUSH0 PUSH0 PUSH0 PUSH1 0xC0 DUP8 DUP10 SUB SLT ISZERO PUSH2 0x769 JUMPI PUSH2 0x768 PUSH2 0x2EC JUMP JUMPDEST JUMPDEST PUSH0 PUSH2 0x776 DUP10 DUP3 DUP11 ADD PUSH2 0x52B JUMP JUMPDEST SWAP7 POP POP PUSH1 0x20 PUSH2 0x787 DUP10 DUP3 DUP11 ADD PUSH2 0x52B JUMP JUMPDEST SWAP6 POP POP PUSH1 0x40 PUSH2 0x798 DUP10 DUP3 DUP11 ADD PUSH2 0x55E JUMP JUMPDEST SWAP5 POP POP PUSH1 0x60 DUP8 ADD CALLDATALOAD PUSH8 0xFFFFFFFFFFFFFFFF DUP2 GT ISZERO PUSH2 0x7B9 JUMPI PUSH2 0x7B8 PUSH2 0x2F0 JUMP JUMPDEST JUMPDEST PUSH2 0x7C5 DUP10 DUP3 DUP11 ADD PUSH2 0x5E3 JUMP JUMPDEST SWAP4 POP POP PUSH1 0x80 PUSH2 0x7D6 DUP10 DUP3 DUP11 ADD PUSH2 0x55E JUMP JUMPDEST SWAP3 POP POP PUSH1 0xA0 DUP8 ADD CALLDATALOAD PUSH8 0xFFFFFFFFFFFFFFFF DUP2 GT ISZERO PUSH2 0x7F7 JUMPI PUSH2 0x7F6 PUSH2 0x2F0 JUMP JUMPDEST JUMPDEST PUSH2 0x803 DUP10 DUP3 DUP11 ADD PUSH2 0x436 JUMP JUMPDEST SWAP2 POP POP SWAP3 SWAP6 POP SWAP3 SWAP6 POP SWAP3 SWAP6 JUMP JUMPDEST PUSH0 DUP2 ISZERO ISZERO SWAP1 POP SWAP2 SWAP1 POP JUMP JUMPDEST PUSH2 0x824 DUP2 PUSH2 0x810 JUMP JUMPDEST DUP3 MSTORE POP POP JUMP JUMPDEST PUSH0 PUSH1 0x20 DUP3 ADD SWAP1 POP PUSH2 0x83D PUSH0 DUP4 ADD DUP5 PUSH2 0x81B JUMP JUMPDEST SWAP3 SWAP2 POP POP JUMP JUMPDEST PUSH0 PUSH1 0x20 DUP3 DUP5 SUB SLT ISZERO PUSH2 0x858 JUMPI PUSH2 0x857 PUSH2 0x2EC JUMP JUMPDEST JUMPDEST PUSH0 PUSH2 0x865 DUP5 DUP3 DUP6 ADD PUSH2 0x313 JUMP JUMPDEST SWAP2 POP POP SWAP3 SWAP2 POP POP JUMP JUMPDEST PUSH0 PUSH1 0x80 DUP3 ADD SWAP1 POP PUSH2 0x881 PUSH0 DUP4 ADD DUP8 PUSH2 0x690 JUMP JUMPDEST PUSH2 0x88E PUSH1 0x20 DUP4 ADD DUP7 PUSH2 0x70B JUMP JUMPDEST PUSH2 0x89B PUSH1 0x40 DUP4 ADD DUP6 PUSH2 0x690 JUMP JUMPDEST PUSH2 0x8A8 PUSH1 0x60 DUP4 ADD DUP5 PUSH2 0x690 JUMP JUMPDEST SWAP6 SWAP5 POP POP POP POP POP JUMP JUMPDEST PUSH0 DUP2 PUSH1 0x60 SHL SWAP1 POP SWAP2 SWAP1 POP JUMP JUMPDEST PUSH0 PUSH2 0x8C7 DUP3 PUSH2 0x8B1 JUMP JUMPDEST SWAP1 POP SWAP2 SWAP1 POP JUMP JUMPDEST PUSH0 PUSH2 0x8D8 DUP3 PUSH2 0x8BD JUMP JUMPDEST SWAP1 POP SWAP2 SWAP1 POP JUMP JUMPDEST PUSH2 0x8F0 PUSH2 0x8EB DUP3 PUSH2 0x4DC JUMP JUMPDEST PUSH2 0x8CE JUMP JUMPDEST DUP3 MSTORE POP POP JUMP JUMPDEST PUSH0 DUP2 SWAP1 POP SWAP2 SWAP1 POP JUMP JUMPDEST PUSH2 0x910 PUSH2 0x90B DUP3 PUSH2 0x53F JUMP JUMPDEST PUSH2 0x8F6 JUMP JUMPDEST DUP3 MSTORE POP POP JUMP JUMPDEST PUSH0 DUP2 MLOAD SWAP1 POP SWAP2 SWAP1 POP JUMP JUMPDEST PUSH0 DUP2 SWAP1 POP SWAP3 SWAP2 POP POP JUMP JUMPDEST DUP3 DUP2 DUP4 MCOPY PUSH0 DUP4 DUP4 ADD MSTORE POP POP POP JUMP JUMPDEST PUSH0 PUSH2 0x942 DUP3 PUSH2 0x916 JUMP JUMPDEST PUSH2 0x94C DUP2 DUP6 PUSH2 0x920 JUMP JUMPDEST SWAP4 POP PUSH2 0x95C DUP2 DUP6 PUSH1 0x20 DUP7 ADD PUSH2 0x92A JUMP JUMPDEST DUP1 DUP5 ADD SWAP2 POP POP SWAP3 SWAP2 POP POP JUMP JUMPDEST PUSH0 PUSH2 0x973 DUP3 DUP8 PUSH2 0x8DF JUMP JUMPDEST PUSH1 0x14 DUP3 ADD SWAP2 POP PUSH2 0x983 DUP3 DUP7 PUSH2 0x8FF JUMP JUMPDEST PUSH1 0x20 DUP3 ADD SWAP2 POP PUSH2 0x993 DUP3 DUP6 PUSH2 0x938 JUMP JUMPDEST SWAP2 POP PUSH2 0x99F DUP3 DUP5 PUSH2 0x8FF JUMP JUMPDEST PUSH1 0x20 DUP3 ADD SWAP2 POP DUP2 SWAP1 POP SWAP6 SWAP5 POP POP POP POP POP JUMP JUMPDEST PUSH0 DUP3 DUP3 MSTORE PUSH1 0x20 DUP3 ADD SWAP1 POP SWAP3 SWAP2 POP POP JUMP JUMPDEST PUSH32 0x696E76616C6964207369676E6174757265206C656E6774680000000000000000 PUSH0 DUP3 ADD MSTORE POP JUMP JUMPDEST PUSH0 PUSH2 0x9F5 PUSH1 0x18 DUP4 PUSH2 0x9B1 JUMP JUMPDEST SWAP2 POP PUSH2 0xA00 DUP3 PUSH2 0x9C1 JUMP JUMPDEST PUSH1 0x20 DUP3 ADD SWAP1 POP SWAP2 SWAP1 POP JUMP JUMPDEST PUSH0 PUSH1 0x20 DUP3 ADD SWAP1 POP DUP2 DUP2 SUB PUSH0 DUP4 ADD MSTORE PUSH2 0xA22 DUP2 PUSH2 0x9E9 JUMP JUMPDEST SWAP1 POP SWAP2 SWAP1 POP JUMP JUMPDEST PUSH32 0x19457468657265756D205369676E6564204D6573736167653A0A333200000000 PUSH0 DUP3 ADD MSTORE POP JUMP JUMPDEST PUSH0 PUSH2 0xA5D PUSH1 0x1C DUP4 PUSH2 0x920 JUMP JUMPDEST SWAP2 POP PUSH2 0xA68 DUP3 PUSH2 0xA29 JUMP JUMPDEST PUSH1 0x1C DUP3 ADD SWAP1 POP SWAP2 SWAP1 POP JUMP JUMPDEST PUSH0 DUP2 SWAP1 POP SWAP2 SWAP1 POP JUMP JUMPDEST PUSH2 0xA8D PUSH2 0xA88 DUP3 PUSH2 0x2F4 JUMP JUMPDEST PUSH2 0xA73 JUMP JUMPDEST DUP3 MSTORE POP POP JUMP JUMPDEST PUSH0 PUSH2 0xA9D DUP3 PUSH2 0xA51 JUMP JUMPDEST SWAP2 POP PUSH2 0xAA9 DUP3 DUP5 PUSH2 0xA7C JUMP JUMPDEST PUSH1 0x20 DUP3 ADD SWAP2 POP DUP2 SWAP1 POP SWAP3 SWAP2 POP POP JUMP INVALID LOG2 PUSH5 0x6970667358 0x22 SLT KECCAK256 PUSH1 0xD 0xB6 0xCB DELEGATECALL GASPRICE 0x4C PUSH26 0x27FB4E6F94F7448AD886C8080F4BDEECD70E6B07A3D6D9FC6473 PUSH16 0x6C634300081E00330000000000000000 "
		},
		"gasEstimates": {
			"creation": {
				"codeDepositCost": "559600",
				"executionCost": "592",
				"totalCost": "560192"
			},
			"external": {
				"getEthSignedMessageHash(bytes32)": "infinite",
				"getMessageHash(address,uint256,string,uint256)": "infinite",
				"recoverSigner(bytes32,bytes)": "infinite",
				"splitSignature(bytes)": "infinite",
				"verify(address,address,uint256,string,uint256,bytes)": "infinite"
			}
		},
		"methodIdentifiers": {
			"getEthSignedMessageHash(bytes32)": "fa540801",
			"getMessageHash(address,uint256,string,uint256)": "a35f8a40",
			"recoverSigner(bytes32,bytes)": "97aba7f9",
			"splitSignature(bytes)": "a7bb5803",
			"verify(address,address,uint256,string,uint256,bytes)": "abe5026a"
		}
	},
	"abi": [
		{
			"inputs": [
				{
					"internalType": "bytes32",
					"name": "_messageHash",
					"type": "bytes32"
				}
			],
			"name": "getEthSignedMessageHash",
			"outputs": [
				{
					"internalType": "bytes32",
					"name": "",
					"type": "bytes32"
				}
			],
			"stateMutability": "pure",
			"type": "function"
		},
		{
			"inputs": [
				{
					"internalType": "address",
					"name": "_to",
					"type": "address"
				},
				{
					"internalType": "uint256",
					"name": "_amount",
					"type": "uint256"
				},
				{
					"internalType": "string",
					"name": "_message",
					"type": "string"
				},
				{
					"internalType": "uint256",
					"name": "_nonce",
					"type": "uint256"
				}
			],
			"name": "getMessageHash",
			"outputs": [
				{
					"internalType": "bytes32",
					"name": "",
					"type": "bytes32"
				}
			],
			"stateMutability": "pure",
			"type": "function"
		},
		{
			"inputs": [
				{
					"internalType": "bytes32",
					"name": "_ethSignedMessageHash",
					"type": "bytes32"
				},
				{
					"internalType": "bytes",
					"name": "_signature",
					"type": "bytes"
				}
			],
			"name": "recoverSigner",
			"outputs": [
				{
					"internalType": "address",
					"name": "",
					"type": "address"
				}
			],
			"stateMutability": "pure",
			"type": "function"
		},
		{
			"inputs": [
				{
					"internalType": "bytes",
					"name": "sig",
					"type": "bytes"
				}
			],
			"name": "splitSignature",
			"outputs": [
				{
					"internalType": "bytes32",
					"name": "r",
					"type": "bytes32"
				},
				{
					"internalType": "bytes32",
					"name": "s",
					"type": "bytes32"
				},
				{
					"internalType": "uint8",
					"name": "v",
					"type": "uint8"
				}
			],
			"stateMutability": "pure",
			"type": "function"
		},
		{
			"inputs": [
				{
					"internalType": "address",
					"name": "_signer",
					"type": "address"
				},
				{
					"internalType": "address",
					"name": "_to",
					"type": "address"
				},
				{
					"internalType": "uint256",
					"name": "_amount",
					"type": "uint256"
				},
				{
					"internalType": "string",
					"name": "_message",
					"type": "string"
				},
				{
					"internalType": "uint256",
					"name": "_nonce",
					"type": "uint256"
				},
				{
					"internalType": "bytes",
					"name": "signature",
					"type": "bytes"
				}
			],
			"name": "verify",
			"outputs": [
				{
					"internalType": "bool",
					"name": "",
					"type": "bool"
				}
			],
			"stateMutability": "pure",
			"type": "function"
		}
	]
}