{"abi":[{"type":"constructor","inputs":[{"name":"_initialValue","type":"uint256","internalType":"uint256"}],"stateMutability":"nonpayable"},{"type":"function","name":"get","inputs":[],"outputs":[{"name":"","type":"uint256","internalType":"uint256"}],"stateMutability":"view"},{"type":"function","name":"increment","inputs":[],"outputs":[],"stateMutability":"nonpayable"},{"type":"function","name":"set","inputs":[{"name":"_value","type":"uint256","internalType":"uint256"}],"outputs":[],"stateMutability":"nonpayable"},{"type":"event","name":"ValueChanged","inputs":[{"name":"oldValue","type":"uint256","indexed":false,"internalType":"uint256"},{"name":"newValue","type":"uint256","indexed":false,"internalType":"uint256"},{"name":"changer","type":"address","indexed":true,"internalType":"address"}],"anonymous":false}],"bytecode":{"object":"0x6080604052348015600e575f5ffd5b506040516101da3803806101da833981016040819052602b916031565b5f556047565b5f602082840312156040575f5ffd5b5051919050565b610186806100545f395ff3fe608060405234801561000f575f5ffd5b506004361061003f575f3560e01c806360fe47b1146100435780636d4ce63c14610058578063d09de08a1461006c575b5f5ffd5b610056610051366004610115565b610074565b005b5f5460405190815260200160405180910390f35b6100566100ba565b5f805490829055604080518281526020810184905233917f681683094c99fb1b55d9c72829a0516f885774946ee037b112798941433c137b910160405180910390a25050565b5f8054908190806100ca8361012c565b90915550505f5460405133917f681683094c99fb1b55d9c72829a0516f885774946ee037b112798941433c137b9161010a91858252602082015260400190565b60405180910390a250565b5f60208284031215610125575f5ffd5b5035919050565b5f6001820161014957634e487b7160e01b5f52601160045260245ffd5b506001019056fea26469706673582212209fbcd13c816e0b81e201232ff059a71b7543c917bd0dec07662645ddac2a1a4964736f6c634300081c0033","linkReferences":{}},"methodIdentifiers":{"get()":"6d4ce63c","increment()":"d09de08a","set(uint256)":"60fe47b1"},"id":19}